{
  "address": "0xFFD36165c665A6c9146b0f592b0503295B9DEFf3",
  "abi": [
    {
      "inputs": [],
      "stateMutability": "nonpayable",
      "type": "constructor"
    },
    {
      "anonymous": false,
      "inputs": [
        {
          "indexed": true,
          "internalType": "address",
          "name": "owner",
          "type": "address"
        },
        {
          "indexed": true,
          "internalType": "address",
          "name": "approved",
          "type": "address"
        },
        {
          "indexed": true,
          "internalType": "uint256",
          "name": "tokenId",
          "type": "uint256"
        }
      ],
      "name": "Approval",
      "type": "event"
    },
    {
      "anonymous": false,
      "inputs": [
        {
          "indexed": true,
          "internalType": "address",
          "name": "owner",
          "type": "address"
        },
        {
          "indexed": true,
          "internalType": "address",
          "name": "operator",
          "type": "address"
        },
        {
          "indexed": false,
          "internalType": "bool",
          "name": "approved",
          "type": "bool"
        }
      ],
      "name": "ApprovalForAll",
      "type": "event"
    },
    {
      "anonymous": false,
      "inputs": [
        {
          "indexed": true,
          "internalType": "uint256",
          "name": "tokenId",
          "type": "uint256"
        },
        {
          "indexed": false,
          "internalType": "string",
          "name": "tokenURI",
          "type": "string"
        }
      ],
      "name": "Minted",
      "type": "event"
    },
    {
      "anonymous": false,
      "inputs": [
        {
          "indexed": true,
          "internalType": "bytes32",
          "name": "role",
          "type": "bytes32"
        },
        {
          "indexed": true,
          "internalType": "bytes32",
          "name": "previousAdminRole",
          "type": "bytes32"
        },
        {
          "indexed": true,
          "internalType": "bytes32",
          "name": "newAdminRole",
          "type": "bytes32"
        }
      ],
      "name": "RoleAdminChanged",
      "type": "event"
    },
    {
      "anonymous": false,
      "inputs": [
        {
          "indexed": true,
          "internalType": "bytes32",
          "name": "role",
          "type": "bytes32"
        },
        {
          "indexed": true,
          "internalType": "address",
          "name": "account",
          "type": "address"
        },
        {
          "indexed": true,
          "internalType": "address",
          "name": "sender",
          "type": "address"
        }
      ],
      "name": "RoleGranted",
      "type": "event"
    },
    {
      "anonymous": false,
      "inputs": [
        {
          "indexed": true,
          "internalType": "bytes32",
          "name": "role",
          "type": "bytes32"
        },
        {
          "indexed": true,
          "internalType": "address",
          "name": "account",
          "type": "address"
        },
        {
          "indexed": true,
          "internalType": "address",
          "name": "sender",
          "type": "address"
        }
      ],
      "name": "RoleRevoked",
      "type": "event"
    },
    {
      "anonymous": false,
      "inputs": [
        {
          "indexed": true,
          "internalType": "address",
          "name": "from",
          "type": "address"
        },
        {
          "indexed": true,
          "internalType": "address",
          "name": "to",
          "type": "address"
        },
        {
          "indexed": true,
          "internalType": "uint256",
          "name": "tokenId",
          "type": "uint256"
        }
      ],
      "name": "Transfer",
      "type": "event"
    },
    {
      "inputs": [],
      "name": "DEFAULT_ADMIN_ROLE",
      "outputs": [
        {
          "internalType": "bytes32",
          "name": "",
          "type": "bytes32"
        }
      ],
      "stateMutability": "view",
      "type": "function"
    },
    {
      "inputs": [],
      "name": "MINTER_ROLE",
      "outputs": [
        {
          "internalType": "bytes32",
          "name": "",
          "type": "bytes32"
        }
      ],
      "stateMutability": "view",
      "type": "function"
    },
    {
      "inputs": [
        {
          "internalType": "address",
          "name": "to",
          "type": "address"
        },
        {
          "internalType": "uint256",
          "name": "tokenId",
          "type": "uint256"
        }
      ],
      "name": "approve",
      "outputs": [],
      "stateMutability": "nonpayable",
      "type": "function"
    },
    {
      "inputs": [
        {
          "internalType": "address",
          "name": "owner",
          "type": "address"
        }
      ],
      "name": "balanceOf",
      "outputs": [
        {
          "internalType": "uint256",
          "name": "",
          "type": "uint256"
        }
      ],
      "stateMutability": "view",
      "type": "function"
    },
    {
      "inputs": [
        {
          "internalType": "uint256",
          "name": "tokenId",
          "type": "uint256"
        }
      ],
      "name": "getApproved",
      "outputs": [
        {
          "internalType": "address",
          "name": "",
          "type": "address"
        }
      ],
      "stateMutability": "view",
      "type": "function"
    },
    {
      "inputs": [
        {
          "internalType": "bytes32",
          "name": "role",
          "type": "bytes32"
        }
      ],
      "name": "getRoleAdmin",
      "outputs": [
        {
          "internalType": "bytes32",
          "name": "",
          "type": "bytes32"
        }
      ],
      "stateMutability": "view",
      "type": "function"
    },
    {
      "inputs": [
        {
          "internalType": "bytes32",
          "name": "role",
          "type": "bytes32"
        },
        {
          "internalType": "address",
          "name": "account",
          "type": "address"
        }
      ],
      "name": "grantRole",
      "outputs": [],
      "stateMutability": "nonpayable",
      "type": "function"
    },
    {
      "inputs": [
        {
          "internalType": "bytes32",
          "name": "role",
          "type": "bytes32"
        },
        {
          "internalType": "address",
          "name": "account",
          "type": "address"
        }
      ],
      "name": "hasRole",
      "outputs": [
        {
          "internalType": "bool",
          "name": "",
          "type": "bool"
        }
      ],
      "stateMutability": "view",
      "type": "function"
    },
    {
      "inputs": [
        {
          "internalType": "address",
          "name": "owner",
          "type": "address"
        },
        {
          "internalType": "address",
          "name": "operator",
          "type": "address"
        }
      ],
      "name": "isApprovedForAll",
      "outputs": [
        {
          "internalType": "bool",
          "name": "",
          "type": "bool"
        }
      ],
      "stateMutability": "view",
      "type": "function"
    },
    {
      "inputs": [
        {
          "internalType": "address",
          "name": "minter",
          "type": "address"
        },
        {
          "internalType": "string",
          "name": "image",
          "type": "string"
        }
      ],
      "name": "mint",
      "outputs": [],
      "stateMutability": "nonpayable",
      "type": "function"
    },
    {
      "inputs": [],
      "name": "name",
      "outputs": [
        {
          "internalType": "string",
          "name": "",
          "type": "string"
        }
      ],
      "stateMutability": "view",
      "type": "function"
    },
    {
      "inputs": [
        {
          "internalType": "uint256",
          "name": "tokenId",
          "type": "uint256"
        }
      ],
      "name": "ownerOf",
      "outputs": [
        {
          "internalType": "address",
          "name": "",
          "type": "address"
        }
      ],
      "stateMutability": "view",
      "type": "function"
    },
    {
      "inputs": [
        {
          "internalType": "bytes32",
          "name": "role",
          "type": "bytes32"
        },
        {
          "internalType": "address",
          "name": "account",
          "type": "address"
        }
      ],
      "name": "renounceRole",
      "outputs": [],
      "stateMutability": "nonpayable",
      "type": "function"
    },
    {
      "inputs": [
        {
          "internalType": "bytes32",
          "name": "role",
          "type": "bytes32"
        },
        {
          "internalType": "address",
          "name": "account",
          "type": "address"
        }
      ],
      "name": "revokeRole",
      "outputs": [],
      "stateMutability": "nonpayable",
      "type": "function"
    },
    {
      "inputs": [
        {
          "internalType": "address",
          "name": "from",
          "type": "address"
        },
        {
          "internalType": "address",
          "name": "to",
          "type": "address"
        },
        {
          "internalType": "uint256",
          "name": "tokenId",
          "type": "uint256"
        }
      ],
      "name": "safeTransferFrom",
      "outputs": [],
      "stateMutability": "nonpayable",
      "type": "function"
    },
    {
      "inputs": [
        {
          "internalType": "address",
          "name": "from",
          "type": "address"
        },
        {
          "internalType": "address",
          "name": "to",
          "type": "address"
        },
        {
          "internalType": "uint256",
          "name": "tokenId",
          "type": "uint256"
        },
        {
          "internalType": "bytes",
          "name": "_data",
          "type": "bytes"
        }
      ],
      "name": "safeTransferFrom",
      "outputs": [],
      "stateMutability": "nonpayable",
      "type": "function"
    },
    {
      "inputs": [
        {
          "internalType": "address",
          "name": "operator",
          "type": "address"
        },
        {
          "internalType": "bool",
          "name": "approved",
          "type": "bool"
        }
      ],
      "name": "setApprovalForAll",
      "outputs": [],
      "stateMutability": "nonpayable",
      "type": "function"
    },
    {
      "inputs": [
        {
          "internalType": "string",
          "name": "baseURL",
          "type": "string"
        }
      ],
      "name": "setImageBaseURL",
      "outputs": [],
      "stateMutability": "nonpayable",
      "type": "function"
    },
    {
      "inputs": [
        {
          "internalType": "bytes4",
          "name": "interfaceId",
          "type": "bytes4"
        }
      ],
      "name": "supportsInterface",
      "outputs": [
        {
          "internalType": "bool",
          "name": "",
          "type": "bool"
        }
      ],
      "stateMutability": "view",
      "type": "function"
    },
    {
      "inputs": [],
      "name": "symbol",
      "outputs": [
        {
          "internalType": "string",
          "name": "",
          "type": "string"
        }
      ],
      "stateMutability": "view",
      "type": "function"
    },
    {
      "inputs": [
        {
          "internalType": "uint256",
          "name": "index",
          "type": "uint256"
        }
      ],
      "name": "tokenByIndex",
      "outputs": [
        {
          "internalType": "uint256",
          "name": "",
          "type": "uint256"
        }
      ],
      "stateMutability": "view",
      "type": "function"
    },
    {
      "inputs": [
        {
          "internalType": "address",
          "name": "owner",
          "type": "address"
        },
        {
          "internalType": "uint256",
          "name": "index",
          "type": "uint256"
        }
      ],
      "name": "tokenOfOwnerByIndex",
      "outputs": [
        {
          "internalType": "uint256",
          "name": "",
          "type": "uint256"
        }
      ],
      "stateMutability": "view",
      "type": "function"
    },
    {
      "inputs": [
        {
          "internalType": "uint256",
          "name": "tokenId",
          "type": "uint256"
        }
      ],
      "name": "tokenURI",
      "outputs": [
        {
          "internalType": "string",
          "name": "",
          "type": "string"
        }
      ],
      "stateMutability": "view",
      "type": "function"
    },
    {
      "inputs": [],
      "name": "totalSupply",
      "outputs": [
        {
          "internalType": "uint256",
          "name": "",
          "type": "uint256"
        }
      ],
      "stateMutability": "view",
      "type": "function"
    },
    {
      "inputs": [
        {
          "internalType": "address",
          "name": "from",
          "type": "address"
        },
        {
          "internalType": "address",
          "name": "to",
          "type": "address"
        },
        {
          "internalType": "uint256",
          "name": "tokenId",
          "type": "uint256"
        }
      ],
      "name": "transferFrom",
      "outputs": [],
      "stateMutability": "nonpayable",
      "type": "function"
    }
  ],
  "transactionHash": "0xe6b82bb0effdb8f18cb04919df96c001e5a90ee27709ccfafe7639a14192d6c2",
  "args": [],
  "numDeployments": 1,
  "solcInputHash": "791b9e0b638edfcc60529310ec8144aa",
  "bytecode": "0x60806040523480156200001157600080fd5b50604080518082018252600381526213911360ea1b60208083019182528351808501909452601384527f4e6964686944414f204c6567616379204e46540000000000000000000000000090840152815191929162000072916000916200018c565b508051620000889060019060208401906200018c565b506200009a91506000905033620000e7565b60408051808201909152601c8082527f68747470733a2f2f696e667572612d697066732e696f2f697066732f000000006020909201918252620000e091600c916200018c565b506200026f565b6000828152600a602090815260408083206001600160a01b038516845290915290205460ff1662000188576000828152600a602090815260408083206001600160a01b03851684529091529020805460ff19166001179055620001473390565b6001600160a01b0316816001600160a01b0316837f2f8788117e7eff1d82e926ec794901d17c78024a50270940304540a733656f0d60405160405180910390a45b5050565b8280546200019a9062000232565b90600052602060002090601f016020900481019282620001be576000855562000209565b82601f10620001d957805160ff191683800117855562000209565b8280016001018555821562000209579182015b8281111562000209578251825591602001919060010190620001ec565b50620002179291506200021b565b5090565b5b808211156200021757600081556001016200021c565b600181811c908216806200024757607f821691505b602082108114156200026957634e487b7160e01b600052602260045260246000fd5b50919050565b6125e5806200027f6000396000f3fe608060405234801561001057600080fd5b50600436106101a35760003560e01c80634f6ccce7116100ee578063a22cb46511610097578063d0def52111610071578063d0def52114610387578063d53913931461039a578063d547741f146103c1578063e985e9c5146103d457600080fd5b8063a22cb4651461034e578063b88d4fde14610361578063c87b56dd1461037457600080fd5b806391d14854116100c857806391d148541461030557806395d89b411461033e578063a217fddf1461034657600080fd5b80634f6ccce7146102cc5780636352211e146102df57806370a08231146102f257600080fd5b806323b872dd116101505780632f745c591161012a5780632f745c591461029357806336568abe146102a657806342842e0e146102b957600080fd5b806323b872dd1461024a578063248a9ca31461025d5780632f2ff15d1461028057600080fd5b8063095ea7b311610181578063095ea7b3146102105780630c8f55041461022557806318160ddd1461023857600080fd5b806301ffc9a7146101a857806306fdde03146101d0578063081812fc146101e5575b600080fd5b6101bb6101b6366004612112565b610410565b60405190151581526020015b60405180910390f35b6101d8610430565b6040516101c79190612410565b6101f86101f33660046120d8565b6104c2565b6040516001600160a01b0390911681526020016101c7565b61022361021e3660046120af565b61055c565b005b61022361023336600461214a565b61068e565b6008545b6040519081526020016101c7565b610223610258366004611f75565b6106ad565b61023c61026b3660046120d8565b6000908152600a602052604090206001015490565b61022361028e3660046120f0565b610734565b61023c6102a13660046120af565b61075a565b6102236102b43660046120f0565b610802565b6102236102c7366004611f75565b61088e565b61023c6102da3660046120d8565b6108a9565b6101f86102ed3660046120d8565b61095b565b61023c610300366004611f29565b6109e6565b6101bb6103133660046120f0565b6000918252600a602090815260408084206001600160a01b0393909316845291905290205460ff1690565b6101d8610a80565b61023c600081565b61022361035c366004612029565b610a8f565b61022361036f366004611fb0565b610a9a565b6101d86103823660046120d8565b610b28565b610223610395366004612063565b610c11565b61023c7ff0887ba65ee2024ea881d91b74c2450ef19e1557f03bed3ea9f16b037cbe2dc981565b6102236103cf3660046120f0565b610cc3565b6101bb6103e2366004611f43565b6001600160a01b03918216600090815260056020908152604080832093909416825291909152205460ff1690565b600061041b82610ce9565b8061042a575061042a82610d27565b92915050565b60606000805461043f906124d4565b80601f016020809104026020016040519081016040528092919081815260200182805461046b906124d4565b80156104b85780601f1061048d576101008083540402835291602001916104b8565b820191906000526020600020905b81548152906001019060200180831161049b57829003601f168201915b5050505050905090565b6000818152600260205260408120546001600160a01b03166105405760405162461bcd60e51b815260206004820152602c60248201527f4552433732313a20617070726f76656420717565727920666f72206e6f6e657860448201526b34b9ba32b73a103a37b5b2b760a11b60648201526084015b60405180910390fd5b506000908152600460205260409020546001600160a01b031690565b60006105678261095b565b9050806001600160a01b0316836001600160a01b031614156105f15760405162461bcd60e51b815260206004820152602160248201527f4552433732313a20617070726f76616c20746f2063757272656e74206f776e6560448201527f72000000000000000000000000000000000000000000000000000000000000006064820152608401610537565b336001600160a01b038216148061060d575061060d81336103e2565b61067f5760405162461bcd60e51b815260206004820152603860248201527f4552433732313a20617070726f76652063616c6c6572206973206e6f74206f7760448201527f6e6572206e6f7220617070726f76656420666f7220616c6c00000000000000006064820152608401610537565b6106898383610d65565b505050565b600061069a8133610de0565b815161068990600c906020850190611ddf565b6106b73382610e60565b6107295760405162461bcd60e51b815260206004820152603160248201527f4552433732313a207472616e736665722063616c6c6572206973206e6f74206f60448201527f776e6572206e6f7220617070726f7665640000000000000000000000000000006064820152608401610537565b610689838383610f57565b6000828152600a60205260409020600101546107508133610de0565b610689838361113c565b6000610765836109e6565b82106107d95760405162461bcd60e51b815260206004820152602b60248201527f455243373231456e756d657261626c653a206f776e657220696e646578206f7560448201527f74206f6620626f756e64730000000000000000000000000000000000000000006064820152608401610537565b506001600160a01b03919091166000908152600660209081526040808320938352929052205490565b6001600160a01b03811633146108805760405162461bcd60e51b815260206004820152602f60248201527f416363657373436f6e74726f6c3a2063616e206f6e6c792072656e6f756e636560448201527f20726f6c657320666f722073656c6600000000000000000000000000000000006064820152608401610537565b61088a82826111de565b5050565b61068983838360405180602001604052806000815250610a9a565b60006108b460085490565b82106109285760405162461bcd60e51b815260206004820152602c60248201527f455243373231456e756d657261626c653a20676c6f62616c20696e646578206f60448201527f7574206f6620626f756e647300000000000000000000000000000000000000006064820152608401610537565b6008828154811061094957634e487b7160e01b600052603260045260246000fd5b90600052602060002001549050919050565b6000818152600260205260408120546001600160a01b03168061042a5760405162461bcd60e51b815260206004820152602960248201527f4552433732313a206f776e657220717565727920666f72206e6f6e657869737460448201527f656e7420746f6b656e00000000000000000000000000000000000000000000006064820152608401610537565b60006001600160a01b038216610a645760405162461bcd60e51b815260206004820152602a60248201527f4552433732313a2062616c616e636520717565727920666f7220746865207a6560448201527f726f2061646472657373000000000000000000000000000000000000000000006064820152608401610537565b506001600160a01b031660009081526003602052604090205490565b60606001805461043f906124d4565b61088a338383611261565b610aa43383610e60565b610b165760405162461bcd60e51b815260206004820152603160248201527f4552433732313a207472616e736665722063616c6c6572206973206e6f74206f60448201527f776e6572206e6f7220617070726f7665640000000000000000000000000000006064820152608401610537565b610b2284848484611330565b50505050565b6000818152600d6020526040812080546060929190610b46906124d4565b905011610b955760405162461bcd60e51b815260206004820152601f60248201527f55524920717565727920666f72206e6f6e6578697374656e7420746f6b656e006044820152606401610537565b6000828152600d60209081526040918290209151610beb92610bba92600c9201612241565b60408051601f1981840301815290829052610bd79160200161231c565b6040516020818303038152906040526113ae565b604051602001610bfb9190612256565b6040516020818303038152906040529050919050565b7ff0887ba65ee2024ea881d91b74c2450ef19e1557f03bed3ea9f16b037cbe2dc9610c3c8133610de0565b610c5983600b60008154610c4f9061250f565b9182905550611559565b600b546000908152600d602090815260409091208351610c7b92850190611ddf565b50600b547fadef11a3979b8ceb0573eb6ef0678134a09c23a0d94e5ea47cd18ac3a9fc0194610ca982610b28565b604051610cb69190612410565b60405180910390a2505050565b6000828152600a6020526040902060010154610cdf8133610de0565b61068983836111de565b60006001600160e01b031982167f780e9d6300000000000000000000000000000000000000000000000000000000148061042a575061042a82611573565b60006001600160e01b031982167f7965db0b00000000000000000000000000000000000000000000000000000000148061042a575061042a82610ce9565b6000818152600460205260409020805473ffffffffffffffffffffffffffffffffffffffff19166001600160a01b0384169081179091558190610da78261095b565b6001600160a01b03167f8c5be1e5ebec7d5bd14f71427d1e84f3dd0314c0f7b2291e5b200ac8c7c3b92560405160405180910390a45050565b6000828152600a602090815260408083206001600160a01b038516845290915290205460ff1661088a57610e1e816001600160a01b0316601461160e565b610e2983602061160e565b604051602001610e3a92919061229b565b60408051601f198184030181529082905262461bcd60e51b825261053791600401612410565b6000818152600260205260408120546001600160a01b0316610ed95760405162461bcd60e51b815260206004820152602c60248201527f4552433732313a206f70657261746f7220717565727920666f72206e6f6e657860448201526b34b9ba32b73a103a37b5b2b760a11b6064820152608401610537565b6000610ee48361095b565b9050806001600160a01b0316846001600160a01b03161480610f1f5750836001600160a01b0316610f14846104c2565b6001600160a01b0316145b80610f4f57506001600160a01b0380821660009081526005602090815260408083209388168352929052205460ff165b949350505050565b826001600160a01b0316610f6a8261095b565b6001600160a01b031614610fe65760405162461bcd60e51b815260206004820152602960248201527f4552433732313a207472616e73666572206f6620746f6b656e2074686174206960448201527f73206e6f74206f776e00000000000000000000000000000000000000000000006064820152608401610537565b6001600160a01b0382166110615760405162461bcd60e51b8152602060048201526024808201527f4552433732313a207472616e7366657220746f20746865207a65726f2061646460448201527f72657373000000000000000000000000000000000000000000000000000000006064820152608401610537565b61106c83838361183c565b611077600082610d65565b6001600160a01b03831660009081526003602052604081208054600192906110a090849061247a565b90915550506001600160a01b03821660009081526003602052604081208054600192906110ce908490612423565b9091555050600081815260026020526040808220805473ffffffffffffffffffffffffffffffffffffffff19166001600160a01b0386811691821790925591518493918716917fddf252ad1be2c89b69c2b068fc378daa952ba7f163c4a11628f55a4df523b3ef91a4505050565b6000828152600a602090815260408083206001600160a01b038516845290915290205460ff1661088a576000828152600a602090815260408083206001600160a01b03851684529091529020805460ff1916600117905561119a3390565b6001600160a01b0316816001600160a01b0316837f2f8788117e7eff1d82e926ec794901d17c78024a50270940304540a733656f0d60405160405180910390a45050565b6000828152600a602090815260408083206001600160a01b038516845290915290205460ff161561088a576000828152600a602090815260408083206001600160a01b0385168085529252808320805460ff1916905551339285917ff6391f5c32d9c69d2a47ea670b442974b53935d1edc7fd64eb21e047a839171b9190a45050565b816001600160a01b0316836001600160a01b031614156112c35760405162461bcd60e51b815260206004820152601960248201527f4552433732313a20617070726f766520746f2063616c6c6572000000000000006044820152606401610537565b6001600160a01b03838116600081815260056020908152604080832094871680845294825291829020805460ff191686151590811790915591519182527f17307eab39ab6107e8899845ad3d59bd9653f200f220920489ca2b5937696c31910160405180910390a3505050565b61133b848484610f57565b611347848484846118f4565b610b225760405162461bcd60e51b815260206004820152603260248201527f4552433732313a207472616e7366657220746f206e6f6e20455243373231526560448201527131b2b4bb32b91034b6b83632b6b2b73a32b960711b6064820152608401610537565b8051606090806113ce575050604080516020810190915260008152919050565b600060036113dd836002612423565b6113e7919061243b565b6113f290600461245b565b90506000611401826020612423565b67ffffffffffffffff81111561142757634e487b7160e01b600052604160045260246000fd5b6040519080825280601f01601f191660200182016040528015611451576020820181803683370190505b5090506000604051806060016040528060408152602001612570604091399050600181016020830160005b868110156114dd576003818a01810151603f601282901c8116860151600c83901c8216870151600684901c831688015192909316870151600891821b60ff94851601821b92841692909201901b91160160e01b83526004909201910161147c565b5060038606600181146114f757600281146115235761154b565b7f3d3d00000000000000000000000000000000000000000000000000000000000060011983015261154b565b7f3d000000000000000000000000000000000000000000000000000000000000006000198301525b505050918152949350505050565b61088a828260405180602001604052806000815250611a4c565b60006001600160e01b031982167f80ac58cd0000000000000000000000000000000000000000000000000000000014806115d657506001600160e01b031982167f5b5e139f00000000000000000000000000000000000000000000000000000000145b8061042a57507f01ffc9a7000000000000000000000000000000000000000000000000000000006001600160e01b031983161461042a565b6060600061161d83600261245b565b611628906002612423565b67ffffffffffffffff81111561164e57634e487b7160e01b600052604160045260246000fd5b6040519080825280601f01601f191660200182016040528015611678576020820181803683370190505b5090507f3000000000000000000000000000000000000000000000000000000000000000816000815181106116bd57634e487b7160e01b600052603260045260246000fd5b60200101906001600160f81b031916908160001a9053507f78000000000000000000000000000000000000000000000000000000000000008160018151811061171657634e487b7160e01b600052603260045260246000fd5b60200101906001600160f81b031916908160001a905350600061173a84600261245b565b611745906001612423565b90505b60018111156117e6577f303132333435363738396162636465660000000000000000000000000000000085600f166010811061179457634e487b7160e01b600052603260045260246000fd5b1a60f81b8282815181106117b857634e487b7160e01b600052603260045260246000fd5b60200101906001600160f81b031916908160001a90535060049490941c936117df816124bd565b9050611748565b5083156118355760405162461bcd60e51b815260206004820181905260248201527f537472696e67733a20686578206c656e67746820696e73756666696369656e746044820152606401610537565b9392505050565b6001600160a01b0383166118975761189281600880546000838152600960205260408120829055600182018355919091527ff3f7a9fe364faab93b216da50a3214154f22a0a2b415b23a84c8169e8b636ee30155565b6118ba565b816001600160a01b0316836001600160a01b0316146118ba576118ba8382611aca565b6001600160a01b0382166118d15761068981611b67565b826001600160a01b0316826001600160a01b031614610689576106898282611c40565b60006001600160a01b0384163b15611a4157604051630a85bd0160e11b81526001600160a01b0385169063150b7a02906119389033908990889088906004016123d4565b602060405180830381600087803b15801561195257600080fd5b505af1925050508015611982575060408051601f3d908101601f1916820190925261197f9181019061212e565b60015b611a27573d8080156119b0576040519150601f19603f3d011682016040523d82523d6000602084013e6119b5565b606091505b508051611a1f5760405162461bcd60e51b815260206004820152603260248201527f4552433732313a207472616e7366657220746f206e6f6e20455243373231526560448201527131b2b4bb32b91034b6b83632b6b2b73a32b960711b6064820152608401610537565b805181602001fd5b6001600160e01b031916630a85bd0160e11b149050610f4f565b506001949350505050565b611a568383611c84565b611a6360008484846118f4565b6106895760405162461bcd60e51b815260206004820152603260248201527f4552433732313a207472616e7366657220746f206e6f6e20455243373231526560448201527131b2b4bb32b91034b6b83632b6b2b73a32b960711b6064820152608401610537565b60006001611ad7846109e6565b611ae1919061247a565b600083815260076020526040902054909150808214611b34576001600160a01b03841660009081526006602090815260408083208584528252808320548484528184208190558352600790915290208190555b5060009182526007602090815260408084208490556001600160a01b039094168352600681528383209183525290812055565b600854600090611b799060019061247a565b60008381526009602052604081205460088054939450909284908110611baf57634e487b7160e01b600052603260045260246000fd5b906000526020600020015490508060088381548110611bde57634e487b7160e01b600052603260045260246000fd5b6000918252602080832090910192909255828152600990915260408082208490558582528120556008805480611c2457634e487b7160e01b600052603160045260246000fd5b6001900381819060005260206000200160009055905550505050565b6000611c4b836109e6565b6001600160a01b039093166000908152600660209081526040808320868452825280832085905593825260079052919091209190915550565b6001600160a01b038216611cda5760405162461bcd60e51b815260206004820181905260248201527f4552433732313a206d696e7420746f20746865207a65726f20616464726573736044820152606401610537565b6000818152600260205260409020546001600160a01b031615611d3f5760405162461bcd60e51b815260206004820152601c60248201527f4552433732313a20746f6b656e20616c7265616479206d696e746564000000006044820152606401610537565b611d4b6000838361183c565b6001600160a01b0382166000908152600360205260408120805460019290611d74908490612423565b9091555050600081815260026020526040808220805473ffffffffffffffffffffffffffffffffffffffff19166001600160a01b03861690811790915590518392907fddf252ad1be2c89b69c2b068fc378daa952ba7f163c4a11628f55a4df523b3ef908290a45050565b828054611deb906124d4565b90600052602060002090601f016020900481019282611e0d5760008555611e53565b82601f10611e2657805160ff1916838001178555611e53565b82800160010185558215611e53579182015b82811115611e53578251825591602001919060010190611e38565b50611e5f929150611e63565b5090565b5b80821115611e5f5760008155600101611e64565b600067ffffffffffffffff80841115611e9357611e93612540565b604051601f8501601f19908116603f01168101908282118183101715611ebb57611ebb612540565b81604052809350858152868686011115611ed457600080fd5b858560208301376000602087830101525050509392505050565b80356001600160a01b0381168114611f0557600080fd5b919050565b600082601f830112611f1a578081fd5b61183583833560208501611e78565b600060208284031215611f3a578081fd5b61183582611eee565b60008060408385031215611f55578081fd5b611f5e83611eee565b9150611f6c60208401611eee565b90509250929050565b600080600060608486031215611f89578081fd5b611f9284611eee565b9250611fa060208501611eee565b9150604084013590509250925092565b60008060008060808587031215611fc5578081fd5b611fce85611eee565b9350611fdc60208601611eee565b925060408501359150606085013567ffffffffffffffff811115611ffe578182fd5b8501601f8101871361200e578182fd5b61201d87823560208401611e78565b91505092959194509250565b6000806040838503121561203b578182fd5b61204483611eee565b915060208301358015158114612058578182fd5b809150509250929050565b60008060408385031215612075578182fd5b61207e83611eee565b9150602083013567ffffffffffffffff811115612099578182fd5b6120a585828601611f0a565b9150509250929050565b600080604083850312156120c1578182fd5b6120ca83611eee565b946020939093013593505050565b6000602082840312156120e9578081fd5b5035919050565b60008060408385031215612102578182fd5b82359150611f6c60208401611eee565b600060208284031215612123578081fd5b813561183581612556565b60006020828403121561213f578081fd5b815161183581612556565b60006020828403121561215b578081fd5b813567ffffffffffffffff811115612171578182fd5b610f4f84828501611f0a565b60008151808452612195816020860160208601612491565b601f01601f19169290920160200192915050565b8054600090600181811c90808316806121c357607f831692505b60208084108214156121e357634e487b7160e01b86526022600452602486fd5b8180156121f7576001811461220857612235565b60ff19861689528489019650612235565b60008881526020902060005b8681101561222d5781548b820152908501908301612214565b505084890196505b50505050505092915050565b6000610f4f61225083866121a9565b846121a9565b7f646174613a6170706c69636174696f6e2f6a736f6e3b6261736536342c00000081526000825161228e81601d850160208701612491565b91909101601d0192915050565b7f416363657373436f6e74726f6c3a206163636f756e74200000000000000000008152600083516122d3816017850160208801612491565b7f206973206d697373696e6720726f6c65200000000000000000000000000000006017918401918201528351612310816028840160208801612491565b01602801949350505050565b7f7b226e616d65223a224e6964686944414f204c6567616379204e4654222c226481527f65736372697074696f6e223a22222c2261747472696275746573223a22222c2260208201527f696d616765223a220000000000000000000000000000000000000000000000006040820152600082516123a0816048850160208701612491565b7f227d0000000000000000000000000000000000000000000000000000000000006048939091019283015250604a01919050565b60006001600160a01b03808716835280861660208401525083604083015260806060830152612406608083018461217d565b9695505050505050565b602081526000611835602083018461217d565b600082198211156124365761243661252a565b500190565b60008261245657634e487b7160e01b81526012600452602481fd5b500490565b60008160001904831182151516156124755761247561252a565b500290565b60008282101561248c5761248c61252a565b500390565b60005b838110156124ac578181015183820152602001612494565b83811115610b225750506000910152565b6000816124cc576124cc61252a565b506000190190565b600181811c908216806124e857607f821691505b6020821081141561250957634e487b7160e01b600052602260045260246000fd5b50919050565b60006000198214156125235761252361252a565b5060010190565b634e487b7160e01b600052601160045260246000fd5b634e487b7160e01b600052604160045260246000fd5b6001600160e01b03198116811461256c57600080fd5b5056fe4142434445464748494a4b4c4d4e4f505152535455565758595a6162636465666768696a6b6c6d6e6f707172737475767778797a303132333435363738392b2fa2646970667358221220cdc3fac64288e1a63410879ea405c9542f4ba8401424495685cb0a9943c9a02564736f6c63430008040033",
  "devdoc": {
    "kind": "dev",
    "methods": {
      "approve(address,uint256)": {
        "details": "See {IERC721-approve}."
      },
      "balanceOf(address)": {
        "details": "See {IERC721-balanceOf}."
      },
      "getApproved(uint256)": {
        "details": "See {IERC721-getApproved}."
      },
      "getRoleAdmin(bytes32)": {
        "details": "Returns the admin role that controls `role`. See {grantRole} and {revokeRole}. To change a role's admin, use {_setRoleAdmin}."
      },
      "grantRole(bytes32,address)": {
        "details": "Grants `role` to `account`. If `account` had not been already granted `role`, emits a {RoleGranted} event. Requirements: - the caller must have ``role``'s admin role."
      },
      "hasRole(bytes32,address)": {
        "details": "Returns `true` if `account` has been granted `role`."
      },
      "isApprovedForAll(address,address)": {
        "details": "See {IERC721-isApprovedForAll}."
      },
      "name()": {
        "details": "See {IERC721Metadata-name}."
      },
      "ownerOf(uint256)": {
        "details": "See {IERC721-ownerOf}."
      },
      "renounceRole(bytes32,address)": {
        "details": "Revokes `role` from the calling account. Roles are often managed via {grantRole} and {revokeRole}: this function's purpose is to provide a mechanism for accounts to lose their privileges if they are compromised (such as when a trusted device is misplaced). If the calling account had been revoked `role`, emits a {RoleRevoked} event. Requirements: - the caller must be `account`."
      },
      "revokeRole(bytes32,address)": {
        "details": "Revokes `role` from `account`. If `account` had been granted `role`, emits a {RoleRevoked} event. Requirements: - the caller must have ``role``'s admin role."
      },
      "safeTransferFrom(address,address,uint256)": {
        "details": "See {IERC721-safeTransferFrom}."
      },
      "safeTransferFrom(address,address,uint256,bytes)": {
        "details": "See {IERC721-safeTransferFrom}."
      },
      "setApprovalForAll(address,bool)": {
        "details": "See {IERC721-setApprovalForAll}."
      },
      "symbol()": {
        "details": "See {IERC721Metadata-symbol}."
      },
      "tokenByIndex(uint256)": {
        "details": "See {IERC721Enumerable-tokenByIndex}."
      },
      "tokenOfOwnerByIndex(address,uint256)": {
        "details": "See {IERC721Enumerable-tokenOfOwnerByIndex}."
      },
      "tokenURI(uint256)": {
        "details": "See {IERC721Metadata-tokenURI}."
      },
      "totalSupply()": {
        "details": "See {IERC721Enumerable-totalSupply}."
      },
      "transferFrom(address,address,uint256)": {
        "details": "See {IERC721-transferFrom}."
      }
    },
    "version": 1
  },
  "userdoc": {
    "kind": "user",
    "methods": {},
    "version": 1
  },
  "storageLayout": {
    "storage": [
      {
        "astId": 1487,
        "contract": "contracts/NidhiLegacyNFT.sol:NidhiLegacyNFT",
        "label": "_name",
        "offset": 0,
        "slot": "0",
        "type": "t_string_storage"
      },
      {
        "astId": 1489,
        "contract": "contracts/NidhiLegacyNFT.sol:NidhiLegacyNFT",
        "label": "_symbol",
        "offset": 0,
        "slot": "1",
        "type": "t_string_storage"
      },
      {
        "astId": 1493,
        "contract": "contracts/NidhiLegacyNFT.sol:NidhiLegacyNFT",
        "label": "_owners",
        "offset": 0,
        "slot": "2",
        "type": "t_mapping(t_uint256,t_address)"
      },
      {
        "astId": 1497,
        "contract": "contracts/NidhiLegacyNFT.sol:NidhiLegacyNFT",
        "label": "_balances",
        "offset": 0,
        "slot": "3",
        "type": "t_mapping(t_address,t_uint256)"
      },
      {
        "astId": 1501,
        "contract": "contracts/NidhiLegacyNFT.sol:NidhiLegacyNFT",
        "label": "_tokenApprovals",
        "offset": 0,
        "slot": "4",
        "type": "t_mapping(t_uint256,t_address)"
      },
      {
        "astId": 1507,
        "contract": "contracts/NidhiLegacyNFT.sol:NidhiLegacyNFT",
        "label": "_operatorApprovals",
        "offset": 0,
        "slot": "5",
        "type": "t_mapping(t_address,t_mapping(t_address,t_bool))"
      },
      {
        "astId": 2441,
        "contract": "contracts/NidhiLegacyNFT.sol:NidhiLegacyNFT",
        "label": "_ownedTokens",
        "offset": 0,
        "slot": "6",
        "type": "t_mapping(t_address,t_mapping(t_uint256,t_uint256))"
      },
      {
        "astId": 2445,
        "contract": "contracts/NidhiLegacyNFT.sol:NidhiLegacyNFT",
        "label": "_ownedTokensIndex",
        "offset": 0,
        "slot": "7",
        "type": "t_mapping(t_uint256,t_uint256)"
      },
      {
        "astId": 2448,
        "contract": "contracts/NidhiLegacyNFT.sol:NidhiLegacyNFT",
        "label": "_allTokens",
        "offset": 0,
        "slot": "8",
        "type": "t_array(t_uint256)dyn_storage"
      },
      {
        "astId": 2452,
        "contract": "contracts/NidhiLegacyNFT.sol:NidhiLegacyNFT",
        "label": "_allTokensIndex",
        "offset": 0,
        "slot": "9",
        "type": "t_mapping(t_uint256,t_uint256)"
      },
      {
        "astId": 24,
        "contract": "contracts/NidhiLegacyNFT.sol:NidhiLegacyNFT",
        "label": "_roles",
        "offset": 0,
        "slot": "10",
        "type": "t_mapping(t_bytes32,t_struct(RoleData)19_storage)"
      },
      {
        "astId": 4650,
        "contract": "contracts/NidhiLegacyNFT.sol:NidhiLegacyNFT",
        "label": "_tokenIds",
        "offset": 0,
        "slot": "11",
        "type": "t_uint256"
      },
      {
        "astId": 4652,
        "contract": "contracts/NidhiLegacyNFT.sol:NidhiLegacyNFT",
        "label": "_imageBaseURL",
        "offset": 0,
        "slot": "12",
        "type": "t_string_storage"
      },
      {
        "astId": 4656,
        "contract": "contracts/NidhiLegacyNFT.sol:NidhiLegacyNFT",
        "label": "_images",
        "offset": 0,
        "slot": "13",
        "type": "t_mapping(t_uint256,t_string_storage)"
      }
    ],
    "types": {
      "t_address": {
        "encoding": "inplace",
        "label": "address",
        "numberOfBytes": "20"
      },
      "t_array(t_uint256)dyn_storage": {
        "base": "t_uint256",
        "encoding": "dynamic_array",
        "label": "uint256[]",
        "numberOfBytes": "32"
      },
      "t_bool": {
        "encoding": "inplace",
        "label": "bool",
        "numberOfBytes": "1"
      },
      "t_bytes32": {
        "encoding": "inplace",
        "label": "bytes32",
        "numberOfBytes": "32"
      },
      "t_mapping(t_address,t_bool)": {
        "encoding": "mapping",
        "key": "t_address",
        "label": "mapping(address => bool)",
        "numberOfBytes": "32",
        "value": "t_bool"
      },
      "t_mapping(t_address,t_mapping(t_address,t_bool))": {
        "encoding": "mapping",
        "key": "t_address",
        "label": "mapping(address => mapping(address => bool))",
        "numberOfBytes": "32",
        "value": "t_mapping(t_address,t_bool)"
      },
      "t_mapping(t_address,t_mapping(t_uint256,t_uint256))": {
        "encoding": "mapping",
        "key": "t_address",
        "label": "mapping(address => mapping(uint256 => uint256))",
        "numberOfBytes": "32",
        "value": "t_mapping(t_uint256,t_uint256)"
      },
      "t_mapping(t_address,t_uint256)": {
        "encoding": "mapping",
        "key": "t_address",
        "label": "mapping(address => uint256)",
        "numberOfBytes": "32",
        "value": "t_uint256"
      },
      "t_mapping(t_bytes32,t_struct(RoleData)19_storage)": {
        "encoding": "mapping",
        "key": "t_bytes32",
        "label": "mapping(bytes32 => struct AccessControl.RoleData)",
        "numberOfBytes": "32",
        "value": "t_struct(RoleData)19_storage"
      },
      "t_mapping(t_uint256,t_address)": {
        "encoding": "mapping",
        "key": "t_uint256",
        "label": "mapping(uint256 => address)",
        "numberOfBytes": "32",
        "value": "t_address"
      },
      "t_mapping(t_uint256,t_string_storage)": {
        "encoding": "mapping",
        "key": "t_uint256",
        "label": "mapping(uint256 => string)",
        "numberOfBytes": "32",
        "value": "t_string_storage"
      },
      "t_mapping(t_uint256,t_uint256)": {
        "encoding": "mapping",
        "key": "t_uint256",
        "label": "mapping(uint256 => uint256)",
        "numberOfBytes": "32",
        "value": "t_uint256"
      },
      "t_string_storage": {
        "encoding": "bytes",
        "label": "string",
        "numberOfBytes": "32"
      },
      "t_struct(RoleData)19_storage": {
        "encoding": "inplace",
        "label": "struct AccessControl.RoleData",
        "members": [
          {
            "astId": 16,
            "contract": "contracts/NidhiLegacyNFT.sol:NidhiLegacyNFT",
            "label": "members",
            "offset": 0,
            "slot": "0",
            "type": "t_mapping(t_address,t_bool)"
          },
          {
            "astId": 18,
            "contract": "contracts/NidhiLegacyNFT.sol:NidhiLegacyNFT",
            "label": "adminRole",
            "offset": 0,
            "slot": "1",
            "type": "t_bytes32"
          }
        ],
        "numberOfBytes": "64"
      },
      "t_uint256": {
        "encoding": "inplace",
        "label": "uint256",
        "numberOfBytes": "32"
      }
    }
  }
}