{
  "address": "0x6ceD48EfBb581A141667D7487222E42a3FA17cf7",
  "abi": [
    {
      "inputs": [
        {
          "internalType": "address",
          "name": "tokenContractAddress",
          "type": "address"
        }
      ],
      "stateMutability": "nonpayable",
      "type": "constructor"
    },
    {
      "anonymous": false,
      "inputs": [
        {
          "indexed": true,
          "internalType": "bytes32",
          "name": "role",
          "type": "bytes32"
        },
        {
          "indexed": true,
          "internalType": "bytes32",
          "name": "previousAdminRole",
          "type": "bytes32"
        },
        {
          "indexed": true,
          "internalType": "bytes32",
          "name": "newAdminRole",
          "type": "bytes32"
        }
      ],
      "name": "RoleAdminChanged",
      "type": "event"
    },
    {
      "anonymous": false,
      "inputs": [
        {
          "indexed": true,
          "internalType": "bytes32",
          "name": "role",
          "type": "bytes32"
        },
        {
          "indexed": true,
          "internalType": "address",
          "name": "account",
          "type": "address"
        },
        {
          "indexed": true,
          "internalType": "address",
          "name": "sender",
          "type": "address"
        }
      ],
      "name": "RoleGranted",
      "type": "event"
    },
    {
      "anonymous": false,
      "inputs": [
        {
          "indexed": true,
          "internalType": "bytes32",
          "name": "role",
          "type": "bytes32"
        },
        {
          "indexed": true,
          "internalType": "address",
          "name": "account",
          "type": "address"
        },
        {
          "indexed": true,
          "internalType": "address",
          "name": "sender",
          "type": "address"
        }
      ],
      "name": "RoleRevoked",
      "type": "event"
    },
    {
      "inputs": [],
      "name": "DEFAULT_ADMIN_ROLE",
      "outputs": [
        {
          "internalType": "bytes32",
          "name": "",
          "type": "bytes32"
        }
      ],
      "stateMutability": "view",
      "type": "function"
    },
    {
      "inputs": [],
      "name": "DISTRIBUTOR_ROLE",
      "outputs": [
        {
          "internalType": "bytes32",
          "name": "",
          "type": "bytes32"
        }
      ],
      "stateMutability": "view",
      "type": "function"
    },
    {
      "inputs": [],
      "name": "checker",
      "outputs": [
        {
          "internalType": "bool",
          "name": "canExec",
          "type": "bool"
        },
        {
          "internalType": "bytes",
          "name": "execPayload",
          "type": "bytes"
        }
      ],
      "stateMutability": "view",
      "type": "function"
    },
    {
      "inputs": [],
      "name": "distribute",
      "outputs": [],
      "stateMutability": "nonpayable",
      "type": "function"
    },
    {
      "inputs": [
        {
          "internalType": "bytes32",
          "name": "role",
          "type": "bytes32"
        }
      ],
      "name": "getRoleAdmin",
      "outputs": [
        {
          "internalType": "bytes32",
          "name": "",
          "type": "bytes32"
        }
      ],
      "stateMutability": "view",
      "type": "function"
    },
    {
      "inputs": [
        {
          "internalType": "bytes32",
          "name": "role",
          "type": "bytes32"
        },
        {
          "internalType": "address",
          "name": "account",
          "type": "address"
        }
      ],
      "name": "grantRole",
      "outputs": [],
      "stateMutability": "nonpayable",
      "type": "function"
    },
    {
      "inputs": [
        {
          "internalType": "bytes32",
          "name": "role",
          "type": "bytes32"
        },
        {
          "internalType": "address",
          "name": "account",
          "type": "address"
        }
      ],
      "name": "hasRole",
      "outputs": [
        {
          "internalType": "bool",
          "name": "",
          "type": "bool"
        }
      ],
      "stateMutability": "view",
      "type": "function"
    },
    {
      "inputs": [],
      "name": "nextDistribution",
      "outputs": [
        {
          "internalType": "uint256",
          "name": "",
          "type": "uint256"
        }
      ],
      "stateMutability": "view",
      "type": "function"
    },
    {
      "inputs": [
        {
          "internalType": "bytes32",
          "name": "role",
          "type": "bytes32"
        },
        {
          "internalType": "address",
          "name": "account",
          "type": "address"
        }
      ],
      "name": "renounceRole",
      "outputs": [],
      "stateMutability": "nonpayable",
      "type": "function"
    },
    {
      "inputs": [],
      "name": "revenueShareContract",
      "outputs": [
        {
          "internalType": "contract RevenueShare",
          "name": "",
          "type": "address"
        }
      ],
      "stateMutability": "view",
      "type": "function"
    },
    {
      "inputs": [],
      "name": "revenueToken",
      "outputs": [
        {
          "internalType": "contract IERC20",
          "name": "",
          "type": "address"
        }
      ],
      "stateMutability": "view",
      "type": "function"
    },
    {
      "inputs": [
        {
          "internalType": "bytes32",
          "name": "role",
          "type": "bytes32"
        },
        {
          "internalType": "address",
          "name": "account",
          "type": "address"
        }
      ],
      "name": "revokeRole",
      "outputs": [],
      "stateMutability": "nonpayable",
      "type": "function"
    },
    {
      "inputs": [
        {
          "internalType": "address",
          "name": "contractAddress",
          "type": "address"
        }
      ],
      "name": "setRevenueShareContract",
      "outputs": [],
      "stateMutability": "nonpayable",
      "type": "function"
    },
    {
      "inputs": [
        {
          "internalType": "address",
          "name": "ops",
          "type": "address"
        }
      ],
      "name": "start",
      "outputs": [],
      "stateMutability": "nonpayable",
      "type": "function"
    },
    {
      "inputs": [
        {
          "internalType": "address",
          "name": "ops",
          "type": "address"
        }
      ],
      "name": "stop",
      "outputs": [],
      "stateMutability": "nonpayable",
      "type": "function"
    },
    {
      "inputs": [
        {
          "internalType": "bytes4",
          "name": "interfaceId",
          "type": "bytes4"
        }
      ],
      "name": "supportsInterface",
      "outputs": [
        {
          "internalType": "bool",
          "name": "",
          "type": "bool"
        }
      ],
      "stateMutability": "view",
      "type": "function"
    },
    {
      "inputs": [],
      "name": "taskId",
      "outputs": [
        {
          "internalType": "bytes32",
          "name": "",
          "type": "bytes32"
        }
      ],
      "stateMutability": "view",
      "type": "function"
    }
  ],
  "transactionHash": "0x4c6c7294cedfdca925eb2063b436e5c3566d197decb83998cdde453dec026fa2",
  "args": [
    "0x2791Bca1f2de4661ED88A30C99A7a9449Aa84174"
  ],
  "numDeployments": 1,
  "solcInputHash": "791b9e0b638edfcc60529310ec8144aa",
  "bytecode": "0x60a06040523480156200001157600080fd5b506040516200121038038062001210833981016040819052620000349162000129565b6001600160601b0319606082901b166080526200005360003362000088565b62000062620151804262000174565b6200006f90600162000159565b6200007e906201518062000195565b60025550620001cd565b6000828152602081815260408083206001600160a01b038516845290915290205460ff1662000125576000828152602081815260408083206001600160a01b03851684529091529020805460ff19166001179055620000e43390565b6001600160a01b0316816001600160a01b0316837f2f8788117e7eff1d82e926ec794901d17c78024a50270940304540a733656f0d60405160405180910390a45b5050565b6000602082840312156200013b578081fd5b81516001600160a01b038116811462000152578182fd5b9392505050565b600082198211156200016f576200016f620001b7565b500190565b6000826200019057634e487b7160e01b81526012600452602481fd5b500490565b6000816000190483118215151615620001b257620001b2620001b7565b500290565b634e487b7160e01b600052601160045260246000fd5b60805160601c611016620001fa600039600081816101e301528181610757015261088701526110166000f3fe608060405234801561001057600080fd5b506004361061011b5760003560e01c8063656cb0bc116100b2578063cf5303cf11610081578063dd0b281e11610066578063dd0b281e146102d8578063e4fc6b6d146102eb578063f0bd87cc146102f357600080fd5b8063cf5303cf1461026a578063d547741f146102c557600080fd5b8063656cb0bc1461020557806391d1485414610218578063a217fddf1461024f578063b4a84c231461025757600080fd5b80633322b23d116100ee5780633322b23d146101b957806336568abe146101c257806338b0789d146101d5578063556e4e68146101de57600080fd5b806301ffc9a7146101205780630a68c3d314610148578063248a9ca3146101735780632f2ff15d146101a4575b600080fd5b61013361012e366004610dfb565b61031a565b60405190151581526020015b60405180910390f35b60015461015b906001600160a01b031681565b6040516001600160a01b03909116815260200161013f565b610196610181366004610da0565b60009081526020819052604090206001015490565b60405190815260200161013f565b6101b76101b2366004610dd0565b610383565b005b61019660035481565b6101b76101d0366004610dd0565b6103ae565b61019660025481565b61015b7f000000000000000000000000000000000000000000000000000000000000000081565b6101b7610213366004610d66565b61043f565b610133610226366004610dd0565b6000918252602082815260408084206001600160a01b0393909316845291905290205460ff1690565b610196600081565b6101b7610265366004610d66565b61051a565b6102b76002546040805160048152602481019091526020810180517bffffffffffffffffffffffffffffffffffffffffffffffffffffffff1663e4fc6b6d60e01b17905242919091101591565b60405161013f929190610f16565b6101b76102d3366004610dd0565b610561565b6101b76102e6366004610d66565b610587565b6101b76106a3565b6101967f85faced7bde13e1a7dad704b895f006e704f207617d68166b31ba2d79624862d81565b60006001600160e01b031982167f7965db0b00000000000000000000000000000000000000000000000000000000148061037d57507f01ffc9a7000000000000000000000000000000000000000000000000000000006001600160e01b03198316145b92915050565b60008281526020819052604090206001015461039f8133610981565b6103a983836109ff565b505050565b6001600160a01b03811633146104315760405162461bcd60e51b815260206004820152602f60248201527f416363657373436f6e74726f6c3a2063616e206f6e6c792072656e6f756e636560448201527f20726f6c657320666f722073656c66000000000000000000000000000000000060648201526084015b60405180910390fd5b61043b8282610a9d565b5050565b600061044b8133610981565b60035461049a5760405162461bcd60e51b815260206004820152601360248201527f7461736b206973206e6f742072756e6e696e67000000000000000000000000006044820152606401610428565b6003546040517fee8ca3b500000000000000000000000000000000000000000000000000000000815260048101919091526001600160a01b0383169063ee8ca3b590602401600060405180830381600087803b1580156104f957600080fd5b505af115801561050d573d6000803e3d6000fd5b5050600060035550505050565b60006105268133610981565b50600180547fffffffffffffffffffffffff0000000000000000000000000000000000000000166001600160a01b0392909216919091179055565b60008281526020819052604090206001015461057d8133610981565b6103a98383610a9d565b60006105938133610981565b600354156105a4576105a48261043f565b6040805160048082526024820183526020820180517bffffffffffffffffffffffffffffffffffffffffffffffffffffffff167fcf5303cf0000000000000000000000000000000000000000000000000000000017905291517f8b92696a0000000000000000000000000000000000000000000000000000000081526001600160a01b03851692638b92696a9261064a92309263e4fc6b6d60e01b928492909101610ed0565b602060405180830381600087803b15801561066457600080fd5b505af1158015610678573d6000803e3d6000fd5b505050506040513d601f19601f8201168201806040525081019061069c9190610db8565b6003555050565b7f85faced7bde13e1a7dad704b895f006e704f207617d68166b31ba2d79624862d6106ce8133610981565b6001546001600160a01b03166107265760405162461bcd60e51b815260206004820152601860248201527f636f6e74726163742061646472657373206e6f742073657400000000000000006044820152606401610428565b6040517f70a082310000000000000000000000000000000000000000000000000000000081523060048201526000907f00000000000000000000000000000000000000000000000000000000000000006001600160a01b0316906370a082319060240160206040518083038186803b1580156107a157600080fd5b505afa1580156107b5573d6000803e3d6000fd5b505050506040513d601f19601f820116820180604052508101906107d99190610db8565b90506000811161082b5760405162461bcd60e51b815260206004820152601260248201527f6e6f2066756e647320617661696c61626c6500000000000000000000000000006044820152606401610428565b62015180600260008282546108409190610f4c565b90915550506001546040517f095ea7b30000000000000000000000000000000000000000000000000000000081526001600160a01b039182166004820152602481018390527f00000000000000000000000000000000000000000000000000000000000000009091169063095ea7b390604401602060405180830381600087803b1580156108cd57600080fd5b505af11580156108e1573d6000803e3d6000fd5b505050506040513d601f19601f820116820180604052508101906109059190610d80565b506001546040517fb6b55f25000000000000000000000000000000000000000000000000000000008152600481018390526001600160a01b039091169063b6b55f2590602401600060405180830381600087803b15801561096557600080fd5b505af1158015610979573d6000803e3d6000fd5b505050505050565b6000828152602081815260408083206001600160a01b038516845290915290205460ff1661043b576109bd816001600160a01b03166014610b1c565b6109c8836020610b1c565b6040516020016109d9929190610e4f565b60408051601f198184030181529082905262461bcd60e51b825261042891600401610f39565b6000828152602081815260408083206001600160a01b038516845290915290205460ff1661043b576000828152602081815260408083206001600160a01b03851684529091529020805460ff19166001179055610a593390565b6001600160a01b0316816001600160a01b0316837f2f8788117e7eff1d82e926ec794901d17c78024a50270940304540a733656f0d60405160405180910390a45050565b6000828152602081815260408083206001600160a01b038516845290915290205460ff161561043b576000828152602081815260408083206001600160a01b0385168085529252808320805460ff1916905551339285917ff6391f5c32d9c69d2a47ea670b442974b53935d1edc7fd64eb21e047a839171b9190a45050565b60606000610b2b836002610f64565b610b36906002610f4c565b67ffffffffffffffff811115610b5c57634e487b7160e01b600052604160045260246000fd5b6040519080825280601f01601f191660200182016040528015610b86576020820181803683370190505b5090507f300000000000000000000000000000000000000000000000000000000000000081600081518110610bcb57634e487b7160e01b600052603260045260246000fd5b60200101906001600160f81b031916908160001a9053507f780000000000000000000000000000000000000000000000000000000000000081600181518110610c2457634e487b7160e01b600052603260045260246000fd5b60200101906001600160f81b031916908160001a9053506000610c48846002610f64565b610c53906001610f4c565b90505b6001811115610cf4577f303132333435363738396162636465660000000000000000000000000000000085600f1660108110610ca257634e487b7160e01b600052603260045260246000fd5b1a60f81b828281518110610cc657634e487b7160e01b600052603260045260246000fd5b60200101906001600160f81b031916908160001a90535060049490941c93610ced81610fb3565b9050610c56565b508315610d435760405162461bcd60e51b815260206004820181905260248201527f537472696e67733a20686578206c656e67746820696e73756666696369656e746044820152606401610428565b9392505050565b80356001600160a01b0381168114610d6157600080fd5b919050565b600060208284031215610d77578081fd5b610d4382610d4a565b600060208284031215610d91578081fd5b81518015158114610d43578182fd5b600060208284031215610db1578081fd5b5035919050565b600060208284031215610dc9578081fd5b5051919050565b60008060408385031215610de2578081fd5b82359150610df260208401610d4a565b90509250929050565b600060208284031215610e0c578081fd5b81356001600160e01b031981168114610d43578182fd5b60008151808452610e3b816020860160208601610f83565b601f01601f19169290920160200192915050565b7f416363657373436f6e74726f6c3a206163636f756e7420000000000000000000815260008351610e87816017850160208801610f83565b7f206973206d697373696e6720726f6c65200000000000000000000000000000006017918401918201528351610ec4816028840160208801610f83565b01602801949350505050565b60006001600160a01b0380871683526001600160e01b03198616602084015280851660408401525060806060830152610f0c6080830184610e23565b9695505050505050565b8215158152604060208201526000610f316040830184610e23565b949350505050565b602081526000610d436020830184610e23565b60008219821115610f5f57610f5f610fca565b500190565b6000816000190483118215151615610f7e57610f7e610fca565b500290565b60005b83811015610f9e578181015183820152602001610f86565b83811115610fad576000848401525b50505050565b600081610fc257610fc2610fca565b506000190190565b634e487b7160e01b600052601160045260246000fdfea26469706673582212203d169c2169c525698cec01fda2acd28f85d7374ad0d7139b9cb30657d6e4cdf564736f6c63430008040033",
  "devdoc": {
    "kind": "dev",
    "methods": {
      "getRoleAdmin(bytes32)": {
        "details": "Returns the admin role that controls `role`. See {grantRole} and {revokeRole}. To change a role's admin, use {_setRoleAdmin}."
      },
      "grantRole(bytes32,address)": {
        "details": "Grants `role` to `account`. If `account` had not been already granted `role`, emits a {RoleGranted} event. Requirements: - the caller must have ``role``'s admin role."
      },
      "hasRole(bytes32,address)": {
        "details": "Returns `true` if `account` has been granted `role`."
      },
      "renounceRole(bytes32,address)": {
        "details": "Revokes `role` from the calling account. Roles are often managed via {grantRole} and {revokeRole}: this function's purpose is to provide a mechanism for accounts to lose their privileges if they are compromised (such as when a trusted device is misplaced). If the calling account had been revoked `role`, emits a {RoleRevoked} event. Requirements: - the caller must be `account`."
      },
      "revokeRole(bytes32,address)": {
        "details": "Revokes `role` from `account`. If `account` had been granted `role`, emits a {RoleRevoked} event. Requirements: - the caller must have ``role``'s admin role."
      },
      "supportsInterface(bytes4)": {
        "details": "See {IERC165-supportsInterface}."
      }
    },
    "version": 1
  },
  "userdoc": {
    "kind": "user",
    "methods": {},
    "version": 1
  },
  "storageLayout": {
    "storage": [
      {
        "astId": 24,
        "contract": "contracts/RevenueDistributer.sol:RevenueDistributor",
        "label": "_roles",
        "offset": 0,
        "slot": "0",
        "type": "t_mapping(t_bytes32,t_struct(RoleData)19_storage)"
      },
      {
        "astId": 6607,
        "contract": "contracts/RevenueDistributer.sol:RevenueDistributor",
        "label": "revenueShareContract",
        "offset": 0,
        "slot": "1",
        "type": "t_contract(RevenueShare)8550"
      },
      {
        "astId": 6609,
        "contract": "contracts/RevenueDistributer.sol:RevenueDistributor",
        "label": "nextDistribution",
        "offset": 0,
        "slot": "2",
        "type": "t_uint256"
      },
      {
        "astId": 6611,
        "contract": "contracts/RevenueDistributer.sol:RevenueDistributor",
        "label": "taskId",
        "offset": 0,
        "slot": "3",
        "type": "t_bytes32"
      }
    ],
    "types": {
      "t_address": {
        "encoding": "inplace",
        "label": "address",
        "numberOfBytes": "20"
      },
      "t_bool": {
        "encoding": "inplace",
        "label": "bool",
        "numberOfBytes": "1"
      },
      "t_bytes32": {
        "encoding": "inplace",
        "label": "bytes32",
        "numberOfBytes": "32"
      },
      "t_contract(RevenueShare)8550": {
        "encoding": "inplace",
        "label": "contract RevenueShare",
        "numberOfBytes": "20"
      },
      "t_mapping(t_address,t_bool)": {
        "encoding": "mapping",
        "key": "t_address",
        "label": "mapping(address => bool)",
        "numberOfBytes": "32",
        "value": "t_bool"
      },
      "t_mapping(t_bytes32,t_struct(RoleData)19_storage)": {
        "encoding": "mapping",
        "key": "t_bytes32",
        "label": "mapping(bytes32 => struct AccessControl.RoleData)",
        "numberOfBytes": "32",
        "value": "t_struct(RoleData)19_storage"
      },
      "t_struct(RoleData)19_storage": {
        "encoding": "inplace",
        "label": "struct AccessControl.RoleData",
        "members": [
          {
            "astId": 16,
            "contract": "contracts/RevenueDistributer.sol:RevenueDistributor",
            "label": "members",
            "offset": 0,
            "slot": "0",
            "type": "t_mapping(t_address,t_bool)"
          },
          {
            "astId": 18,
            "contract": "contracts/RevenueDistributer.sol:RevenueDistributor",
            "label": "adminRole",
            "offset": 0,
            "slot": "1",
            "type": "t_bytes32"
          }
        ],
        "numberOfBytes": "64"
      },
      "t_uint256": {
        "encoding": "inplace",
        "label": "uint256",
        "numberOfBytes": "32"
      }
    }
  }
}