{
  "address": "0xc21811a5907fE7cE61a11d50EBf0d1B48A3471dd",
  "abi": [
    {
      "inputs": [
        {
          "internalType": "address",
          "name": "nidhiToken",
          "type": "address"
        },
        {
          "internalType": "address",
          "name": "tangibleToken",
          "type": "address"
        }
      ],
      "stateMutability": "nonpayable",
      "type": "constructor"
    },
    {
      "anonymous": false,
      "inputs": [
        {
          "indexed": true,
          "internalType": "bytes32",
          "name": "role",
          "type": "bytes32"
        },
        {
          "indexed": true,
          "internalType": "bytes32",
          "name": "previousAdminRole",
          "type": "bytes32"
        },
        {
          "indexed": true,
          "internalType": "bytes32",
          "name": "newAdminRole",
          "type": "bytes32"
        }
      ],
      "name": "RoleAdminChanged",
      "type": "event"
    },
    {
      "anonymous": false,
      "inputs": [
        {
          "indexed": true,
          "internalType": "bytes32",
          "name": "role",
          "type": "bytes32"
        },
        {
          "indexed": true,
          "internalType": "address",
          "name": "account",
          "type": "address"
        },
        {
          "indexed": true,
          "internalType": "address",
          "name": "sender",
          "type": "address"
        }
      ],
      "name": "RoleGranted",
      "type": "event"
    },
    {
      "anonymous": false,
      "inputs": [
        {
          "indexed": true,
          "internalType": "bytes32",
          "name": "role",
          "type": "bytes32"
        },
        {
          "indexed": true,
          "internalType": "address",
          "name": "account",
          "type": "address"
        },
        {
          "indexed": true,
          "internalType": "address",
          "name": "sender",
          "type": "address"
        }
      ],
      "name": "RoleRevoked",
      "type": "event"
    },
    {
      "inputs": [],
      "name": "DEFAULT_ADMIN_ROLE",
      "outputs": [
        {
          "internalType": "bytes32",
          "name": "",
          "type": "bytes32"
        }
      ],
      "stateMutability": "view",
      "type": "function"
    },
    {
      "inputs": [],
      "name": "GURU",
      "outputs": [
        {
          "internalType": "address",
          "name": "",
          "type": "address"
        }
      ],
      "stateMutability": "view",
      "type": "function"
    },
    {
      "inputs": [],
      "name": "SWAPPER_ROLE",
      "outputs": [
        {
          "internalType": "bytes32",
          "name": "",
          "type": "bytes32"
        }
      ],
      "stateMutability": "view",
      "type": "function"
    },
    {
      "inputs": [],
      "name": "TNGBL",
      "outputs": [
        {
          "internalType": "address",
          "name": "",
          "type": "address"
        }
      ],
      "stateMutability": "view",
      "type": "function"
    },
    {
      "inputs": [
        {
          "internalType": "bytes32",
          "name": "role",
          "type": "bytes32"
        }
      ],
      "name": "getRoleAdmin",
      "outputs": [
        {
          "internalType": "bytes32",
          "name": "",
          "type": "bytes32"
        }
      ],
      "stateMutability": "view",
      "type": "function"
    },
    {
      "inputs": [
        {
          "internalType": "bytes32",
          "name": "role",
          "type": "bytes32"
        },
        {
          "internalType": "address",
          "name": "account",
          "type": "address"
        }
      ],
      "name": "grantRole",
      "outputs": [],
      "stateMutability": "nonpayable",
      "type": "function"
    },
    {
      "inputs": [
        {
          "internalType": "bytes32",
          "name": "role",
          "type": "bytes32"
        },
        {
          "internalType": "address",
          "name": "account",
          "type": "address"
        }
      ],
      "name": "hasRole",
      "outputs": [
        {
          "internalType": "bool",
          "name": "",
          "type": "bool"
        }
      ],
      "stateMutability": "view",
      "type": "function"
    },
    {
      "inputs": [],
      "name": "initialize",
      "outputs": [],
      "stateMutability": "nonpayable",
      "type": "function"
    },
    {
      "inputs": [
        {
          "internalType": "bytes32",
          "name": "role",
          "type": "bytes32"
        },
        {
          "internalType": "address",
          "name": "account",
          "type": "address"
        }
      ],
      "name": "renounceRole",
      "outputs": [],
      "stateMutability": "nonpayable",
      "type": "function"
    },
    {
      "inputs": [
        {
          "internalType": "bytes32",
          "name": "role",
          "type": "bytes32"
        },
        {
          "internalType": "address",
          "name": "account",
          "type": "address"
        }
      ],
      "name": "revokeRole",
      "outputs": [],
      "stateMutability": "nonpayable",
      "type": "function"
    },
    {
      "inputs": [
        {
          "internalType": "bytes4",
          "name": "interfaceId",
          "type": "bytes4"
        }
      ],
      "name": "supportsInterface",
      "outputs": [
        {
          "internalType": "bool",
          "name": "",
          "type": "bool"
        }
      ],
      "stateMutability": "view",
      "type": "function"
    },
    {
      "inputs": [
        {
          "internalType": "uint256",
          "name": "amount",
          "type": "uint256"
        }
      ],
      "name": "swap",
      "outputs": [
        {
          "internalType": "uint256",
          "name": "amountOut",
          "type": "uint256"
        }
      ],
      "stateMutability": "nonpayable",
      "type": "function"
    }
  ],
  "transactionHash": "0xb50b75e5a2fb723533eb1f4f62d681764414c05c861371d3d3767109b117319c",
  "args": [
    "0x057E0bd9B797f9Eeeb8307B35DbC8c12E534c41E",
    "0x49e6A20f1BBdfEeC2a8222E052000BbB14EE6007"
  ],
  "numDeployments": 3,
  "solcInputHash": "8661375b70bc070bf591d5a3098e6081",
  "bytecode": "0x60e06040523480156200001157600080fd5b506040516200160038038062001600833981016040819052620000349162000241565b6001600160601b0319606083811b821660805282901b1660a0526040805163313ce56760e01b815290516001600160a01b0384169163313ce567916004808301926020929190829003018186803b1580156200008f57600080fd5b505afa158015620000a4573d6000803e3d6000fd5b505050506040513d601f19601f82011682018060405250810190620000ca919062000278565b816001600160a01b031663313ce5676040518163ffffffff1660e01b815260040160206040518083038186803b1580156200010457600080fd5b505afa15801562000119573d6000803e3d6000fd5b505050506040513d601f19601f820116820180604052508101906200013f919062000278565b6200014b9190620003aa565b6200015890600a620002eb565b60c0526200016860003362000170565b5050620003e6565b6200017c8282620001f9565b620001f5576000828152602081815260408083206001600160a01b03851684529091529020805460ff19166001179055620001b43390565b6001600160a01b0316816001600160a01b0316837f2f8788117e7eff1d82e926ec794901d17c78024a50270940304540a733656f0d60405160405180910390a45b5050565b6000828152602081815260408083206001600160a01b038516845290915290205460ff165b92915050565b80516001600160a01b03811681146200023c57600080fd5b919050565b6000806040838503121562000254578182fd5b6200025f8362000224565b91506200026f6020840162000224565b90509250929050565b6000602082840312156200028a578081fd5b815160ff811681146200029b578182fd5b9392505050565b600181815b80851115620002e3578160001904821115620002c757620002c7620003d0565b80851615620002d557918102915b93841c9390800290620002a7565b509250929050565b60006200029b60ff84168360008262000307575060016200021e565b8162000316575060006200021e565b81600181146200032f57600281146200033a576200035a565b60019150506200021e565b60ff8411156200034e576200034e620003d0565b50506001821b6200021e565b5060208310610133831016604e8410600b84101617156200037f575081810a6200021e565b6200038b8383620002a2565b8060001904821115620003a257620003a2620003d0565b029392505050565b600060ff821660ff841680821015620003c757620003c7620003d0565b90039392505050565b634e487b7160e01b600052601160045260246000fd5b60805160601c60a05160601c60c0516111ac620004546000396000818161047901526106760152600081816101f3015281816103ec01528181610527015281816105bd015281816106b30152610822015260008181610232015281816103ca01526107b901526111ac6000f3fe608060405234801561001057600080fd5b50600436106100d45760003560e01c806394b918de11610081578063df668eca1161005b578063df668eca146101c7578063f973d68f146101ee578063ff402d231461022d57600080fd5b806394b918de14610199578063a217fddf146101ac578063d547741f146101b457600080fd5b806336568abe116100b257806336568abe146101475780638129fc1c1461015a57806391d148541461016257600080fd5b806301ffc9a7146100d9578063248a9ca3146101015780632f2ff15d14610132575b600080fd5b6100ec6100e7366004610fa3565b610254565b60405190151581526020015b60405180910390f35b61012461010f366004610f51565b60009081526020819052604090206001015490565b6040519081526020016100f8565b610145610140366004610f69565b6102ed565b005b610145610155366004610f69565b610318565b6101456103a9565b6100ec610170366004610f69565b6000918252602082815260408084206001600160a01b0393909316845291905290205460ff1690565b6101246101a7366004610f51565b610644565b610124600081565b6101456101c2366004610f69565b61084e565b6101247fd2761b102bda9831f4af400cc824b8cecb9cc5c1c85c51acb1479db9735fbfc681565b6102157f000000000000000000000000000000000000000000000000000000000000000081565b6040516001600160a01b0390911681526020016100f8565b6102157f000000000000000000000000000000000000000000000000000000000000000081565b60007fffffffff0000000000000000000000000000000000000000000000000000000082167f7965db0b0000000000000000000000000000000000000000000000000000000014806102e757507f01ffc9a7000000000000000000000000000000000000000000000000000000007fffffffff000000000000000000000000000000000000000000000000000000008316145b92915050565b6000828152602081905260409020600101546103098133610874565b61031383836108f2565b505050565b6001600160a01b038116331461039b5760405162461bcd60e51b815260206004820152602f60248201527f416363657373436f6e74726f6c3a2063616e206f6e6c792072656e6f756e636560448201527f20726f6c657320666f722073656c66000000000000000000000000000000000060648201526084015b60405180910390fd5b6103a58282610990565b5050565b60006103b58133610874565b6040516370a0823160e01b81523060048201527f0000000000000000000000000000000000000000000000000000000000000000907f0000000000000000000000000000000000000000000000000000000000000000906000906001600160a01b038316906370a082319060240160206040518083038186803b15801561043b57600080fd5b505afa15801561044f573d6000803e3d6000fd5b505050506040513d601f19601f820116820180604052508101906104739190610fe3565b905060007f0000000000000000000000000000000000000000000000000000000000000000846001600160a01b03166318160ddd6040518163ffffffff1660e01b815260040160206040518083038186803b1580156104d157600080fd5b505afa1580156104e5573d6000803e3d6000fd5b505050506040513d601f19601f820116820180604052508101906105099190610fe3565b61051391906110e3565b9050818111156105ab576001600160a01b037f00000000000000000000000000000000000000000000000000000000000000001663a0712d686105568484611102565b6040518263ffffffff1660e01b815260040161057491815260200190565b600060405180830381600087803b15801561058e57600080fd5b505af11580156105a2573d6000803e3d6000fd5b5050505061063d565b8181101561063d576001600160a01b037f0000000000000000000000000000000000000000000000000000000000000000166342966c686105ec8385611102565b6040518263ffffffff1660e01b815260040161060a91815260200190565b600060405180830381600087803b15801561062457600080fd5b505af1158015610638573d6000803e3d6000fd5b505050505b5050505050565b60007fd2761b102bda9831f4af400cc824b8cecb9cc5c1c85c51acb1479db9735fbfc66106718133610874565b61069b7f0000000000000000000000000000000000000000000000000000000000000000846110e3565b6040516370a0823160e01b81523060048201529092507f00000000000000000000000000000000000000000000000000000000000000006001600160a01b0316906370a082319060240160206040518083038186803b1580156106fd57600080fd5b505afa158015610711573d6000803e3d6000fd5b505050506040513d601f19601f820116820180604052508101906107359190610fe3565b8211156107845760405162461bcd60e51b815260206004820152601a60248201527f7377617020636f6e7472616374206f7574206f662066756e64730000000000006044820152606401610392565b6040517f79cc6790000000000000000000000000000000000000000000000000000000008152336004820152602481018490527f00000000000000000000000000000000000000000000000000000000000000006001600160a01b0316906379cc679090604401600060405180830381600087803b15801561080557600080fd5b505af1158015610819573d6000803e3d6000fd5b505050506108487f00000000000000000000000000000000000000000000000000000000000000003384610a0f565b50919050565b60008281526020819052604090206001015461086a8133610874565b6103138383610990565b6000828152602081815260408083206001600160a01b038516845290915290205460ff166103a5576108b0816001600160a01b03166014610a8f565b6108bb836020610a8f565b6040516020016108cc929190611017565b60408051601f198184030181529082905262461bcd60e51b825261039291600401611098565b6000828152602081815260408083206001600160a01b038516845290915290205460ff166103a5576000828152602081815260408083206001600160a01b03851684529091529020805460ff1916600117905561094c3390565b6001600160a01b0316816001600160a01b0316837f2f8788117e7eff1d82e926ec794901d17c78024a50270940304540a733656f0d60405160405180910390a45050565b6000828152602081815260408083206001600160a01b038516845290915290205460ff16156103a5576000828152602081815260408083206001600160a01b0385168085529252808320805460ff1916905551339285917ff6391f5c32d9c69d2a47ea670b442974b53935d1edc7fd64eb21e047a839171b9190a45050565b604080516001600160a01b038416602482015260448082018490528251808303909101815260649091019091526020810180517bffffffffffffffffffffffffffffffffffffffffffffffffffffffff167fa9059cbb00000000000000000000000000000000000000000000000000000000179052610313908490610cbd565b60606000610a9e8360026110e3565b610aa99060026110cb565b67ffffffffffffffff811115610acf57634e487b7160e01b600052604160045260246000fd5b6040519080825280601f01601f191660200182016040528015610af9576020820181803683370190505b5090507f300000000000000000000000000000000000000000000000000000000000000081600081518110610b3e57634e487b7160e01b600052603260045260246000fd5b60200101906001600160f81b031916908160001a9053507f780000000000000000000000000000000000000000000000000000000000000081600181518110610b9757634e487b7160e01b600052603260045260246000fd5b60200101906001600160f81b031916908160001a9053506000610bbb8460026110e3565b610bc69060016110cb565b90505b6001811115610c67577f303132333435363738396162636465660000000000000000000000000000000085600f1660108110610c1557634e487b7160e01b600052603260045260246000fd5b1a60f81b828281518110610c3957634e487b7160e01b600052603260045260246000fd5b60200101906001600160f81b031916908160001a90535060049490941c93610c6081611149565b9050610bc9565b508315610cb65760405162461bcd60e51b815260206004820181905260248201527f537472696e67733a20686578206c656e67746820696e73756666696369656e746044820152606401610392565b9392505050565b6000610d12826040518060400160405280602081526020017f5361666545524332303a206c6f772d6c6576656c2063616c6c206661696c6564815250856001600160a01b0316610da29092919063ffffffff16565b8051909150156103135780806020019051810190610d309190610f31565b6103135760405162461bcd60e51b815260206004820152602a60248201527f5361666545524332303a204552433230206f7065726174696f6e20646964206e60448201527f6f742073756363656564000000000000000000000000000000000000000000006064820152608401610392565b6060610db18484600085610db9565b949350505050565b606082471015610e315760405162461bcd60e51b815260206004820152602660248201527f416464726573733a20696e73756666696369656e742062616c616e636520666f60448201527f722063616c6c00000000000000000000000000000000000000000000000000006064820152608401610392565b843b610e7f5760405162461bcd60e51b815260206004820152601d60248201527f416464726573733a2063616c6c20746f206e6f6e2d636f6e74726163740000006044820152606401610392565b600080866001600160a01b03168587604051610e9b9190610ffb565b60006040518083038185875af1925050503d8060008114610ed8576040519150601f19603f3d011682016040523d82523d6000602084013e610edd565b606091505b5091509150610eed828286610ef8565b979650505050505050565b60608315610f07575081610cb6565b825115610f175782518084602001fd5b8160405162461bcd60e51b81526004016103929190611098565b600060208284031215610f42578081fd5b81518015158114610cb6578182fd5b600060208284031215610f62578081fd5b5035919050565b60008060408385031215610f7b578081fd5b8235915060208301356001600160a01b0381168114610f98578182fd5b809150509250929050565b600060208284031215610fb4578081fd5b81357fffffffff0000000000000000000000000000000000000000000000000000000081168114610cb6578182fd5b600060208284031215610ff4578081fd5b5051919050565b6000825161100d818460208701611119565b9190910192915050565b7f416363657373436f6e74726f6c3a206163636f756e742000000000000000000081526000835161104f816017850160208801611119565b7f206973206d697373696e6720726f6c6520000000000000000000000000000000601791840191820152835161108c816028840160208801611119565b01602801949350505050565b60208152600082518060208401526110b7816040850160208701611119565b601f01601f19169190910160400192915050565b600082198211156110de576110de611160565b500190565b60008160001904831182151516156110fd576110fd611160565b500290565b60008282101561111457611114611160565b500390565b60005b8381101561113457818101518382015260200161111c565b83811115611143576000848401525b50505050565b60008161115857611158611160565b506000190190565b634e487b7160e01b600052601160045260246000fdfea2646970667358221220a6e0ba0c94c21aeff10b28919a853e75fc7de765f53039cf480c38ea52e08a7a64736f6c63430008040033",
  "devdoc": {
    "kind": "dev",
    "methods": {
      "getRoleAdmin(bytes32)": {
        "details": "Returns the admin role that controls `role`. See {grantRole} and {revokeRole}. To change a role's admin, use {_setRoleAdmin}."
      },
      "grantRole(bytes32,address)": {
        "details": "Grants `role` to `account`. If `account` had not been already granted `role`, emits a {RoleGranted} event. Requirements: - the caller must have ``role``'s admin role."
      },
      "hasRole(bytes32,address)": {
        "details": "Returns `true` if `account` has been granted `role`."
      },
      "renounceRole(bytes32,address)": {
        "details": "Revokes `role` from the calling account. Roles are often managed via {grantRole} and {revokeRole}: this function's purpose is to provide a mechanism for accounts to lose their privileges if they are compromised (such as when a trusted device is misplaced). If the calling account had been revoked `role`, emits a {RoleRevoked} event. Requirements: - the caller must be `account`."
      },
      "revokeRole(bytes32,address)": {
        "details": "Revokes `role` from `account`. If `account` had been granted `role`, emits a {RoleRevoked} event. Requirements: - the caller must have ``role``'s admin role."
      },
      "supportsInterface(bytes4)": {
        "details": "See {IERC165-supportsInterface}."
      }
    },
    "version": 1
  },
  "userdoc": {
    "kind": "user",
    "methods": {},
    "version": 1
  },
  "storageLayout": {
    "storage": [
      {
        "astId": 24,
        "contract": "contracts/migration/TokenSwap.sol:TangibleTokenSwap",
        "label": "_roles",
        "offset": 0,
        "slot": "0",
        "type": "t_mapping(t_bytes32,t_struct(RoleData)19_storage)"
      }
    ],
    "types": {
      "t_address": {
        "encoding": "inplace",
        "label": "address",
        "numberOfBytes": "20"
      },
      "t_bool": {
        "encoding": "inplace",
        "label": "bool",
        "numberOfBytes": "1"
      },
      "t_bytes32": {
        "encoding": "inplace",
        "label": "bytes32",
        "numberOfBytes": "32"
      },
      "t_mapping(t_address,t_bool)": {
        "encoding": "mapping",
        "key": "t_address",
        "label": "mapping(address => bool)",
        "numberOfBytes": "32",
        "value": "t_bool"
      },
      "t_mapping(t_bytes32,t_struct(RoleData)19_storage)": {
        "encoding": "mapping",
        "key": "t_bytes32",
        "label": "mapping(bytes32 => struct AccessControl.RoleData)",
        "numberOfBytes": "32",
        "value": "t_struct(RoleData)19_storage"
      },
      "t_struct(RoleData)19_storage": {
        "encoding": "inplace",
        "label": "struct AccessControl.RoleData",
        "members": [
          {
            "astId": 16,
            "contract": "contracts/migration/TokenSwap.sol:TangibleTokenSwap",
            "label": "members",
            "offset": 0,
            "slot": "0",
            "type": "t_mapping(t_address,t_bool)"
          },
          {
            "astId": 18,
            "contract": "contracts/migration/TokenSwap.sol:TangibleTokenSwap",
            "label": "adminRole",
            "offset": 0,
            "slot": "1",
            "type": "t_bytes32"
          }
        ],
        "numberOfBytes": "64"
      }
    }
  }
}