{
  "address": "0x0165878A594ca255338adfa4d48449f69242Eb8F",
  "abi": [
    {
      "inputs": [
        {
          "internalType": "address",
          "name": "piToken",
          "type": "address"
        },
        {
          "internalType": "address",
          "name": "piCalculator",
          "type": "address"
        }
      ],
      "stateMutability": "nonpayable",
      "type": "constructor"
    },
    {
      "anonymous": false,
      "inputs": [
        {
          "indexed": true,
          "internalType": "address",
          "name": "owner",
          "type": "address"
        },
        {
          "indexed": true,
          "internalType": "address",
          "name": "approved",
          "type": "address"
        },
        {
          "indexed": true,
          "internalType": "uint256",
          "name": "tokenId",
          "type": "uint256"
        }
      ],
      "name": "Approval",
      "type": "event"
    },
    {
      "anonymous": false,
      "inputs": [
        {
          "indexed": true,
          "internalType": "address",
          "name": "owner",
          "type": "address"
        },
        {
          "indexed": true,
          "internalType": "address",
          "name": "operator",
          "type": "address"
        },
        {
          "indexed": false,
          "internalType": "bool",
          "name": "approved",
          "type": "bool"
        }
      ],
      "name": "ApprovalForAll",
      "type": "event"
    },
    {
      "anonymous": false,
      "inputs": [
        {
          "indexed": true,
          "internalType": "address",
          "name": "account",
          "type": "address"
        },
        {
          "indexed": true,
          "internalType": "uint256",
          "name": "tokenId",
          "type": "uint256"
        },
        {
          "indexed": false,
          "internalType": "uint256",
          "name": "value",
          "type": "uint256"
        }
      ],
      "name": "Claim",
      "type": "event"
    },
    {
      "anonymous": false,
      "inputs": [
        {
          "indexed": true,
          "internalType": "bytes32",
          "name": "role",
          "type": "bytes32"
        },
        {
          "indexed": true,
          "internalType": "bytes32",
          "name": "previousAdminRole",
          "type": "bytes32"
        },
        {
          "indexed": true,
          "internalType": "bytes32",
          "name": "newAdminRole",
          "type": "bytes32"
        }
      ],
      "name": "RoleAdminChanged",
      "type": "event"
    },
    {
      "anonymous": false,
      "inputs": [
        {
          "indexed": true,
          "internalType": "bytes32",
          "name": "role",
          "type": "bytes32"
        },
        {
          "indexed": true,
          "internalType": "address",
          "name": "account",
          "type": "address"
        },
        {
          "indexed": true,
          "internalType": "address",
          "name": "sender",
          "type": "address"
        }
      ],
      "name": "RoleGranted",
      "type": "event"
    },
    {
      "anonymous": false,
      "inputs": [
        {
          "indexed": true,
          "internalType": "bytes32",
          "name": "role",
          "type": "bytes32"
        },
        {
          "indexed": true,
          "internalType": "address",
          "name": "account",
          "type": "address"
        },
        {
          "indexed": true,
          "internalType": "address",
          "name": "sender",
          "type": "address"
        }
      ],
      "name": "RoleRevoked",
      "type": "event"
    },
    {
      "anonymous": false,
      "inputs": [
        {
          "indexed": true,
          "internalType": "address",
          "name": "from",
          "type": "address"
        },
        {
          "indexed": true,
          "internalType": "address",
          "name": "to",
          "type": "address"
        },
        {
          "indexed": true,
          "internalType": "uint256",
          "name": "tokenId",
          "type": "uint256"
        }
      ],
      "name": "Transfer",
      "type": "event"
    },
    {
      "inputs": [],
      "name": "DEFAULT_ADMIN_ROLE",
      "outputs": [
        {
          "internalType": "bytes32",
          "name": "",
          "type": "bytes32"
        }
      ],
      "stateMutability": "view",
      "type": "function"
    },
    {
      "inputs": [],
      "name": "SNAPPER_ROLE",
      "outputs": [
        {
          "internalType": "bytes32",
          "name": "",
          "type": "bytes32"
        }
      ],
      "stateMutability": "view",
      "type": "function"
    },
    {
      "inputs": [
        {
          "internalType": "address",
          "name": "to",
          "type": "address"
        },
        {
          "internalType": "uint256",
          "name": "tokenId",
          "type": "uint256"
        }
      ],
      "name": "approve",
      "outputs": [],
      "stateMutability": "nonpayable",
      "type": "function"
    },
    {
      "inputs": [],
      "name": "avgLockDuration",
      "outputs": [
        {
          "internalType": "uint256",
          "name": "",
          "type": "uint256"
        }
      ],
      "stateMutability": "view",
      "type": "function"
    },
    {
      "inputs": [
        {
          "internalType": "address",
          "name": "owner",
          "type": "address"
        }
      ],
      "name": "balanceOf",
      "outputs": [
        {
          "internalType": "uint256",
          "name": "",
          "type": "uint256"
        }
      ],
      "stateMutability": "view",
      "type": "function"
    },
    {
      "inputs": [],
      "name": "boostEndTime",
      "outputs": [
        {
          "internalType": "uint256",
          "name": "",
          "type": "uint256"
        }
      ],
      "stateMutability": "view",
      "type": "function"
    },
    {
      "inputs": [],
      "name": "boostStartTime",
      "outputs": [
        {
          "internalType": "uint256",
          "name": "",
          "type": "uint256"
        }
      ],
      "stateMutability": "view",
      "type": "function"
    },
    {
      "inputs": [
        {
          "internalType": "uint256",
          "name": "tokenId",
          "type": "uint256"
        }
      ],
      "name": "burn",
      "outputs": [
        {
          "internalType": "uint256",
          "name": "amount",
          "type": "uint256"
        }
      ],
      "stateMutability": "nonpayable",
      "type": "function"
    },
    {
      "inputs": [
        {
          "internalType": "uint256",
          "name": "tokenId",
          "type": "uint256"
        },
        {
          "internalType": "uint256",
          "name": "amount",
          "type": "uint256"
        }
      ],
      "name": "claim",
      "outputs": [],
      "stateMutability": "nonpayable",
      "type": "function"
    },
    {
      "inputs": [
        {
          "internalType": "uint256",
          "name": "tokenId",
          "type": "uint256"
        }
      ],
      "name": "claimableIncome",
      "outputs": [
        {
          "internalType": "uint256",
          "name": "free",
          "type": "uint256"
        },
        {
          "internalType": "uint256",
          "name": "max",
          "type": "uint256"
        }
      ],
      "stateMutability": "view",
      "type": "function"
    },
    {
      "inputs": [
        {
          "internalType": "uint256",
          "name": "tokenId",
          "type": "uint256"
        }
      ],
      "name": "getApproved",
      "outputs": [
        {
          "internalType": "address",
          "name": "",
          "type": "address"
        }
      ],
      "stateMutability": "view",
      "type": "function"
    },
    {
      "inputs": [
        {
          "internalType": "bytes32",
          "name": "role",
          "type": "bytes32"
        }
      ],
      "name": "getRoleAdmin",
      "outputs": [
        {
          "internalType": "bytes32",
          "name": "",
          "type": "bytes32"
        }
      ],
      "stateMutability": "view",
      "type": "function"
    },
    {
      "inputs": [
        {
          "internalType": "uint256",
          "name": "tokenId",
          "type": "uint256"
        }
      ],
      "name": "getShare",
      "outputs": [
        {
          "internalType": "uint256",
          "name": "",
          "type": "uint256"
        }
      ],
      "stateMutability": "view",
      "type": "function"
    },
    {
      "inputs": [
        {
          "internalType": "bytes32",
          "name": "role",
          "type": "bytes32"
        },
        {
          "internalType": "address",
          "name": "account",
          "type": "address"
        }
      ],
      "name": "grantRole",
      "outputs": [],
      "stateMutability": "nonpayable",
      "type": "function"
    },
    {
      "inputs": [
        {
          "internalType": "bytes32",
          "name": "role",
          "type": "bytes32"
        },
        {
          "internalType": "address",
          "name": "account",
          "type": "address"
        }
      ],
      "name": "hasRole",
      "outputs": [
        {
          "internalType": "bool",
          "name": "",
          "type": "bool"
        }
      ],
      "stateMutability": "view",
      "type": "function"
    },
    {
      "inputs": [
        {
          "internalType": "address",
          "name": "owner",
          "type": "address"
        },
        {
          "internalType": "address",
          "name": "operator",
          "type": "address"
        }
      ],
      "name": "isApprovedForAll",
      "outputs": [
        {
          "internalType": "bool",
          "name": "",
          "type": "bool"
        }
      ],
      "stateMutability": "view",
      "type": "function"
    },
    {
      "inputs": [
        {
          "internalType": "uint256",
          "name": "",
          "type": "uint256"
        }
      ],
      "name": "locks",
      "outputs": [
        {
          "internalType": "uint256",
          "name": "startTime",
          "type": "uint256"
        },
        {
          "internalType": "uint256",
          "name": "endTime",
          "type": "uint256"
        },
        {
          "internalType": "uint256",
          "name": "lockedAmount",
          "type": "uint256"
        },
        {
          "internalType": "uint256",
          "name": "multiplier",
          "type": "uint256"
        },
        {
          "internalType": "uint256",
          "name": "claimed",
          "type": "uint256"
        },
        {
          "internalType": "uint256",
          "name": "maxPayout",
          "type": "uint256"
        }
      ],
      "stateMutability": "view",
      "type": "function"
    },
    {
      "inputs": [],
      "name": "marketplace",
      "outputs": [
        {
          "internalType": "contract IMarketplace",
          "name": "",
          "type": "address"
        }
      ],
      "stateMutability": "view",
      "type": "function"
    },
    {
      "inputs": [],
      "name": "maxLockDuration",
      "outputs": [
        {
          "internalType": "uint8",
          "name": "",
          "type": "uint8"
        }
      ],
      "stateMutability": "view",
      "type": "function"
    },
    {
      "inputs": [
        {
          "internalType": "address",
          "name": "minter",
          "type": "address"
        },
        {
          "internalType": "uint256",
          "name": "lockedAmount",
          "type": "uint256"
        },
        {
          "internalType": "uint8",
          "name": "lockDurationInMonths",
          "type": "uint8"
        },
        {
          "internalType": "bool",
          "name": "onlyLock",
          "type": "bool"
        }
      ],
      "name": "mint",
      "outputs": [
        {
          "internalType": "uint256",
          "name": "tokenId",
          "type": "uint256"
        }
      ],
      "stateMutability": "nonpayable",
      "type": "function"
    },
    {
      "inputs": [],
      "name": "name",
      "outputs": [
        {
          "internalType": "string",
          "name": "",
          "type": "string"
        }
      ],
      "stateMutability": "view",
      "type": "function"
    },
    {
      "inputs": [
        {
          "internalType": "uint256",
          "name": "tokenId",
          "type": "uint256"
        }
      ],
      "name": "ownerOf",
      "outputs": [
        {
          "internalType": "address",
          "name": "",
          "type": "address"
        }
      ],
      "stateMutability": "view",
      "type": "function"
    },
    {
      "inputs": [
        {
          "internalType": "bytes32",
          "name": "role",
          "type": "bytes32"
        },
        {
          "internalType": "address",
          "name": "account",
          "type": "address"
        }
      ],
      "name": "renounceRole",
      "outputs": [],
      "stateMutability": "nonpayable",
      "type": "function"
    },
    {
      "inputs": [],
      "name": "revenueShare",
      "outputs": [
        {
          "internalType": "contract RevenueShare",
          "name": "",
          "type": "address"
        }
      ],
      "stateMutability": "view",
      "type": "function"
    },
    {
      "inputs": [
        {
          "internalType": "bytes32",
          "name": "role",
          "type": "bytes32"
        },
        {
          "internalType": "address",
          "name": "account",
          "type": "address"
        }
      ],
      "name": "revokeRole",
      "outputs": [],
      "stateMutability": "nonpayable",
      "type": "function"
    },
    {
      "inputs": [
        {
          "internalType": "address",
          "name": "from",
          "type": "address"
        },
        {
          "internalType": "address",
          "name": "to",
          "type": "address"
        },
        {
          "internalType": "uint256",
          "name": "tokenId",
          "type": "uint256"
        }
      ],
      "name": "safeTransferFrom",
      "outputs": [],
      "stateMutability": "nonpayable",
      "type": "function"
    },
    {
      "inputs": [
        {
          "internalType": "address",
          "name": "from",
          "type": "address"
        },
        {
          "internalType": "address",
          "name": "to",
          "type": "address"
        },
        {
          "internalType": "uint256",
          "name": "tokenId",
          "type": "uint256"
        },
        {
          "internalType": "bytes",
          "name": "_data",
          "type": "bytes"
        }
      ],
      "name": "safeTransferFrom",
      "outputs": [],
      "stateMutability": "nonpayable",
      "type": "function"
    },
    {
      "inputs": [
        {
          "internalType": "address",
          "name": "operator",
          "type": "address"
        },
        {
          "internalType": "bool",
          "name": "approved",
          "type": "bool"
        }
      ],
      "name": "setApprovalForAll",
      "outputs": [],
      "stateMutability": "nonpayable",
      "type": "function"
    },
    {
      "inputs": [
        {
          "internalType": "string",
          "name": "baseURI",
          "type": "string"
        }
      ],
      "name": "setImageBaseURI",
      "outputs": [],
      "stateMutability": "nonpayable",
      "type": "function"
    },
    {
      "inputs": [
        {
          "internalType": "address",
          "name": "marketplace_",
          "type": "address"
        }
      ],
      "name": "setMarketplaceContract",
      "outputs": [],
      "stateMutability": "nonpayable",
      "type": "function"
    },
    {
      "inputs": [
        {
          "internalType": "uint8",
          "name": "months",
          "type": "uint8"
        }
      ],
      "name": "setMaxLockDuration",
      "outputs": [],
      "stateMutability": "nonpayable",
      "type": "function"
    },
    {
      "inputs": [
        {
          "internalType": "uint256",
          "name": "snapshot",
          "type": "uint256"
        }
      ],
      "name": "setNextSnapshot",
      "outputs": [],
      "stateMutability": "nonpayable",
      "type": "function"
    },
    {
      "inputs": [
        {
          "internalType": "address",
          "name": "revenueShare_",
          "type": "address"
        }
      ],
      "name": "setRevenueShareContract",
      "outputs": [],
      "stateMutability": "nonpayable",
      "type": "function"
    },
    {
      "inputs": [
        {
          "internalType": "bytes4",
          "name": "interfaceId",
          "type": "bytes4"
        }
      ],
      "name": "supportsInterface",
      "outputs": [
        {
          "internalType": "bool",
          "name": "",
          "type": "bool"
        }
      ],
      "stateMutability": "view",
      "type": "function"
    },
    {
      "inputs": [],
      "name": "symbol",
      "outputs": [
        {
          "internalType": "string",
          "name": "",
          "type": "string"
        }
      ],
      "stateMutability": "view",
      "type": "function"
    },
    {
      "inputs": [
        {
          "internalType": "uint256",
          "name": "index",
          "type": "uint256"
        }
      ],
      "name": "tokenByIndex",
      "outputs": [
        {
          "internalType": "uint256",
          "name": "",
          "type": "uint256"
        }
      ],
      "stateMutability": "view",
      "type": "function"
    },
    {
      "inputs": [
        {
          "internalType": "address",
          "name": "owner",
          "type": "address"
        },
        {
          "internalType": "uint256",
          "name": "index",
          "type": "uint256"
        }
      ],
      "name": "tokenOfOwnerByIndex",
      "outputs": [
        {
          "internalType": "uint256",
          "name": "",
          "type": "uint256"
        }
      ],
      "stateMutability": "view",
      "type": "function"
    },
    {
      "inputs": [
        {
          "internalType": "uint256",
          "name": "tokenId",
          "type": "uint256"
        }
      ],
      "name": "tokenURI",
      "outputs": [
        {
          "internalType": "string",
          "name": "",
          "type": "string"
        }
      ],
      "stateMutability": "view",
      "type": "function"
    },
    {
      "inputs": [],
      "name": "totalClaimed",
      "outputs": [
        {
          "internalType": "uint256",
          "name": "",
          "type": "uint256"
        }
      ],
      "stateMutability": "view",
      "type": "function"
    },
    {
      "inputs": [],
      "name": "totalLocked",
      "outputs": [
        {
          "internalType": "uint256",
          "name": "",
          "type": "uint256"
        }
      ],
      "stateMutability": "view",
      "type": "function"
    },
    {
      "inputs": [],
      "name": "totalSupply",
      "outputs": [
        {
          "internalType": "uint256",
          "name": "",
          "type": "uint256"
        }
      ],
      "stateMutability": "view",
      "type": "function"
    },
    {
      "inputs": [
        {
          "internalType": "address",
          "name": "from",
          "type": "address"
        },
        {
          "internalType": "address",
          "name": "to",
          "type": "address"
        },
        {
          "internalType": "uint256",
          "name": "tokenId",
          "type": "uint256"
        }
      ],
      "name": "transferFrom",
      "outputs": [],
      "stateMutability": "nonpayable",
      "type": "function"
    },
    {
      "inputs": [
        {
          "internalType": "uint256",
          "name": "tokenId",
          "type": "uint256"
        }
      ],
      "name": "updateShare",
      "outputs": [
        {
          "internalType": "uint256",
          "name": "",
          "type": "uint256"
        }
      ],
      "stateMutability": "nonpayable",
      "type": "function"
    }
  ],
  "transactionHash": "0x512c6bebb6eb6d0618e368566c8a752e63ef30fc5180b2b082a8852374a29ca5",
  "args": [
    "0xe7f1725E7734CE288F8367e1Bb143E90bb3F0512",
    "0x5FC8d32690cc91D4c39d9d3abcBD16989F875707"
  ],
  "numDeployments": 1,
  "solcInputHash": "8c67182d4eb06597fb18fa6e651d2c89",
  "bytecode": "0x60c06040523480156200001157600080fd5b5060405162003fb638038062003fb6833981016040819052620000349162000279565b6040805180820182526002815261504960f01b60208083019182528351808501909452601284527114185cdcda5d9948125b98dbdb594813919560721b9084015281519192916200008891600091620001b6565b5080516200009e906001906020840190620001b6565b5050600c805460ff19166030179055504260168190556080819052620000c99063076a7000620002b0565b60a052601080546001600160a01b038085166001600160a01b03199283161790925560118054928416929091169190911790556200010960003362000111565b505062000312565b6000828152600a602090815260408083206001600160a01b038516845290915290205460ff16620001b2576000828152600a602090815260408083206001600160a01b03851684529091529020805460ff19166001179055620001713390565b6001600160a01b0316816001600160a01b0316837f2f8788117e7eff1d82e926ec794901d17c78024a50270940304540a733656f0d60405160405180910390a45b5050565b828054620001c490620002d5565b90600052602060002090601f016020900481019282620001e8576000855562000233565b82601f106200020357805160ff191683800117855562000233565b8280016001018555821562000233579182015b828111156200023357825182559160200191906001019062000216565b506200024192915062000245565b5090565b5b8082111562000241576000815560010162000246565b80516001600160a01b03811681146200027457600080fd5b919050565b600080604083850312156200028c578182fd5b62000297836200025c565b9150620002a7602084016200025c565b90509250929050565b60008219821115620002d057634e487b7160e01b81526011600452602481fd5b500190565b600181811c90821680620002ea57607f821691505b602082108114156200030c57634e487b7160e01b600052602260045260246000fd5b50919050565b60805160a051613c7062000346600039600081816105b00152611462015260008181610652015261143c0152613c706000f3fe608060405234801561001057600080fd5b50600436106102e95760003560e01c806370a0823111610191578063b88d4fde116100e3578063d547741f11610097578063e985e9c511610071578063e985e9c514610674578063f4dadc61146106b0578063ff0984ca1461072057600080fd5b8063d547741f14610631578063d54ad2a114610644578063daa64ab31461064d57600080fd5b8063c87b56dd116100c8578063c87b56dd146105f8578063cfb5a5f81461060b578063d2762db01461061e57600080fd5b8063b88d4fde146105d2578063c3490263146105e557600080fd5b8063a217fddf11610145578063abc8c7af1161011f578063abc8c7af14610585578063b4a84c2314610598578063b55fb79d146105ab57600080fd5b8063a217fddf14610557578063a22cb4651461055f578063a362dd091461057257600080fd5b806391d148541161017657806391d14854146104f757806395d89b4114610530578063a16cdbb11461053857600080fd5b806370a08231146104d1578063843edd3c146104e457600080fd5b80632f745c591161024a57806342966c68116101fe57806356891412116101d857806356891412146104a25780636352211e146104ab5780636cfa24cc146104be57600080fd5b806342966c681461045457806349a0f36c146104675780634f6ccce71461048f57600080fd5b806337209b3e1161022f57806337209b3e146104075780633df8c1dc1461042e57806342842e0e1461044157600080fd5b80632f745c59146103e157806336568abe146103f457600080fd5b806318160ddd116102a1578063248a9ca311610286578063248a9ca3146103a35780632707a811146103c65780632f2ff15d146103ce57600080fd5b806318160ddd1461037e57806323b872dd1461039057600080fd5b8063081812fc116102d2578063081812fc1461032b578063095ea7b3146103565780631102610e1461036b57600080fd5b806301ffc9a7146102ee57806306fdde0314610316575b600080fd5b6103016102fc3660046136c5565b610733565b60405190151581526020015b60405180910390f35b61031e610753565b60405161030d9190613a55565b61033e61033936600461368b565b6107e5565b6040516001600160a01b03909116815260200161030d565b6103696103643660046135f8565b61087f565b005b6103696103793660046134c2565b6109b1565b6008545b60405190815260200161030d565b61036961039e36600461350e565b6109e0565b6103826103b136600461368b565b6000908152600a602052604090206001015490565b610382610a67565b6103696103dc3660046136a3565b610aeb565b6103826103ef3660046135f8565b610b11565b6103696104023660046136a3565b610bb9565b6103827ff15cbf6ea91b428cae67253d2ebab1a8ca36e10002fcbd7064a8910b95072b7881565b61036961043c36600461368b565b610c45565b61036961044f36600461350e565b610cd0565b61038261046236600461368b565b610ceb565b61047a61047536600461368b565b610f8d565b6040805192835260208301919091520161030d565b61038261049d36600461368b565b611112565b610382600d5481565b61033e6104b936600461368b565b6111c4565b6103696104cc3660046136fd565b61124f565b6103826104df3660046134c2565b61126e565b6103826104f2366004613621565b611308565b6103016105053660046136a3565b6000918252600a602090815260408084206001600160a01b0393909316845291905290205460ff1690565b61031e611682565b600c546105459060ff1681565b60405160ff909116815260200161030d565b610382600081565b61036961056d3660046135c2565b611691565b61038261058036600461368b565b61169c565b601a5461033e906001600160a01b031681565b6103696105a63660046134c2565b6117c5565b6103827f000000000000000000000000000000000000000000000000000000000000000081565b6103696105e0366004613549565b6117f4565b6103696105f336600461375b565b611882565b61031e61060636600461368b565b611b1b565b61038261061936600461368b565b611b76565b61036961062c36600461379f565b611c54565b61036961063f3660046136a3565b611c77565b610382600e5481565b6103827f000000000000000000000000000000000000000000000000000000000000000081565b6103016106823660046134dc565b6001600160a01b03918216600090815260056020908152604080832093909416825291909152205460ff1690565b6106f36106be36600461368b565b600b60205260009081526040902080546001820154600283015460038401546004850154600590950154939492939192909186565b604080519687526020870195909552938501929092526060840152608083015260a082015260c00161030d565b60195461033e906001600160a01b031681565b600061073e82611c9d565b8061074d575061074d82611cdb565b92915050565b60606000805461076290613b0d565b80601f016020809104026020016040519081016040528092919081815260200182805461078e90613b0d565b80156107db5780601f106107b0576101008083540402835291602001916107db565b820191906000526020600020905b8154815290600101906020018083116107be57829003601f168201915b5050505050905090565b6000818152600260205260408120546001600160a01b03166108635760405162461bcd60e51b815260206004820152602c60248201527f4552433732313a20617070726f76656420717565727920666f72206e6f6e657860448201526b34b9ba32b73a103a37b5b2b760a11b60648201526084015b60405180910390fd5b506000908152600460205260409020546001600160a01b031690565b600061088a826111c4565b9050806001600160a01b0316836001600160a01b031614156109145760405162461bcd60e51b815260206004820152602160248201527f4552433732313a20617070726f76616c20746f2063757272656e74206f776e6560448201527f7200000000000000000000000000000000000000000000000000000000000000606482015260840161085a565b336001600160a01b038216148061093057506109308133610682565b6109a25760405162461bcd60e51b815260206004820152603860248201527f4552433732313a20617070726f76652063616c6c6572206973206e6f74206f7760448201527f6e6572206e6f7220617070726f76656420666f7220616c6c0000000000000000606482015260840161085a565b6109ac8383611d19565b505050565b60006109bd8133611d87565b50601a80546001600160a01b0319166001600160a01b0392909216919091179055565b6109ea3382611e07565b610a5c5760405162461bcd60e51b815260206004820152603160248201527f4552433732313a207472616e736665722063616c6c6572206973206e6f74206f60448201527f776e6572206e6f7220617070726f766564000000000000000000000000000000606482015260840161085a565b6109ac838383611efe565b600080610a7360085490565b905080610a8257600091505090565b600060025b60308160ff1611610acd5760ff8116600081815260156020526040902054610aaf9190613a94565b610ab99083613a68565b915080610ac581613b5d565b915050610a87565b5081610ada82600a613a94565b610ae49190613a80565b9250505090565b6000828152600a6020526040902060010154610b078133611d87565b6109ac83836120d6565b6000610b1c8361126e565b8210610b905760405162461bcd60e51b815260206004820152602b60248201527f455243373231456e756d657261626c653a206f776e657220696e646578206f7560448201527f74206f6620626f756e6473000000000000000000000000000000000000000000606482015260840161085a565b506001600160a01b03919091166000908152600660209081526040808320938352929052205490565b6001600160a01b0381163314610c375760405162461bcd60e51b815260206004820152602f60248201527f416363657373436f6e74726f6c3a2063616e206f6e6c792072656e6f756e636560448201527f20726f6c657320666f722073656c660000000000000000000000000000000000606482015260840161085a565b610c418282612178565b5050565b7ff15cbf6ea91b428cae67253d2ebab1a8ca36e10002fcbd7064a8910b95072b78610c708133611d87565b600d54600f54610c809190613a68565b6016805460009081527f999d26de3473317ead3eeaf34ca78057f1439db67b6953469c3c96ce9caf6bd7602090815260408083209490945582548683526017909152929020919091559190915550565b6109ac838383604051806020016040528060008152506117f4565b600033610cf7836111c4565b6001600160a01b0316816001600160a01b031614610d575760405162461bcd60e51b815260206004820152601760248201527f63616c6c6572206973206e6f7420746865206f776e6572000000000000000000604482015260640161085a565b6000838152600b6020908152604091829020825160c08101845281548152600182015492810183905260028201549381019390935260038101546060840152600481015460808401526005015460a0830152421015610df85760405162461bcd60e51b815260206004820152600b60248201527f6e6f742065787069726564000000000000000000000000000000000000000000604482015260640161085a565b610e0184610f8d565b5092508215610e225782600e6000828254610e1c9190613a68565b90915550505b8060400151600d6000828254610e389190613ab3565b90915550506040810151610e4c9084613a68565b9250600062278d0082600001518360200151610e689190613ab3565b610e729190613a80565b60ff81166000908152601560205260408120805492935090610e9383613af6565b91905055508160a00151600f6000828254610eae9190613ab3565b90915550506000858152600b602052604081208181556001810182905560028101829055600381018290556004810182905560050155610eed856121fb565b610ef68561228e565b601a546040517fcaa67fa1000000000000000000000000000000000000000000000000000000008152600481018790526001600160a01b039091169063caa67fa190602401600060405180830381600087803b158015610f5557600080fd5b505af1158015610f69573d6000803e3d6000fd5b5050601054610f8592506001600160a01b031690508486612335565b505050919050565b6000818152600b60209081526040808320815160c08101835281548152600182015493810184905260028201549281019290925260038101546060830152600481015460808301526005015460a0820152829142106110045780608001518160a00151610ffa9190613ab3565b915081925061110c565b601154815160208301516040808501516060860151608087015192517fed6ecb2c000000000000000000000000000000000000000000000000000000008152600481019590955260248501939093524260448501526064840152608483019190915260a48201526001600160a01b039091169063ed6ecb2c9060c401604080518083038186803b15801561109757600080fd5b505afa1580156110ab573d6000803e3d6000fd5b505050506040513d601f19601f820116820180604052508101906110cf919061377c565b608083015191945092506110e39083613ab3565b915080608001518310156110fa576000925061110c565b60808101516111099084613ab3565b92505b50915091565b600061111d60085490565b82106111915760405162461bcd60e51b815260206004820152602c60248201527f455243373231456e756d657261626c653a20676c6f62616c20696e646578206f60448201527f7574206f6620626f756e64730000000000000000000000000000000000000000606482015260840161085a565b600882815481106111b257634e487b7160e01b600052603260045260246000fd5b90600052602060002001549050919050565b6000818152600260205260408120546001600160a01b03168061074d5760405162461bcd60e51b815260206004820152602960248201527f4552433732313a206f776e657220717565727920666f72206e6f6e657869737460448201527f656e7420746f6b656e0000000000000000000000000000000000000000000000606482015260840161085a565b600061125b8133611d87565b81516109ac906014906020850190613386565b60006001600160a01b0382166112ec5760405162461bcd60e51b815260206004820152602a60248201527f4552433732313a2062616c616e636520717565727920666f7220746865207a6560448201527f726f206164647265737300000000000000000000000000000000000000000000606482015260840161085a565b506001600160a01b031660009081526003602052604090205490565b6000600260ff8416108015906113275750600c5460ff90811690841611155b6113735760405162461bcd60e51b815260206004820152601560248201527f696e76616c6964206c6f636b206475726174696f6e0000000000000000000000604482015260640161085a565b60136000815461138290613b42565b91829055509050600061139b60ff851662278d00613a94565b6113a59042613a68565b90506113e06040518060c001604052806000815260200160008152602001600081526020016000815260200160008152602001600081525090565b6040810186905242815260208101829052831561141157670de0b6b3a76400006060820152600060a0820152611530565b6011546040517fdebb58710000000000000000000000000000000000000000000000000000000081527f000000000000000000000000000000000000000000000000000000000000000060048201527f0000000000000000000000000000000000000000000000000000000000000000602482015242604482015260ff871660648201526001600160a01b039091169063debb58719060840160206040518083038186803b1580156114c257600080fd5b505afa1580156114d6573d6000803e3d6000fd5b505050506040513d601f19601f820116820180604052508101906114fa9190613743565b60608201819052670de0b6b3a764000090611516908290613ab3565b6115209088613a94565b61152a9190613a80565b60a08201525b6000838152600b60209081526040808320845181559184015160018301558301516002820155606083015160038201556080830151600482015560a0830151600590910155600d8054889290611587908490613a68565b909155505060a0810151600f80546000906115a3908490613a68565b909155505060ff851660009081526015602052604081208054916115c683613b42565b90915550506010546115e3906001600160a01b03163330896123c6565b6115ec836121fb565b60105460a08201516040517fa0712d680000000000000000000000000000000000000000000000000000000081526001600160a01b039092169163a0712d689161163c9160040190815260200190565b600060405180830381600087803b15801561165657600080fd5b505af115801561166a573d6000803e3d6000fd5b505050506116788784612417565b5050949350505050565b60606001805461076290613b0d565b610c41338383612565565b60007ff15cbf6ea91b428cae67253d2ebab1a8ca36e10002fcbd7064a8910b95072b786116c98133611d87565b6016546000848152600b60205260409020541015806116f457506000838152600b6020526040902054155b1561170257600091506117bf565b6016546000908152601760209081526040808320548084527f999d26de3473317ead3eeaf34ca78057f1439db67b6953469c3c96ce9caf6bd7835281842054878552601884528285208286529384905291909320549091905b806117835750600092835260176020908152604080852054808652918390529093205461175b565b60008781526018602090815260408083208784529091529020819055826117ae82633b9aca00613a94565b6117b89190613a80565b9550505050505b50919050565b60006117d18133611d87565b50601980546001600160a01b0319166001600160a01b0392909216919091179055565b6117fe3383611e07565b6118705760405162461bcd60e51b815260206004820152603160248201527f4552433732313a207472616e736665722063616c6c6572206973206e6f74206f60448201527f776e6572206e6f7220617070726f766564000000000000000000000000000000606482015260840161085a565b61187c84848484612634565b50505050565b3361188c836111c4565b6001600160a01b0316816001600160a01b0316146118ec5760405162461bcd60e51b815260206004820152601760248201527f63616c6c6572206973206e6f7420746865206f776e6572000000000000000000604482015260640161085a565b6000806118f885610f8d565b915091508084111561194c5760405162461bcd60e51b815260206004820152601f60248201527f616d6f756e74206578636565647320636c61696d61626c6520696e636f6d6500604482015260640161085a565b6000858152600b6020526040902082851115611a9557600061196e8487613ab3565b9050600061197c8585613ab3565b61198a836305f5e100613a94565b6119949190613a80565b600384015490915060006305f5e1006119ad8484613a94565b6119b79190613a80565b905060006119c58284613ab3565b90506000670de0b6b3a76400008760020154836119e29190613a94565b6119ec9190613a80565b9050808760050154600f54611a019190613ab3565b611a0b9190613a68565b600f5560105460058801546001600160a01b03909116906342966c6890611a33908490613ab3565b6040518263ffffffff1660e01b8152600401611a5191815260200190565b600060405180830381600087803b158015611a6b57600080fd5b505af1158015611a7f573d6000803e3d6000fd5b5050505060038701919091556005860155505050505b84816004016000828254611aa99190613a68565b90915550611ab89050866121fb565b601054611acf906001600160a01b03168587612335565b85846001600160a01b03167f34fcbac0073d7c3d388e51312faf357774904998eeb8fca628b9e6f65ee1cbf787604051611b0b91815260200190565b60405180910390a3505050505050565b6060611b506014611b2b846126bd565b604051602001611b3c9291906138e3565b6040516020818303038152906040526127d7565b604051602001611b60919061381d565b6040516020818303038152906040529050919050565b6016546000828152600b60205260408120549091111580611ba357506000828152600b6020526040902054155b15611bb057506000919050565b6016546000908152601760209081526040808320548084527f999d26de3473317ead3eeaf34ca78057f1439db67b6953469c3c96ce9caf6bd7835281842054868552601884528285208286529384905291909320549091905b80611c3157506000928352601760209081526040808520548086529183905290932054611c09565b82611c4082633b9aca00613a94565b611c4a9190613a80565b9695505050505050565b6000611c608133611d87565b50600c805460ff191660ff92909216919091179055565b6000828152600a6020526040902060010154611c938133611d87565b6109ac8383612178565b60006001600160e01b031982167f780e9d6300000000000000000000000000000000000000000000000000000000148061074d575061074d82612982565b60006001600160e01b031982167f7965db0b00000000000000000000000000000000000000000000000000000000148061074d575061074d82611c9d565b600081815260046020526040902080546001600160a01b0319166001600160a01b0384169081179091558190611d4e826111c4565b6001600160a01b03167f8c5be1e5ebec7d5bd14f71427d1e84f3dd0314c0f7b2291e5b200ac8c7c3b92560405160405180910390a45050565b6000828152600a602090815260408083206001600160a01b038516845290915290205460ff16610c4157611dc5816001600160a01b03166014612a1d565b611dd0836020612a1d565b604051602001611de1929190613862565b60408051601f198184030181529082905262461bcd60e51b825261085a91600401613a55565b6000818152600260205260408120546001600160a01b0316611e805760405162461bcd60e51b815260206004820152602c60248201527f4552433732313a206f70657261746f7220717565727920666f72206e6f6e657860448201526b34b9ba32b73a103a37b5b2b760a11b606482015260840161085a565b6000611e8b836111c4565b9050806001600160a01b0316846001600160a01b03161480611ec65750836001600160a01b0316611ebb846107e5565b6001600160a01b0316145b80611ef657506001600160a01b0380821660009081526005602090815260408083209388168352929052205460ff165b949350505050565b826001600160a01b0316611f11826111c4565b6001600160a01b031614611f8d5760405162461bcd60e51b815260206004820152602960248201527f4552433732313a207472616e73666572206f6620746f6b656e2074686174206960448201527f73206e6f74206f776e0000000000000000000000000000000000000000000000606482015260840161085a565b6001600160a01b0382166120085760405162461bcd60e51b8152602060048201526024808201527f4552433732313a207472616e7366657220746f20746865207a65726f2061646460448201527f7265737300000000000000000000000000000000000000000000000000000000606482015260840161085a565b612013838383612c2f565b61201e600082611d19565b6001600160a01b0383166000908152600360205260408120805460019290612047908490613ab3565b90915550506001600160a01b0382166000908152600360205260408120805460019290612075908490613a68565b909155505060008181526002602052604080822080546001600160a01b0319166001600160a01b0386811691821790925591518493918716917fddf252ad1be2c89b69c2b068fc378daa952ba7f163c4a11628f55a4df523b3ef91a4505050565b6000828152600a602090815260408083206001600160a01b038516845290915290205460ff16610c41576000828152600a602090815260408083206001600160a01b03851684529091529020805460ff191660011790556121343390565b6001600160a01b0316816001600160a01b0316837f2f8788117e7eff1d82e926ec794901d17c78024a50270940304540a733656f0d60405160405180910390a45050565b6000828152600a602090815260408083206001600160a01b038516845290915290205460ff1615610c41576000828152600a602090815260408083206001600160a01b0385168085529252808320805460ff1916905551339285917ff6391f5c32d9c69d2a47ea670b442974b53935d1edc7fd64eb21e047a839171b9190a45050565b600d54600f5461220b9190613a68565b60165460009081527f999d26de3473317ead3eeaf34ca78057f1439db67b6953469c3c96ce9caf6bd76020908152604080832093909355838252600b90522060048101546002820154600590920154909161226591613a68565b61226f9190613ab3565b6000918252601860209081526040808420601654855290915290912055565b6000612299826111c4565b90506122a781600084612c2f565b6122b2600083611d19565b6001600160a01b03811660009081526003602052604081208054600192906122db908490613ab3565b909155505060008281526002602052604080822080546001600160a01b0319169055518391906001600160a01b038416907fddf252ad1be2c89b69c2b068fc378daa952ba7f163c4a11628f55a4df523b3ef908390a45050565b6040516001600160a01b0383166024820152604481018290526109ac9084907fa9059cbb00000000000000000000000000000000000000000000000000000000906064015b60408051601f198184030181529190526020810180517bffffffffffffffffffffffffffffffffffffffffffffffffffffffff166001600160e01b031990931692909217909152612d45565b6040516001600160a01b038085166024830152831660448201526064810182905261187c9085907f23b872dd000000000000000000000000000000000000000000000000000000009060840161237a565b6001600160a01b03821661246d5760405162461bcd60e51b815260206004820181905260248201527f4552433732313a206d696e7420746f20746865207a65726f2061646472657373604482015260640161085a565b6000818152600260205260409020546001600160a01b0316156124d25760405162461bcd60e51b815260206004820152601c60248201527f4552433732313a20746f6b656e20616c7265616479206d696e74656400000000604482015260640161085a565b6124de60008383612c2f565b6001600160a01b0382166000908152600360205260408120805460019290612507908490613a68565b909155505060008181526002602052604080822080546001600160a01b0319166001600160a01b03861690811790915590518392907fddf252ad1be2c89b69c2b068fc378daa952ba7f163c4a11628f55a4df523b3ef908290a45050565b816001600160a01b0316836001600160a01b031614156125c75760405162461bcd60e51b815260206004820152601960248201527f4552433732313a20617070726f766520746f2063616c6c657200000000000000604482015260640161085a565b6001600160a01b03838116600081815260056020908152604080832094871680845294825291829020805460ff191686151590811790915591519182527f17307eab39ab6107e8899845ad3d59bd9653f200f220920489ca2b5937696c31910160405180910390a3505050565b61263f848484611efe565b61264b84848484612e2a565b61187c5760405162461bcd60e51b815260206004820152603260248201527f4552433732313a207472616e7366657220746f206e6f6e20455243373231526560448201527f63656976657220696d706c656d656e7465720000000000000000000000000000606482015260840161085a565b6060816126e15750506040805180820190915260018152600360fc1b602082015290565b8160005b811561270b57806126f581613b42565b91506127049050600a83613a80565b91506126e5565b60008167ffffffffffffffff81111561273457634e487b7160e01b600052604160045260246000fd5b6040519080825280601f01601f19166020018201604052801561275e576020820181803683370190505b5090505b8415611ef657612773600183613ab3565b9150612780600a86613b7d565b61278b906030613a68565b60f81b8183815181106127ae57634e487b7160e01b600052603260045260246000fd5b60200101906001600160f81b031916908160001a9053506127d0600a86613a80565b9450612762565b8051606090806127f7575050604080516020810190915260008152919050565b60006003612806836002613a68565b6128109190613a80565b61281b906004613a94565b9050600061282a826020613a68565b67ffffffffffffffff81111561285057634e487b7160e01b600052604160045260246000fd5b6040519080825280601f01601f19166020018201604052801561287a576020820181803683370190505b5090506000604051806060016040528060408152602001613bfb604091399050600181016020830160005b86811015612906576003818a01810151603f601282901c8116860151600c83901c8216870151600684901c831688015192909316870151600891821b60ff94851601821b92841692909201901b91160160e01b8352600490920191016128a5565b506003860660018114612920576002811461294c57612974565b7f3d3d000000000000000000000000000000000000000000000000000000000000600119830152612974565b7f3d000000000000000000000000000000000000000000000000000000000000006000198301525b505050918152949350505050565b60006001600160e01b031982167f80ac58cd0000000000000000000000000000000000000000000000000000000014806129e557506001600160e01b031982167f5b5e139f00000000000000000000000000000000000000000000000000000000145b8061074d57507f01ffc9a7000000000000000000000000000000000000000000000000000000006001600160e01b031983161461074d565b60606000612a2c836002613a94565b612a37906002613a68565b67ffffffffffffffff811115612a5d57634e487b7160e01b600052604160045260246000fd5b6040519080825280601f01601f191660200182016040528015612a87576020820181803683370190505b509050600360fc1b81600081518110612ab057634e487b7160e01b600052603260045260246000fd5b60200101906001600160f81b031916908160001a9053507f780000000000000000000000000000000000000000000000000000000000000081600181518110612b0957634e487b7160e01b600052603260045260246000fd5b60200101906001600160f81b031916908160001a9053506000612b2d846002613a94565b612b38906001613a68565b90505b6001811115612bd9577f303132333435363738396162636465660000000000000000000000000000000085600f1660108110612b8757634e487b7160e01b600052603260045260246000fd5b1a60f81b828281518110612bab57634e487b7160e01b600052603260045260246000fd5b60200101906001600160f81b031916908160001a90535060049490941c93612bd281613af6565b9050612b3b565b508315612c285760405162461bcd60e51b815260206004820181905260248201527f537472696e67733a20686578206c656e67746820696e73756666696369656e74604482015260640161085a565b9392505050565b612c3a838383612f8d565b601a546040517f56d7cc05000000000000000000000000000000000000000000000000000000008152600481018390526001600160a01b0385811660248301528481166044830152909116906356d7cc0590606401600060405180830381600087803b158015612ca957600080fd5b505af1158015612cbd573d6000803e3d6000fd5b50506019546040517f24b621ad000000000000000000000000000000000000000000000000000000008152600481018590526001600160a01b03868116602483015290911692506324b621ad9150604401600060405180830381600087803b158015612d2857600080fd5b505af1158015612d3c573d6000803e3d6000fd5b50505050505050565b6000612d9a826040518060400160405280602081526020017f5361666545524332303a206c6f772d6c6576656c2063616c6c206661696c6564815250856001600160a01b03166130459092919063ffffffff16565b8051909150156109ac5780806020019051810190612db8919061366f565b6109ac5760405162461bcd60e51b815260206004820152602a60248201527f5361666545524332303a204552433230206f7065726174696f6e20646964206e60448201527f6f74207375636365656400000000000000000000000000000000000000000000606482015260840161085a565b60006001600160a01b0384163b15612f8257604051630a85bd0160e11b81526001600160a01b0385169063150b7a0290612e6e903390899088908890600401613a23565b602060405180830381600087803b158015612e8857600080fd5b505af1925050508015612eb8575060408051601f3d908101601f19168201909252612eb5918101906136e1565b60015b612f68573d808015612ee6576040519150601f19603f3d011682016040523d82523d6000602084013e612eeb565b606091505b508051612f605760405162461bcd60e51b815260206004820152603260248201527f4552433732313a207472616e7366657220746f206e6f6e20455243373231526560448201527f63656976657220696d706c656d656e7465720000000000000000000000000000606482015260840161085a565b805181602001fd5b6001600160e01b031916630a85bd0160e11b149050611ef6565b506001949350505050565b6001600160a01b038316612fe857612fe381600880546000838152600960205260408120829055600182018355919091527ff3f7a9fe364faab93b216da50a3214154f22a0a2b415b23a84c8169e8b636ee30155565b61300b565b816001600160a01b0316836001600160a01b03161461300b5761300b8382613054565b6001600160a01b038216613022576109ac816130f1565b826001600160a01b0316826001600160a01b0316146109ac576109ac82826131ca565b6060611ef6848460008561320e565b600060016130618461126e565b61306b9190613ab3565b6000838152600760205260409020549091508082146130be576001600160a01b03841660009081526006602090815260408083208584528252808320548484528184208190558352600790915290208190555b5060009182526007602090815260408084208490556001600160a01b039094168352600681528383209183525290812055565b60085460009061310390600190613ab3565b6000838152600960205260408120546008805493945090928490811061313957634e487b7160e01b600052603260045260246000fd5b90600052602060002001549050806008838154811061316857634e487b7160e01b600052603260045260246000fd5b60009182526020808320909101929092558281526009909152604080822084905585825281205560088054806131ae57634e487b7160e01b600052603160045260246000fd5b6001900381819060005260206000200160009055905550505050565b60006131d58361126e565b6001600160a01b039093166000908152600660209081526040808320868452825280832085905593825260079052919091209190915550565b6060824710156132865760405162461bcd60e51b815260206004820152602660248201527f416464726573733a20696e73756666696369656e742062616c616e636520666f60448201527f722063616c6c0000000000000000000000000000000000000000000000000000606482015260840161085a565b843b6132d45760405162461bcd60e51b815260206004820152601d60248201527f416464726573733a2063616c6c20746f206e6f6e2d636f6e7472616374000000604482015260640161085a565b600080866001600160a01b031685876040516132f09190613801565b60006040518083038185875af1925050503d806000811461332d576040519150601f19603f3d011682016040523d82523d6000602084013e613332565b606091505b509150915061334282828661334d565b979650505050505050565b6060831561335c575081612c28565b82511561336c5782518084602001fd5b8160405162461bcd60e51b815260040161085a9190613a55565b82805461339290613b0d565b90600052602060002090601f0160209004810192826133b457600085556133fa565b82601f106133cd57805160ff19168380011785556133fa565b828001600101855582156133fa579182015b828111156133fa5782518255916020019190600101906133df565b5061340692915061340a565b5090565b5b80821115613406576000815560010161340b565b600067ffffffffffffffff8084111561343a5761343a613bbd565b604051601f8501601f19908116603f0116810190828211818310171561346257613462613bbd565b8160405280935085815286868601111561347b57600080fd5b858560208301376000602087830101525050509392505050565b80356001600160a01b03811681146134ac57600080fd5b919050565b803560ff811681146134ac57600080fd5b6000602082840312156134d3578081fd5b612c2882613495565b600080604083850312156134ee578081fd5b6134f783613495565b915061350560208401613495565b90509250929050565b600080600060608486031215613522578081fd5b61352b84613495565b925061353960208501613495565b9150604084013590509250925092565b6000806000806080858703121561355e578081fd5b61356785613495565b935061357560208601613495565b925060408501359150606085013567ffffffffffffffff811115613597578182fd5b8501601f810187136135a7578182fd5b6135b68782356020840161341f565b91505092959194509250565b600080604083850312156135d4578182fd5b6135dd83613495565b915060208301356135ed81613bd3565b809150509250929050565b6000806040838503121561360a578182fd5b61361383613495565b946020939093013593505050565b60008060008060808587031215613636578384fd5b61363f85613495565b935060208501359250613654604086016134b1565b9150606085013561366481613bd3565b939692955090935050565b600060208284031215613680578081fd5b8151612c2881613bd3565b60006020828403121561369c578081fd5b5035919050565b600080604083850312156136b5578182fd5b8235915061350560208401613495565b6000602082840312156136d6578081fd5b8135612c2881613be4565b6000602082840312156136f2578081fd5b8151612c2881613be4565b60006020828403121561370e578081fd5b813567ffffffffffffffff811115613724578182fd5b8201601f81018413613734578182fd5b611ef68482356020840161341f565b600060208284031215613754578081fd5b5051919050565b6000806040838503121561376d578182fd5b50508035926020909101359150565b6000806040838503121561378e578182fd5b505080516020909101519092909150565b6000602082840312156137b0578081fd5b612c28826134b1565b600081518084526137d1816020860160208601613aca565b601f01601f19169290920160200192915050565b600081516137f7818560208601613aca565b9290920192915050565b60008251613813818460208701613aca565b9190910192915050565b7f646174613a6170706c69636174696f6e2f6a736f6e3b6261736536342c00000081526000825161385581601d850160208701613aca565b91909101601d0192915050565b7f416363657373436f6e74726f6c3a206163636f756e742000000000000000000081526000835161389a816017850160208801613aca565b7f206973206d697373696e6720726f6c652000000000000000000000000000000060179184019182015283516138d7816028840160208801613aca565b01602801949350505050565b7f7b226e616d65223a225061737369766520496e636f6d65204e46542028332c338152600060207f292b222c226465736372697074696f6e223a22222c2261747472696275746573818401527f223a22222c22696d616765223a220000000000000000000000000000000000006040840152604e82865484600182811c91508083168061397157607f831692505b86831081141561398f57634e487b7160e01b88526022600452602488fd5b8080156139a357600181146139b8576139e8565b60ff1985168a880152838a01870195506139e8565b60008c815260209020895b858110156139de5781548c82018a01529084019089016139c3565b505086848b010195505b50505050506133426139fa82886137e5565b7f227d000000000000000000000000000000000000000000000000000000000000815260020190565b60006001600160a01b03808716835280861660208401525083604083015260806060830152611c4a60808301846137b9565b602081526000612c2860208301846137b9565b60008219821115613a7b57613a7b613b91565b500190565b600082613a8f57613a8f613ba7565b500490565b6000816000190483118215151615613aae57613aae613b91565b500290565b600082821015613ac557613ac5613b91565b500390565b60005b83811015613ae5578181015183820152602001613acd565b8381111561187c5750506000910152565b600081613b0557613b05613b91565b506000190190565b600181811c90821680613b2157607f821691505b602082108114156117bf57634e487b7160e01b600052602260045260246000fd5b6000600019821415613b5657613b56613b91565b5060010190565b600060ff821660ff811415613b7457613b74613b91565b60010192915050565b600082613b8c57613b8c613ba7565b500690565b634e487b7160e01b600052601160045260246000fd5b634e487b7160e01b600052601260045260246000fd5b634e487b7160e01b600052604160045260246000fd5b8015158114613be157600080fd5b50565b6001600160e01b031981168114613be157600080fdfe4142434445464748494a4b4c4d4e4f505152535455565758595a6162636465666768696a6b6c6d6e6f707172737475767778797a303132333435363738392b2fa2646970667358221220a1d2a347a8e3306c33d73d2a954d33e61ffa93202ccb66a38eabaf98a37e671a64736f6c63430008040033",
  "devdoc": {
    "kind": "dev",
    "methods": {
      "approve(address,uint256)": {
        "details": "See {IERC721-approve}."
      },
      "balanceOf(address)": {
        "details": "See {IERC721-balanceOf}."
      },
      "getApproved(uint256)": {
        "details": "See {IERC721-getApproved}."
      },
      "getRoleAdmin(bytes32)": {
        "details": "Returns the admin role that controls `role`. See {grantRole} and {revokeRole}. To change a role's admin, use {_setRoleAdmin}."
      },
      "grantRole(bytes32,address)": {
        "details": "Grants `role` to `account`. If `account` had not been already granted `role`, emits a {RoleGranted} event. Requirements: - the caller must have ``role``'s admin role."
      },
      "hasRole(bytes32,address)": {
        "details": "Returns `true` if `account` has been granted `role`."
      },
      "isApprovedForAll(address,address)": {
        "details": "See {IERC721-isApprovedForAll}."
      },
      "name()": {
        "details": "See {IERC721Metadata-name}."
      },
      "ownerOf(uint256)": {
        "details": "See {IERC721-ownerOf}."
      },
      "renounceRole(bytes32,address)": {
        "details": "Revokes `role` from the calling account. Roles are often managed via {grantRole} and {revokeRole}: this function's purpose is to provide a mechanism for accounts to lose their privileges if they are compromised (such as when a trusted device is misplaced). If the calling account had been revoked `role`, emits a {RoleRevoked} event. Requirements: - the caller must be `account`."
      },
      "revokeRole(bytes32,address)": {
        "details": "Revokes `role` from `account`. If `account` had been granted `role`, emits a {RoleRevoked} event. Requirements: - the caller must have ``role``'s admin role."
      },
      "safeTransferFrom(address,address,uint256)": {
        "details": "See {IERC721-safeTransferFrom}."
      },
      "safeTransferFrom(address,address,uint256,bytes)": {
        "details": "See {IERC721-safeTransferFrom}."
      },
      "setApprovalForAll(address,bool)": {
        "details": "See {IERC721-setApprovalForAll}."
      },
      "symbol()": {
        "details": "See {IERC721Metadata-symbol}."
      },
      "tokenByIndex(uint256)": {
        "details": "See {IERC721Enumerable-tokenByIndex}."
      },
      "tokenOfOwnerByIndex(address,uint256)": {
        "details": "See {IERC721Enumerable-tokenOfOwnerByIndex}."
      },
      "tokenURI(uint256)": {
        "details": "See {IERC721Metadata-tokenURI}."
      },
      "totalSupply()": {
        "details": "See {IERC721Enumerable-totalSupply}."
      },
      "transferFrom(address,address,uint256)": {
        "details": "See {IERC721-transferFrom}."
      }
    },
    "version": 1
  },
  "userdoc": {
    "kind": "user",
    "methods": {},
    "version": 1
  },
  "storageLayout": {
    "storage": [
      {
        "astId": 1487,
        "contract": "contracts/PassiveIncomeNFT.sol:PassiveIncomeNFT",
        "label": "_name",
        "offset": 0,
        "slot": "0",
        "type": "t_string_storage"
      },
      {
        "astId": 1489,
        "contract": "contracts/PassiveIncomeNFT.sol:PassiveIncomeNFT",
        "label": "_symbol",
        "offset": 0,
        "slot": "1",
        "type": "t_string_storage"
      },
      {
        "astId": 1493,
        "contract": "contracts/PassiveIncomeNFT.sol:PassiveIncomeNFT",
        "label": "_owners",
        "offset": 0,
        "slot": "2",
        "type": "t_mapping(t_uint256,t_address)"
      },
      {
        "astId": 1497,
        "contract": "contracts/PassiveIncomeNFT.sol:PassiveIncomeNFT",
        "label": "_balances",
        "offset": 0,
        "slot": "3",
        "type": "t_mapping(t_address,t_uint256)"
      },
      {
        "astId": 1501,
        "contract": "contracts/PassiveIncomeNFT.sol:PassiveIncomeNFT",
        "label": "_tokenApprovals",
        "offset": 0,
        "slot": "4",
        "type": "t_mapping(t_uint256,t_address)"
      },
      {
        "astId": 1507,
        "contract": "contracts/PassiveIncomeNFT.sol:PassiveIncomeNFT",
        "label": "_operatorApprovals",
        "offset": 0,
        "slot": "5",
        "type": "t_mapping(t_address,t_mapping(t_address,t_bool))"
      },
      {
        "astId": 2441,
        "contract": "contracts/PassiveIncomeNFT.sol:PassiveIncomeNFT",
        "label": "_ownedTokens",
        "offset": 0,
        "slot": "6",
        "type": "t_mapping(t_address,t_mapping(t_uint256,t_uint256))"
      },
      {
        "astId": 2445,
        "contract": "contracts/PassiveIncomeNFT.sol:PassiveIncomeNFT",
        "label": "_ownedTokensIndex",
        "offset": 0,
        "slot": "7",
        "type": "t_mapping(t_uint256,t_uint256)"
      },
      {
        "astId": 2448,
        "contract": "contracts/PassiveIncomeNFT.sol:PassiveIncomeNFT",
        "label": "_allTokens",
        "offset": 0,
        "slot": "8",
        "type": "t_array(t_uint256)dyn_storage"
      },
      {
        "astId": 2452,
        "contract": "contracts/PassiveIncomeNFT.sol:PassiveIncomeNFT",
        "label": "_allTokensIndex",
        "offset": 0,
        "slot": "9",
        "type": "t_mapping(t_uint256,t_uint256)"
      },
      {
        "astId": 24,
        "contract": "contracts/PassiveIncomeNFT.sol:PassiveIncomeNFT",
        "label": "_roles",
        "offset": 0,
        "slot": "10",
        "type": "t_mapping(t_bytes32,t_struct(RoleData)19_storage)"
      },
      {
        "astId": 5300,
        "contract": "contracts/PassiveIncomeNFT.sol:PassiveIncomeNFT",
        "label": "locks",
        "offset": 0,
        "slot": "11",
        "type": "t_mapping(t_uint256,t_struct(Lock)5291_storage)"
      },
      {
        "astId": 5302,
        "contract": "contracts/PassiveIncomeNFT.sol:PassiveIncomeNFT",
        "label": "maxLockDuration",
        "offset": 0,
        "slot": "12",
        "type": "t_uint8"
      },
      {
        "astId": 5304,
        "contract": "contracts/PassiveIncomeNFT.sol:PassiveIncomeNFT",
        "label": "totalLocked",
        "offset": 0,
        "slot": "13",
        "type": "t_uint256"
      },
      {
        "astId": 5306,
        "contract": "contracts/PassiveIncomeNFT.sol:PassiveIncomeNFT",
        "label": "totalClaimed",
        "offset": 0,
        "slot": "14",
        "type": "t_uint256"
      },
      {
        "astId": 5308,
        "contract": "contracts/PassiveIncomeNFT.sol:PassiveIncomeNFT",
        "label": "_currentMaxPayout",
        "offset": 0,
        "slot": "15",
        "type": "t_uint256"
      },
      {
        "astId": 5310,
        "contract": "contracts/PassiveIncomeNFT.sol:PassiveIncomeNFT",
        "label": "piTOKEN",
        "offset": 0,
        "slot": "16",
        "type": "t_address"
      },
      {
        "astId": 5313,
        "contract": "contracts/PassiveIncomeNFT.sol:PassiveIncomeNFT",
        "label": "piCALCULATOR",
        "offset": 0,
        "slot": "17",
        "type": "t_contract(IPassiveIncomeCalculator)4893"
      },
      {
        "astId": 5315,
        "contract": "contracts/PassiveIncomeNFT.sol:PassiveIncomeNFT",
        "label": "_piTokenBalance",
        "offset": 0,
        "slot": "18",
        "type": "t_uint256"
      },
      {
        "astId": 5317,
        "contract": "contracts/PassiveIncomeNFT.sol:PassiveIncomeNFT",
        "label": "_tokenIds",
        "offset": 0,
        "slot": "19",
        "type": "t_uint256"
      },
      {
        "astId": 5319,
        "contract": "contracts/PassiveIncomeNFT.sol:PassiveIncomeNFT",
        "label": "_imageBaseURI",
        "offset": 0,
        "slot": "20",
        "type": "t_string_storage"
      },
      {
        "astId": 5323,
        "contract": "contracts/PassiveIncomeNFT.sol:PassiveIncomeNFT",
        "label": "_lockDurations",
        "offset": 0,
        "slot": "21",
        "type": "t_mapping(t_uint8,t_uint256)"
      },
      {
        "astId": 5325,
        "contract": "contracts/PassiveIncomeNFT.sol:PassiveIncomeNFT",
        "label": "_currentSnapshot",
        "offset": 0,
        "slot": "22",
        "type": "t_uint256"
      },
      {
        "astId": 5329,
        "contract": "contracts/PassiveIncomeNFT.sol:PassiveIncomeNFT",
        "label": "_previousSnapshot",
        "offset": 0,
        "slot": "23",
        "type": "t_mapping(t_uint256,t_uint256)"
      },
      {
        "astId": 5335,
        "contract": "contracts/PassiveIncomeNFT.sol:PassiveIncomeNFT",
        "label": "_snapshotOfAt",
        "offset": 0,
        "slot": "24",
        "type": "t_mapping(t_uint256,t_mapping(t_uint256,t_uint256))"
      },
      {
        "astId": 5338,
        "contract": "contracts/PassiveIncomeNFT.sol:PassiveIncomeNFT",
        "label": "revenueShare",
        "offset": 0,
        "slot": "25",
        "type": "t_contract(RevenueShare)7045"
      },
      {
        "astId": 5341,
        "contract": "contracts/PassiveIncomeNFT.sol:PassiveIncomeNFT",
        "label": "marketplace",
        "offset": 0,
        "slot": "26",
        "type": "t_contract(IMarketplace)6987"
      }
    ],
    "types": {
      "t_address": {
        "encoding": "inplace",
        "label": "address",
        "numberOfBytes": "20"
      },
      "t_array(t_uint256)dyn_storage": {
        "base": "t_uint256",
        "encoding": "dynamic_array",
        "label": "uint256[]",
        "numberOfBytes": "32"
      },
      "t_bool": {
        "encoding": "inplace",
        "label": "bool",
        "numberOfBytes": "1"
      },
      "t_bytes32": {
        "encoding": "inplace",
        "label": "bytes32",
        "numberOfBytes": "32"
      },
      "t_contract(IMarketplace)6987": {
        "encoding": "inplace",
        "label": "contract IMarketplace",
        "numberOfBytes": "20"
      },
      "t_contract(IPassiveIncomeCalculator)4893": {
        "encoding": "inplace",
        "label": "contract IPassiveIncomeCalculator",
        "numberOfBytes": "20"
      },
      "t_contract(RevenueShare)7045": {
        "encoding": "inplace",
        "label": "contract RevenueShare",
        "numberOfBytes": "20"
      },
      "t_mapping(t_address,t_bool)": {
        "encoding": "mapping",
        "key": "t_address",
        "label": "mapping(address => bool)",
        "numberOfBytes": "32",
        "value": "t_bool"
      },
      "t_mapping(t_address,t_mapping(t_address,t_bool))": {
        "encoding": "mapping",
        "key": "t_address",
        "label": "mapping(address => mapping(address => bool))",
        "numberOfBytes": "32",
        "value": "t_mapping(t_address,t_bool)"
      },
      "t_mapping(t_address,t_mapping(t_uint256,t_uint256))": {
        "encoding": "mapping",
        "key": "t_address",
        "label": "mapping(address => mapping(uint256 => uint256))",
        "numberOfBytes": "32",
        "value": "t_mapping(t_uint256,t_uint256)"
      },
      "t_mapping(t_address,t_uint256)": {
        "encoding": "mapping",
        "key": "t_address",
        "label": "mapping(address => uint256)",
        "numberOfBytes": "32",
        "value": "t_uint256"
      },
      "t_mapping(t_bytes32,t_struct(RoleData)19_storage)": {
        "encoding": "mapping",
        "key": "t_bytes32",
        "label": "mapping(bytes32 => struct AccessControl.RoleData)",
        "numberOfBytes": "32",
        "value": "t_struct(RoleData)19_storage"
      },
      "t_mapping(t_uint256,t_address)": {
        "encoding": "mapping",
        "key": "t_uint256",
        "label": "mapping(uint256 => address)",
        "numberOfBytes": "32",
        "value": "t_address"
      },
      "t_mapping(t_uint256,t_mapping(t_uint256,t_uint256))": {
        "encoding": "mapping",
        "key": "t_uint256",
        "label": "mapping(uint256 => mapping(uint256 => uint256))",
        "numberOfBytes": "32",
        "value": "t_mapping(t_uint256,t_uint256)"
      },
      "t_mapping(t_uint256,t_struct(Lock)5291_storage)": {
        "encoding": "mapping",
        "key": "t_uint256",
        "label": "mapping(uint256 => struct PassiveIncomeNFT.Lock)",
        "numberOfBytes": "32",
        "value": "t_struct(Lock)5291_storage"
      },
      "t_mapping(t_uint256,t_uint256)": {
        "encoding": "mapping",
        "key": "t_uint256",
        "label": "mapping(uint256 => uint256)",
        "numberOfBytes": "32",
        "value": "t_uint256"
      },
      "t_mapping(t_uint8,t_uint256)": {
        "encoding": "mapping",
        "key": "t_uint8",
        "label": "mapping(uint8 => uint256)",
        "numberOfBytes": "32",
        "value": "t_uint256"
      },
      "t_string_storage": {
        "encoding": "bytes",
        "label": "string",
        "numberOfBytes": "32"
      },
      "t_struct(Lock)5291_storage": {
        "encoding": "inplace",
        "label": "struct PassiveIncomeNFT.Lock",
        "members": [
          {
            "astId": 5280,
            "contract": "contracts/PassiveIncomeNFT.sol:PassiveIncomeNFT",
            "label": "startTime",
            "offset": 0,
            "slot": "0",
            "type": "t_uint256"
          },
          {
            "astId": 5282,
            "contract": "contracts/PassiveIncomeNFT.sol:PassiveIncomeNFT",
            "label": "endTime",
            "offset": 0,
            "slot": "1",
            "type": "t_uint256"
          },
          {
            "astId": 5284,
            "contract": "contracts/PassiveIncomeNFT.sol:PassiveIncomeNFT",
            "label": "lockedAmount",
            "offset": 0,
            "slot": "2",
            "type": "t_uint256"
          },
          {
            "astId": 5286,
            "contract": "contracts/PassiveIncomeNFT.sol:PassiveIncomeNFT",
            "label": "multiplier",
            "offset": 0,
            "slot": "3",
            "type": "t_uint256"
          },
          {
            "astId": 5288,
            "contract": "contracts/PassiveIncomeNFT.sol:PassiveIncomeNFT",
            "label": "claimed",
            "offset": 0,
            "slot": "4",
            "type": "t_uint256"
          },
          {
            "astId": 5290,
            "contract": "contracts/PassiveIncomeNFT.sol:PassiveIncomeNFT",
            "label": "maxPayout",
            "offset": 0,
            "slot": "5",
            "type": "t_uint256"
          }
        ],
        "numberOfBytes": "192"
      },
      "t_struct(RoleData)19_storage": {
        "encoding": "inplace",
        "label": "struct AccessControl.RoleData",
        "members": [
          {
            "astId": 16,
            "contract": "contracts/PassiveIncomeNFT.sol:PassiveIncomeNFT",
            "label": "members",
            "offset": 0,
            "slot": "0",
            "type": "t_mapping(t_address,t_bool)"
          },
          {
            "astId": 18,
            "contract": "contracts/PassiveIncomeNFT.sol:PassiveIncomeNFT",
            "label": "adminRole",
            "offset": 0,
            "slot": "1",
            "type": "t_bytes32"
          }
        ],
        "numberOfBytes": "64"
      },
      "t_uint256": {
        "encoding": "inplace",
        "label": "uint256",
        "numberOfBytes": "32"
      },
      "t_uint8": {
        "encoding": "inplace",
        "label": "uint8",
        "numberOfBytes": "1"
      }
    }
  }
}