{
  "address": "0xA51c1fc2f0D1a1b8494Ed1FE312d7C3a78Ed91C0",
  "abi": [
    {
      "inputs": [
        {
          "internalType": "address",
          "name": "nidhiNFT_",
          "type": "address"
        },
        {
          "internalType": "address",
          "name": "nidhiLegacyNFT_",
          "type": "address"
        },
        {
          "internalType": "address",
          "name": "tangibleNFT",
          "type": "address"
        },
        {
          "internalType": "address",
          "name": "tokenSwapContractAddress",
          "type": "address"
        },
        {
          "internalType": "address",
          "name": "stakingContractAddress",
          "type": "address"
        },
        {
          "internalType": "address",
          "name": "stakingTokenContractAddress",
          "type": "address"
        }
      ],
      "stateMutability": "nonpayable",
      "type": "constructor"
    },
    {
      "anonymous": false,
      "inputs": [
        {
          "indexed": true,
          "internalType": "address",
          "name": "previousOwner",
          "type": "address"
        },
        {
          "indexed": true,
          "internalType": "address",
          "name": "newOwner",
          "type": "address"
        }
      ],
      "name": "OwnershipTransferred",
      "type": "event"
    },
    {
      "inputs": [],
      "name": "nidhiLegacyNFT",
      "outputs": [
        {
          "internalType": "contract NidhiLegacyNFT",
          "name": "",
          "type": "address"
        }
      ],
      "stateMutability": "view",
      "type": "function"
    },
    {
      "inputs": [],
      "name": "nidhiNFT",
      "outputs": [
        {
          "internalType": "contract NidhiNFT",
          "name": "",
          "type": "address"
        }
      ],
      "stateMutability": "view",
      "type": "function"
    },
    {
      "inputs": [],
      "name": "owner",
      "outputs": [
        {
          "internalType": "address",
          "name": "",
          "type": "address"
        }
      ],
      "stateMutability": "view",
      "type": "function"
    },
    {
      "inputs": [],
      "name": "passiveIncomeNFT",
      "outputs": [
        {
          "internalType": "contract PassiveIncomeNFT",
          "name": "",
          "type": "address"
        }
      ],
      "stateMutability": "view",
      "type": "function"
    },
    {
      "inputs": [],
      "name": "renounceOwnership",
      "outputs": [],
      "stateMutability": "nonpayable",
      "type": "function"
    },
    {
      "inputs": [],
      "name": "staking",
      "outputs": [
        {
          "internalType": "contract Staking",
          "name": "",
          "type": "address"
        }
      ],
      "stateMutability": "view",
      "type": "function"
    },
    {
      "inputs": [],
      "name": "stakingToken",
      "outputs": [
        {
          "internalType": "contract IERC20",
          "name": "",
          "type": "address"
        }
      ],
      "stateMutability": "view",
      "type": "function"
    },
    {
      "inputs": [
        {
          "internalType": "uint256",
          "name": "tokenId",
          "type": "uint256"
        },
        {
          "internalType": "uint8",
          "name": "lockDurationInMonths",
          "type": "uint8"
        }
      ],
      "name": "swap",
      "outputs": [],
      "stateMutability": "nonpayable",
      "type": "function"
    },
    {
      "inputs": [
        {
          "internalType": "uint256",
          "name": "amountIn",
          "type": "uint256"
        },
        {
          "internalType": "uint8",
          "name": "lockDurationInMonths",
          "type": "uint8"
        }
      ],
      "name": "swapGURU",
      "outputs": [],
      "stateMutability": "nonpayable",
      "type": "function"
    },
    {
      "inputs": [],
      "name": "tokenSwap",
      "outputs": [
        {
          "internalType": "contract TangibleTokenSwap",
          "name": "",
          "type": "address"
        }
      ],
      "stateMutability": "view",
      "type": "function"
    },
    {
      "inputs": [
        {
          "internalType": "address",
          "name": "newOwner",
          "type": "address"
        }
      ],
      "name": "transferOwnership",
      "outputs": [],
      "stateMutability": "nonpayable",
      "type": "function"
    }
  ],
  "transactionHash": "0x66ba458980da38de828c61e1d6c198023c126a6c759d019f15cac8fa4fe92190",
  "args": [
    "0xb7bB6098779A47d1Ea8e568E35381696D9d781C9",
    "0xB7f8BC63BbcaD18155201308C8f3540b07f84F5e",
    "0x0165878A594ca255338adfa4d48449f69242Eb8F",
    "0x9fE46736679d2D9a65F0992F2272dE9f3c7fa6e0",
    "0xf7552ecff8f6D58d3762876d886A581c0f275968",
    "0x7F244A5DA32D3C1727e604Cb16554bFae89579A8"
  ],
  "numDeployments": 1,
  "solcInputHash": "8c67182d4eb06597fb18fa6e651d2c89",
  "bytecode": "0x6101406040523480156200001257600080fd5b50604051620014b4380380620014b48339810160408190526200003591620000ee565b620000403362000081565b6001600160601b0319606096871b811660805294861b851660a05292851b841660c05290841b831660e052831b82166101005290911b16610120526200016e565b600080546001600160a01b038381166001600160a01b0319831681178455604051919092169283917f8be0079c531659141344cd1fd0a4f28419497f9722a3daafe3b4186f6b6457e09190a35050565b80516001600160a01b0381168114620000e957600080fd5b919050565b60008060008060008060c0878903121562000107578182fd5b6200011287620000d1565b95506200012260208801620000d1565b94506200013260408801620000d1565b93506200014260608801620000d1565b92506200015260808801620000d1565b91506200016260a08801620000d1565b90509295509295509295565b60805160601c60a05160601c60c05160601c60e05160601c6101005160601c6101205160601c6112676200024d6000396000818161015a01528181610afc0152610bbf01526000818160d301528181610b8d01528181610c6c0152610d040152600081816101920152818161022c0152818161035c015281816104010152818161048f01528181610d6e01528181610e140152610eba01526000818161012b0152818161053501526106080152600081816101b9015261087201526000818161020601528181610721015281816107b6015261090701526112676000f3fe608060405234801561001057600080fd5b50600436106100c95760003560e01c80638da5cb5b11610081578063eeee00d31161005b578063eeee00d3146101db578063f2fde38b146101ee578063fa9e84a61461020157600080fd5b80638da5cb5b1461017c5780639653dee51461018d578063c31db5c8146101b457600080fd5b806366f5fdd4116100b257806366f5fdd414610126578063715018a61461014d57806372f702f31461015557600080fd5b80634cf088d9146100ce5780635ca0416c14610111575b600080fd5b6100f57f000000000000000000000000000000000000000000000000000000000000000081565b6040516001600160a01b03909116815260200160405180910390f35b61012461011f366004611121565b610228565b005b6100f57f000000000000000000000000000000000000000000000000000000000000000081565b610124610694565b6100f57f000000000000000000000000000000000000000000000000000000000000000081565b6000546001600160a01b03166100f5565b6100f57f000000000000000000000000000000000000000000000000000000000000000081565b6100f57f000000000000000000000000000000000000000000000000000000000000000081565b6101246101e9366004611121565b6106ff565b6101246101fc366004610fcb565b610977565b6100f57f000000000000000000000000000000000000000000000000000000000000000081565b60007f00000000000000000000000000000000000000000000000000000000000000006001600160a01b031663ff402d236040518163ffffffff1660e01b815260040160206040518083038186803b15801561028357600080fd5b505afa158015610297573d6000803e3d6000fd5b505050506040513d601f19601f820116820180604052508101906102bb9190610fee565b6040516323b872dd60e01b8152336004820152306024820152604481018590529091506001600160a01b038216906323b872dd90606401602060405180830381600087803b15801561030c57600080fd5b505af1158015610320573d6000803e3d6000fd5b505050506040513d601f19601f82011682018060405250810190610344919061100a565b5060405163095ea7b360e01b81526001600160a01b037f0000000000000000000000000000000000000000000000000000000000000000811660048301526024820185905282169063095ea7b390604401602060405180830381600087803b1580156103af57600080fd5b505af11580156103c3573d6000803e3d6000fd5b505050506040513d601f19601f820116820180604052508101906103e7919061100a565b50604051634a5c8c6f60e11b8152600481018490526000907f00000000000000000000000000000000000000000000000000000000000000006001600160a01b0316906394b918de90602401602060405180830381600087803b15801561044d57600080fd5b505af1158015610461573d6000803e3d6000fd5b505050506040513d601f19601f820116820180604052508101906104859190611109565b9050801561068e577f00000000000000000000000000000000000000000000000000000000000000006001600160a01b031663f973d68f6040518163ffffffff1660e01b815260040160206040518083038186803b1580156104e657600080fd5b505afa1580156104fa573d6000803e3d6000fd5b505050506040513d601f19601f8201168201806040525081019061051e9190610fee565b60405163095ea7b360e01b81526001600160a01b037f00000000000000000000000000000000000000000000000000000000000000008116600483015260248201849052919091169063095ea7b390604401602060405180830381600087803b15801561058a57600080fd5b505af115801561059e573d6000803e3d6000fd5b505050506040513d601f19601f820116820180604052508101906105c2919061100a565b506040517f843edd3c0000000000000000000000000000000000000000000000000000000081523360048201526024810182905260ff84166044820152600060648201527f00000000000000000000000000000000000000000000000000000000000000006001600160a01b03169063843edd3c90608401602060405180830381600087803b15801561065457600080fd5b505af1158015610668573d6000803e3d6000fd5b505050506040513d601f19601f8201168201806040525081019061068c9190611109565b505b50505050565b6000546001600160a01b031633146106f35760405162461bcd60e51b815260206004820181905260248201527f4f776e61626c653a2063616c6c6572206973206e6f7420746865206f776e657260448201526064015b60405180910390fd5b6106fd6000610a59565b565b6040516323b872dd60e01b8152336004820152306024820152604481018390527f00000000000000000000000000000000000000000000000000000000000000006001600160a01b0316906323b872dd90606401600060405180830381600087803b15801561076d57600080fd5b505af1158015610781573d6000803e3d6000fd5b50506040517fe3684e3900000000000000000000000000000000000000000000000000000000815260048101859052600092507f00000000000000000000000000000000000000000000000000000000000000006001600160a01b0316915063e3684e399060240160006040518083038186803b15801561080157600080fd5b505afa158015610815573d6000803e3d6000fd5b505050506040513d6000823e601f3d908101601f1916820160405261083d919081019061102a565b80516040517fd0def5210000000000000000000000000000000000000000000000000000000081529192506001600160a01b037f0000000000000000000000000000000000000000000000000000000000000000169163d0def521916108a891339190600401611155565b600060405180830381600087803b1580156108c257600080fd5b505af11580156108d6573d6000803e3d6000fd5b50506040517f42966c68000000000000000000000000000000000000000000000000000000008152600481018690527f00000000000000000000000000000000000000000000000000000000000000006001600160a01b031692506342966c689150602401600060405180830381600087803b15801561095557600080fd5b505af1158015610969573d6000803e3d6000fd5b505050506000610485610ac1565b6000546001600160a01b031633146109d15760405162461bcd60e51b815260206004820181905260248201527f4f776e61626c653a2063616c6c6572206973206e6f7420746865206f776e657260448201526064016106ea565b6001600160a01b038116610a4d5760405162461bcd60e51b815260206004820152602660248201527f4f776e61626c653a206e6577206f776e657220697320746865207a65726f206160448201527f646472657373000000000000000000000000000000000000000000000000000060648201526084016106ea565b610a5681610a59565b50565b600080546001600160a01b038381167fffffffffffffffffffffffff0000000000000000000000000000000000000000831681178455604051919092169283917f8be0079c531659141344cd1fd0a4f28419497f9722a3daafe3b4186f6b6457e09190a35050565b6040517f70a0823100000000000000000000000000000000000000000000000000000000815230600482015260009081906001600160a01b037f000000000000000000000000000000000000000000000000000000000000000016906370a082319060240160206040518083038186803b158015610b3e57600080fd5b505afa158015610b52573d6000803e3d6000fd5b505050506040513d601f19601f82011682018060405250810190610b769190611109565b60405163095ea7b360e01b81526001600160a01b037f000000000000000000000000000000000000000000000000000000000000000081166004830152602482018390529192507f00000000000000000000000000000000000000000000000000000000000000009091169063095ea7b390604401602060405180830381600087803b158015610c0557600080fd5b505af1158015610c19573d6000803e3d6000fd5b505050506040513d601f19601f82011682018060405250810190610c3d919061100a565b506040517f1e83409a0000000000000000000000000000000000000000000000000000000081523060048201527f00000000000000000000000000000000000000000000000000000000000000006001600160a01b031690631e83409a90602401600060405180830381600087803b158015610cb857600080fd5b505af1158015610ccc573d6000803e3d6000fd5b50506040517f9ebea88c00000000000000000000000000000000000000000000000000000000815260048101849052600060248201527f00000000000000000000000000000000000000000000000000000000000000006001600160a01b03169250639ebea88c9150604401600060405180830381600087803b158015610d5257600080fd5b505af1158015610d66573d6000803e3d6000fd5b5050505060007f00000000000000000000000000000000000000000000000000000000000000006001600160a01b031663ff402d236040518163ffffffff1660e01b815260040160206040518083038186803b158015610dc557600080fd5b505afa158015610dd9573d6000803e3d6000fd5b505050506040513d601f19601f82011682018060405250810190610dfd9190610fee565b60405163095ea7b360e01b81526001600160a01b037f000000000000000000000000000000000000000000000000000000000000000081166004830152602482018590529192509082169063095ea7b390604401602060405180830381600087803b158015610e6b57600080fd5b505af1158015610e7f573d6000803e3d6000fd5b505050506040513d601f19601f82011682018060405250810190610ea3919061100a565b50604051634a5c8c6f60e11b8152600481018390527f00000000000000000000000000000000000000000000000000000000000000006001600160a01b0316906394b918de90602401602060405180830381600087803b158015610f0657600080fd5b505af1158015610f1a573d6000803e3d6000fd5b505050506040513d601f19601f82011682018060405250810190610f3e9190611109565b9250505090565b600082601f830112610f55578081fd5b815167ffffffffffffffff80821115610f7057610f706111ed565b604051601f8301601f19908116603f01168101908282118183101715610f9857610f986111ed565b81604052838152866020858801011115610fb0578485fd5b610fc18460208301602089016111c1565b9695505050505050565b600060208284031215610fdc578081fd5b8135610fe78161121c565b9392505050565b600060208284031215610fff578081fd5b8151610fe78161121c565b60006020828403121561101b578081fd5b81518015158114610fe7578182fd5b60006020828403121561103b578081fd5b815167ffffffffffffffff80821115611052578283fd5b9083019060a08286031215611065578283fd5b61106d611198565b82518281111561107b578485fd5b61108787828601610f45565b82525060208301518281111561109b578485fd5b6110a787828601610f45565b6020830152506040830151828111156110be578485fd5b6110ca87828601610f45565b6040830152506060830151828111156110e1578485fd5b6110ed87828601610f45565b6060830152506080830151608082015280935050505092915050565b60006020828403121561111a578081fd5b5051919050565b60008060408385031215611133578081fd5b82359150602083013560ff8116811461114a578182fd5b809150509250929050565b6001600160a01b038316815260406020820152600082518060408401526111838160608501602087016111c1565b601f01601f1916919091016060019392505050565b60405160a0810167ffffffffffffffff811182821017156111bb576111bb6111ed565b60405290565b60005b838110156111dc5781810151838201526020016111c4565b8381111561068e5750506000910152565b7f4e487b7100000000000000000000000000000000000000000000000000000000600052604160045260246000fd5b6001600160a01b0381168114610a5657600080fdfea264697066735822122082f2a892d57e00b753042334c4075a411a13c79d8755dd5906a06ab251367ca964736f6c63430008040033",
  "devdoc": {
    "kind": "dev",
    "methods": {
      "owner()": {
        "details": "Returns the address of the current owner."
      },
      "renounceOwnership()": {
        "details": "Leaves the contract without owner. It will not be possible to call `onlyOwner` functions anymore. Can only be called by the current owner. NOTE: Renouncing ownership will leave the contract without an owner, thereby removing any functionality that is only available to the owner."
      },
      "transferOwnership(address)": {
        "details": "Transfers ownership of the contract to a new account (`newOwner`). Can only be called by the current owner."
      }
    },
    "version": 1
  },
  "userdoc": {
    "kind": "user",
    "methods": {},
    "version": 1
  },
  "storageLayout": {
    "storage": [
      {
        "astId": 389,
        "contract": "contracts/migration/NFTSwap.sol:PassiveIncomeNFTSwap",
        "label": "_owner",
        "offset": 0,
        "slot": "0",
        "type": "t_address"
      }
    ],
    "types": {
      "t_address": {
        "encoding": "inplace",
        "label": "address",
        "numberOfBytes": "20"
      }
    }
  }
}