{
  "address": "0x541B6C0d1d5d4A80cAA99324F5Ebff42650c0Efe",
  "abi": [
    {
      "inputs": [
        {
          "internalType": "address",
          "name": "nidhiNFT_",
          "type": "address"
        },
        {
          "internalType": "address",
          "name": "nidhiLegacyNFT_",
          "type": "address"
        },
        {
          "internalType": "address",
          "name": "tangibleNFT",
          "type": "address"
        },
        {
          "internalType": "address",
          "name": "tokenSwapContractAddress",
          "type": "address"
        },
        {
          "internalType": "address",
          "name": "stakingContractAddress",
          "type": "address"
        },
        {
          "internalType": "address",
          "name": "stakingTokenContractAddress",
          "type": "address"
        }
      ],
      "stateMutability": "nonpayable",
      "type": "constructor"
    },
    {
      "anonymous": false,
      "inputs": [
        {
          "indexed": true,
          "internalType": "address",
          "name": "previousOwner",
          "type": "address"
        },
        {
          "indexed": true,
          "internalType": "address",
          "name": "newOwner",
          "type": "address"
        }
      ],
      "name": "OwnershipTransferred",
      "type": "event"
    },
    {
      "inputs": [],
      "name": "minLockDuration",
      "outputs": [
        {
          "internalType": "uint8",
          "name": "",
          "type": "uint8"
        }
      ],
      "stateMutability": "view",
      "type": "function"
    },
    {
      "inputs": [],
      "name": "nidhiLegacyNFT",
      "outputs": [
        {
          "internalType": "contract NidhiLegacyNFT",
          "name": "",
          "type": "address"
        }
      ],
      "stateMutability": "view",
      "type": "function"
    },
    {
      "inputs": [],
      "name": "nidhiNFT",
      "outputs": [
        {
          "internalType": "contract NidhiNFT",
          "name": "",
          "type": "address"
        }
      ],
      "stateMutability": "view",
      "type": "function"
    },
    {
      "inputs": [],
      "name": "owner",
      "outputs": [
        {
          "internalType": "address",
          "name": "",
          "type": "address"
        }
      ],
      "stateMutability": "view",
      "type": "function"
    },
    {
      "inputs": [],
      "name": "passiveIncomeNFT",
      "outputs": [
        {
          "internalType": "contract PassiveIncomeNFT",
          "name": "",
          "type": "address"
        }
      ],
      "stateMutability": "view",
      "type": "function"
    },
    {
      "inputs": [],
      "name": "renounceOwnership",
      "outputs": [],
      "stateMutability": "nonpayable",
      "type": "function"
    },
    {
      "inputs": [
        {
          "internalType": "uint8",
          "name": "minLockDuration_",
          "type": "uint8"
        }
      ],
      "name": "setMinLockDuration",
      "outputs": [],
      "stateMutability": "nonpayable",
      "type": "function"
    },
    {
      "inputs": [],
      "name": "staking",
      "outputs": [
        {
          "internalType": "contract Staking",
          "name": "",
          "type": "address"
        }
      ],
      "stateMutability": "view",
      "type": "function"
    },
    {
      "inputs": [],
      "name": "stakingToken",
      "outputs": [
        {
          "internalType": "contract IERC20",
          "name": "",
          "type": "address"
        }
      ],
      "stateMutability": "view",
      "type": "function"
    },
    {
      "inputs": [
        {
          "internalType": "uint256",
          "name": "tokenId",
          "type": "uint256"
        },
        {
          "internalType": "uint8",
          "name": "lockDurationInMonths",
          "type": "uint8"
        },
        {
          "internalType": "bool",
          "name": "onlyLock",
          "type": "bool"
        },
        {
          "internalType": "bool",
          "name": "generateRevenue",
          "type": "bool"
        }
      ],
      "name": "swap",
      "outputs": [],
      "stateMutability": "nonpayable",
      "type": "function"
    },
    {
      "inputs": [
        {
          "internalType": "uint256",
          "name": "amountIn",
          "type": "uint256"
        },
        {
          "internalType": "uint8",
          "name": "lockDurationInMonths",
          "type": "uint8"
        },
        {
          "internalType": "bool",
          "name": "onlyLock",
          "type": "bool"
        },
        {
          "internalType": "bool",
          "name": "generateRevenue",
          "type": "bool"
        }
      ],
      "name": "swapGURU",
      "outputs": [
        {
          "internalType": "uint256",
          "name": "tokenId",
          "type": "uint256"
        }
      ],
      "stateMutability": "nonpayable",
      "type": "function"
    },
    {
      "inputs": [],
      "name": "tokenSwap",
      "outputs": [
        {
          "internalType": "contract TangibleTokenSwap",
          "name": "",
          "type": "address"
        }
      ],
      "stateMutability": "view",
      "type": "function"
    },
    {
      "inputs": [
        {
          "internalType": "address",
          "name": "newOwner",
          "type": "address"
        }
      ],
      "name": "transferOwnership",
      "outputs": [],
      "stateMutability": "nonpayable",
      "type": "function"
    }
  ],
  "transactionHash": "0x07ba3fe9a6cda4c80d3414f7779c450eaec5e2e282b210440ce78bc84b822731",
  "args": [
    "0xb7bB6098779A47d1Ea8e568E35381696D9d781C9",
    "0xDe75d50D3491F415B16439336bb13Bb8704d0601",
    "0x8ddebAC47871e129EE80b51c8ec55Ec28770b29e",
    "0x12F34eEB513e6904444B53C9B72D0fFD4D0f4B3E",
    "0xf7552ecff8f6D58d3762876d886A581c0f275968",
    "0x7F244A5DA32D3C1727e604Cb16554bFae89579A8"
  ],
  "numDeployments": 52,
  "solcInputHash": "5e0239e8daaf16e76295b0133f4f04fe",
  "bytecode": "0x6101406040523480156200001257600080fd5b50604051620018e2380380620018e2833981016040819052620000359162000102565b620000403362000095565b6000805460ff60a01b1916600360a31b179055606095861b6001600160601b031990811660805294861b851660a05292851b841660c05290841b831660e052831b82166101005290911b166101205262000182565b600080546001600160a01b038381166001600160a01b0319831681178455604051919092169283917f8be0079c531659141344cd1fd0a4f28419497f9722a3daafe3b4186f6b6457e09190a35050565b80516001600160a01b0381168114620000fd57600080fd5b919050565b60008060008060008060c087890312156200011b578182fd5b6200012687620000e5565b95506200013660208801620000e5565b94506200014660408801620000e5565b93506200015660608801620000e5565b92506200016660808801620000e5565b91506200017660a08801620000e5565b90509295509295509295565b60805160601c60a05160601c60c05160601c60e05160601c6101005160601c6101205160601c61166b62000277600039600081816101a501528181610e3e0152610f0101526000818161012401528181610ecf01528181610fae01526110460152600081816101dd01528181610385015281816104b50152818161055a015281816105e801528181610ac4015281816110b00152818161115601526111fc0152600081816101760152818161068e0152818161075101528181610b6a0152610c2d01526000818161020401526109b501526000818161026401528181610864015281816108f90152610a4a015261166b6000f3fe608060405234801561001057600080fd5b50600436106100df5760003560e01c806372f702f31161008c578063c31db5c811610066578063c31db5c8146101ff578063d6a298e914610226578063f2fde38b1461024c578063fa9e84a61461025f57600080fd5b806372f702f3146101a05780638da5cb5b146101c75780639653dee5146101d857600080fd5b8063554c81ff116100bd578063554c81ff1461015e57806366f5fdd414610171578063715018a61461019857600080fd5b806303c4621d146100e4578063227e8093146100f95780634cf088d91461011f575b600080fd5b6100f76100f236600461152d565b610286565b005b61010c6101073660046114dd565b610320565b6040519081526020015b60405180910390f35b6101467f000000000000000000000000000000000000000000000000000000000000000081565b6040516001600160a01b039091168152602001610116565b6100f761016c3660046114dd565b6107e2565b6101467f000000000000000000000000000000000000000000000000000000000000000081565b6100f7610cbb565b6101467f000000000000000000000000000000000000000000000000000000000000000081565b6000546001600160a01b0316610146565b6101467f000000000000000000000000000000000000000000000000000000000000000081565b6101467f000000000000000000000000000000000000000000000000000000000000000081565b60005461023a90600160a01b900460ff1681565b60405160ff9091168152602001610116565b6100f761025a36600461138b565b610d21565b6101467f000000000000000000000000000000000000000000000000000000000000000081565b6000546001600160a01b031633146102e55760405162461bcd60e51b815260206004820181905260248201527f4f776e61626c653a2063616c6c6572206973206e6f7420746865206f776e657260448201526064015b60405180910390fd5b6000805460ff909216600160a01b027fffffffffffffffffffffff00ffffffffffffffffffffffffffffffffffffffff909216919091179055565b6000805460ff600160a01b909104811690851610156103815760405162461bcd60e51b815260206004820152601560248201527f696e76616c6964206c6f636b206475726174696f6e000000000000000000000060448201526064016102dc565b60007f00000000000000000000000000000000000000000000000000000000000000006001600160a01b031663ff402d236040518163ffffffff1660e01b815260040160206040518083038186803b1580156103dc57600080fd5b505afa1580156103f0573d6000803e3d6000fd5b505050506040513d601f19601f8201168201806040525081019061041491906113ae565b6040516323b872dd60e01b8152336004820152306024820152604481018890529091506001600160a01b038216906323b872dd90606401602060405180830381600087803b15801561046557600080fd5b505af1158015610479573d6000803e3d6000fd5b505050506040513d601f19601f8201168201806040525081019061049d91906113ca565b5060405163095ea7b360e01b81526001600160a01b037f0000000000000000000000000000000000000000000000000000000000000000811660048301526024820188905282169063095ea7b390604401602060405180830381600087803b15801561050857600080fd5b505af115801561051c573d6000803e3d6000fd5b505050506040513d601f19601f8201168201806040525081019061054091906113ca565b50604051634a5c8c6f60e11b8152600481018790526000907f00000000000000000000000000000000000000000000000000000000000000006001600160a01b0316906394b918de90602401602060405180830381600087803b1580156105a657600080fd5b505af11580156105ba573d6000803e3d6000fd5b505050506040513d601f19601f820116820180604052508101906105de91906114c5565b905080156107d8577f00000000000000000000000000000000000000000000000000000000000000006001600160a01b031663f973d68f6040518163ffffffff1660e01b815260040160206040518083038186803b15801561063f57600080fd5b505afa158015610653573d6000803e3d6000fd5b505050506040513d601f19601f8201168201806040525081019061067791906113ae565b60405163095ea7b360e01b81526001600160a01b037f00000000000000000000000000000000000000000000000000000000000000008116600483015260248201849052919091169063095ea7b390604401602060405180830381600087803b1580156106e357600080fd5b505af11580156106f7573d6000803e3d6000fd5b505050506040513d601f19601f8201168201806040525081019061071b91906113ca565b50604051634defdd0360e11b81523360048201526024810182905260ff87166044820152851515606482015284151560848201527f00000000000000000000000000000000000000000000000000000000000000006001600160a01b031690639bdfba069060a401602060405180830381600087803b15801561079d57600080fd5b505af11580156107b1573d6000803e3d6000fd5b505050506040513d601f19601f820116820180604052508101906107d591906114c5565b92505b5050949350505050565b60005460ff600160a01b909104811690841610156108425760405162461bcd60e51b815260206004820152601560248201527f696e76616c6964206c6f636b206475726174696f6e000000000000000000000060448201526064016102dc565b6040516323b872dd60e01b8152336004820152306024820152604481018590527f00000000000000000000000000000000000000000000000000000000000000006001600160a01b0316906323b872dd90606401600060405180830381600087803b1580156108b057600080fd5b505af11580156108c4573d6000803e3d6000fd5b50506040517fe3684e3900000000000000000000000000000000000000000000000000000000815260048101879052600092507f00000000000000000000000000000000000000000000000000000000000000006001600160a01b0316915063e3684e399060240160006040518083038186803b15801561094457600080fd5b505afa158015610958573d6000803e3d6000fd5b505050506040513d6000823e601f3d908101601f1916820160405261098091908101906113e6565b80516040517fd0def5210000000000000000000000000000000000000000000000000000000081529192506001600160a01b037f0000000000000000000000000000000000000000000000000000000000000000169163d0def521916109eb91339190600401611547565b600060405180830381600087803b158015610a0557600080fd5b505af1158015610a19573d6000803e3d6000fd5b50506040517f42966c68000000000000000000000000000000000000000000000000000000008152600481018890527f00000000000000000000000000000000000000000000000000000000000000006001600160a01b031692506342966c689150602401600060405180830381600087803b158015610a9857600080fd5b505af1158015610aac573d6000803e3d6000fd5b505050506000610aba610e03565b90508015610cb3577f00000000000000000000000000000000000000000000000000000000000000006001600160a01b031663f973d68f6040518163ffffffff1660e01b815260040160206040518083038186803b158015610b1b57600080fd5b505afa158015610b2f573d6000803e3d6000fd5b505050506040513d601f19601f82011682018060405250810190610b5391906113ae565b60405163095ea7b360e01b81526001600160a01b037f00000000000000000000000000000000000000000000000000000000000000008116600483015260248201849052919091169063095ea7b390604401602060405180830381600087803b158015610bbf57600080fd5b505af1158015610bd3573d6000803e3d6000fd5b505050506040513d601f19601f82011682018060405250810190610bf791906113ca565b50604051634defdd0360e11b81523360048201526024810182905260ff86166044820152841515606482015283151560848201527f00000000000000000000000000000000000000000000000000000000000000006001600160a01b031690639bdfba069060a401602060405180830381600087803b158015610c7957600080fd5b505af1158015610c8d573d6000803e3d6000fd5b505050506040513d601f19601f82011682018060405250810190610cb191906114c5565b505b505050505050565b6000546001600160a01b03163314610d155760405162461bcd60e51b815260206004820181905260248201527f4f776e61626c653a2063616c6c6572206973206e6f7420746865206f776e657260448201526064016102dc565b610d1f6000611287565b565b6000546001600160a01b03163314610d7b5760405162461bcd60e51b815260206004820181905260248201527f4f776e61626c653a2063616c6c6572206973206e6f7420746865206f776e657260448201526064016102dc565b6001600160a01b038116610df75760405162461bcd60e51b815260206004820152602660248201527f4f776e61626c653a206e6577206f776e657220697320746865207a65726f206160448201527f646472657373000000000000000000000000000000000000000000000000000060648201526084016102dc565b610e0081611287565b50565b6040517f70a0823100000000000000000000000000000000000000000000000000000000815230600482015260009081906001600160a01b037f000000000000000000000000000000000000000000000000000000000000000016906370a082319060240160206040518083038186803b158015610e8057600080fd5b505afa158015610e94573d6000803e3d6000fd5b505050506040513d601f19601f82011682018060405250810190610eb891906114c5565b60405163095ea7b360e01b81526001600160a01b037f000000000000000000000000000000000000000000000000000000000000000081166004830152602482018390529192507f00000000000000000000000000000000000000000000000000000000000000009091169063095ea7b390604401602060405180830381600087803b158015610f4757600080fd5b505af1158015610f5b573d6000803e3d6000fd5b505050506040513d601f19601f82011682018060405250810190610f7f91906113ca565b506040517f1e83409a0000000000000000000000000000000000000000000000000000000081523060048201527f00000000000000000000000000000000000000000000000000000000000000006001600160a01b031690631e83409a90602401600060405180830381600087803b158015610ffa57600080fd5b505af115801561100e573d6000803e3d6000fd5b50506040517f9ebea88c00000000000000000000000000000000000000000000000000000000815260048101849052600060248201527f00000000000000000000000000000000000000000000000000000000000000006001600160a01b03169250639ebea88c9150604401600060405180830381600087803b15801561109457600080fd5b505af11580156110a8573d6000803e3d6000fd5b5050505060007f00000000000000000000000000000000000000000000000000000000000000006001600160a01b031663ff402d236040518163ffffffff1660e01b815260040160206040518083038186803b15801561110757600080fd5b505afa15801561111b573d6000803e3d6000fd5b505050506040513d601f19601f8201168201806040525081019061113f91906113ae565b60405163095ea7b360e01b81526001600160a01b037f000000000000000000000000000000000000000000000000000000000000000081166004830152602482018590529192509082169063095ea7b390604401602060405180830381600087803b1580156111ad57600080fd5b505af11580156111c1573d6000803e3d6000fd5b505050506040513d601f19601f820116820180604052508101906111e591906113ca565b50604051634a5c8c6f60e11b8152600481018390527f00000000000000000000000000000000000000000000000000000000000000006001600160a01b0316906394b918de90602401602060405180830381600087803b15801561124857600080fd5b505af115801561125c573d6000803e3d6000fd5b505050506040513d601f19601f8201168201806040525081019061128091906114c5565b9250505090565b600080546001600160a01b038381167fffffffffffffffffffffffff0000000000000000000000000000000000000000831681178455604051919092169283917f8be0079c531659141344cd1fd0a4f28419497f9722a3daafe3b4186f6b6457e09190a35050565b600082601f8301126112ff578081fd5b815167ffffffffffffffff8082111561131a5761131a6115e3565b604051601f8301601f19908116603f01168101908282118183101715611342576113426115e3565b8160405283815286602085880101111561135a578485fd5b61136b8460208301602089016115b3565b9695505050505050565b803560ff8116811461138657600080fd5b919050565b60006020828403121561139c578081fd5b81356113a781611612565b9392505050565b6000602082840312156113bf578081fd5b81516113a781611612565b6000602082840312156113db578081fd5b81516113a781611627565b6000602082840312156113f7578081fd5b815167ffffffffffffffff8082111561140e578283fd5b9083019060a08286031215611421578283fd5b61142961158a565b825182811115611437578485fd5b611443878286016112ef565b825250602083015182811115611457578485fd5b611463878286016112ef565b60208301525060408301518281111561147a578485fd5b611486878286016112ef565b60408301525060608301518281111561149d578485fd5b6114a9878286016112ef565b6060830152506080830151608082015280935050505092915050565b6000602082840312156114d6578081fd5b5051919050565b600080600080608085870312156114f2578283fd5b8435935061150260208601611375565b9250604085013561151281611627565b9150606085013561152281611627565b939692955090935050565b60006020828403121561153e578081fd5b6113a782611375565b6001600160a01b038316815260406020820152600082518060408401526115758160608501602087016115b3565b601f01601f1916919091016060019392505050565b60405160a0810167ffffffffffffffff811182821017156115ad576115ad6115e3565b60405290565b60005b838110156115ce5781810151838201526020016115b6565b838111156115dd576000848401525b50505050565b7f4e487b7100000000000000000000000000000000000000000000000000000000600052604160045260246000fd5b6001600160a01b0381168114610e0057600080fd5b8015158114610e0057600080fdfea2646970667358221220feaea7ca9671627163534a08c2b2eed74781c5e8590436be59b9d58ce8fa90ff64736f6c63430008040033",
  "devdoc": {
    "kind": "dev",
    "methods": {
      "owner()": {
        "details": "Returns the address of the current owner."
      },
      "renounceOwnership()": {
        "details": "Leaves the contract without owner. It will not be possible to call `onlyOwner` functions anymore. Can only be called by the current owner. NOTE: Renouncing ownership will leave the contract without an owner, thereby removing any functionality that is only available to the owner."
      },
      "transferOwnership(address)": {
        "details": "Transfers ownership of the contract to a new account (`newOwner`). Can only be called by the current owner."
      }
    },
    "version": 1
  },
  "userdoc": {
    "kind": "user",
    "methods": {},
    "version": 1
  },
  "storageLayout": {
    "storage": [
      {
        "astId": 389,
        "contract": "contracts/migration/NFTSwap.sol:PassiveIncomeNFTSwap",
        "label": "_owner",
        "offset": 0,
        "slot": "0",
        "type": "t_address"
      },
      {
        "astId": 9082,
        "contract": "contracts/migration/NFTSwap.sol:PassiveIncomeNFTSwap",
        "label": "minLockDuration",
        "offset": 20,
        "slot": "0",
        "type": "t_uint8"
      }
    ],
    "types": {
      "t_address": {
        "encoding": "inplace",
        "label": "address",
        "numberOfBytes": "20"
      },
      "t_uint8": {
        "encoding": "inplace",
        "label": "uint8",
        "numberOfBytes": "1"
      }
    }
  }
}