{
  "address": "0x8ddebAC47871e129EE80b51c8ec55Ec28770b29e",
  "abi": [
    {
      "inputs": [
        {
          "internalType": "address",
          "name": "piToken",
          "type": "address"
        },
        {
          "internalType": "address",
          "name": "piCalculator",
          "type": "address"
        },
        {
          "internalType": "uint256",
          "name": "start",
          "type": "uint256"
        }
      ],
      "stateMutability": "nonpayable",
      "type": "constructor"
    },
    {
      "anonymous": false,
      "inputs": [
        {
          "indexed": true,
          "internalType": "address",
          "name": "owner",
          "type": "address"
        },
        {
          "indexed": true,
          "internalType": "address",
          "name": "approved",
          "type": "address"
        },
        {
          "indexed": true,
          "internalType": "uint256",
          "name": "tokenId",
          "type": "uint256"
        }
      ],
      "name": "Approval",
      "type": "event"
    },
    {
      "anonymous": false,
      "inputs": [
        {
          "indexed": true,
          "internalType": "address",
          "name": "owner",
          "type": "address"
        },
        {
          "indexed": true,
          "internalType": "address",
          "name": "operator",
          "type": "address"
        },
        {
          "indexed": false,
          "internalType": "bool",
          "name": "approved",
          "type": "bool"
        }
      ],
      "name": "ApprovalForAll",
      "type": "event"
    },
    {
      "anonymous": false,
      "inputs": [
        {
          "indexed": true,
          "internalType": "address",
          "name": "account",
          "type": "address"
        },
        {
          "indexed": true,
          "internalType": "uint256",
          "name": "tokenId",
          "type": "uint256"
        },
        {
          "indexed": false,
          "internalType": "uint256",
          "name": "value",
          "type": "uint256"
        }
      ],
      "name": "Claim",
      "type": "event"
    },
    {
      "anonymous": false,
      "inputs": [
        {
          "indexed": true,
          "internalType": "bytes32",
          "name": "role",
          "type": "bytes32"
        },
        {
          "indexed": true,
          "internalType": "bytes32",
          "name": "previousAdminRole",
          "type": "bytes32"
        },
        {
          "indexed": true,
          "internalType": "bytes32",
          "name": "newAdminRole",
          "type": "bytes32"
        }
      ],
      "name": "RoleAdminChanged",
      "type": "event"
    },
    {
      "anonymous": false,
      "inputs": [
        {
          "indexed": true,
          "internalType": "bytes32",
          "name": "role",
          "type": "bytes32"
        },
        {
          "indexed": true,
          "internalType": "address",
          "name": "account",
          "type": "address"
        },
        {
          "indexed": true,
          "internalType": "address",
          "name": "sender",
          "type": "address"
        }
      ],
      "name": "RoleGranted",
      "type": "event"
    },
    {
      "anonymous": false,
      "inputs": [
        {
          "indexed": true,
          "internalType": "bytes32",
          "name": "role",
          "type": "bytes32"
        },
        {
          "indexed": true,
          "internalType": "address",
          "name": "account",
          "type": "address"
        },
        {
          "indexed": true,
          "internalType": "address",
          "name": "sender",
          "type": "address"
        }
      ],
      "name": "RoleRevoked",
      "type": "event"
    },
    {
      "anonymous": false,
      "inputs": [
        {
          "indexed": true,
          "internalType": "address",
          "name": "from",
          "type": "address"
        },
        {
          "indexed": true,
          "internalType": "address",
          "name": "to",
          "type": "address"
        },
        {
          "indexed": true,
          "internalType": "uint256",
          "name": "tokenId",
          "type": "uint256"
        }
      ],
      "name": "Transfer",
      "type": "event"
    },
    {
      "inputs": [],
      "name": "DEFAULT_ADMIN_ROLE",
      "outputs": [
        {
          "internalType": "bytes32",
          "name": "",
          "type": "bytes32"
        }
      ],
      "stateMutability": "view",
      "type": "function"
    },
    {
      "inputs": [],
      "name": "EARLY_MINTER_ROLE",
      "outputs": [
        {
          "internalType": "bytes32",
          "name": "",
          "type": "bytes32"
        }
      ],
      "stateMutability": "view",
      "type": "function"
    },
    {
      "inputs": [],
      "name": "MIGRATOR_ROLE",
      "outputs": [
        {
          "internalType": "bytes32",
          "name": "",
          "type": "bytes32"
        }
      ],
      "stateMutability": "view",
      "type": "function"
    },
    {
      "inputs": [],
      "name": "REVENUE_MANAGER_ROLE",
      "outputs": [
        {
          "internalType": "bytes32",
          "name": "",
          "type": "bytes32"
        }
      ],
      "stateMutability": "view",
      "type": "function"
    },
    {
      "inputs": [
        {
          "internalType": "address",
          "name": "to",
          "type": "address"
        },
        {
          "internalType": "uint256",
          "name": "tokenId",
          "type": "uint256"
        }
      ],
      "name": "approve",
      "outputs": [],
      "stateMutability": "nonpayable",
      "type": "function"
    },
    {
      "inputs": [],
      "name": "avgLockDuration",
      "outputs": [
        {
          "internalType": "uint256",
          "name": "",
          "type": "uint256"
        }
      ],
      "stateMutability": "view",
      "type": "function"
    },
    {
      "inputs": [
        {
          "internalType": "address",
          "name": "owner",
          "type": "address"
        }
      ],
      "name": "balanceOf",
      "outputs": [
        {
          "internalType": "uint256",
          "name": "",
          "type": "uint256"
        }
      ],
      "stateMutability": "view",
      "type": "function"
    },
    {
      "inputs": [],
      "name": "boostEndTime",
      "outputs": [
        {
          "internalType": "uint256",
          "name": "",
          "type": "uint256"
        }
      ],
      "stateMutability": "view",
      "type": "function"
    },
    {
      "inputs": [],
      "name": "boostStartTime",
      "outputs": [
        {
          "internalType": "uint256",
          "name": "",
          "type": "uint256"
        }
      ],
      "stateMutability": "view",
      "type": "function"
    },
    {
      "inputs": [
        {
          "internalType": "uint256",
          "name": "tokenId",
          "type": "uint256"
        }
      ],
      "name": "burn",
      "outputs": [
        {
          "internalType": "uint256",
          "name": "amount",
          "type": "uint256"
        }
      ],
      "stateMutability": "nonpayable",
      "type": "function"
    },
    {
      "inputs": [
        {
          "internalType": "uint256",
          "name": "amount",
          "type": "uint256"
        }
      ],
      "name": "canEarnForAmount",
      "outputs": [
        {
          "internalType": "bool",
          "name": "",
          "type": "bool"
        }
      ],
      "stateMutability": "view",
      "type": "function"
    },
    {
      "inputs": [
        {
          "internalType": "uint256",
          "name": "tokenId",
          "type": "uint256"
        },
        {
          "internalType": "uint256",
          "name": "amount",
          "type": "uint256"
        }
      ],
      "name": "claim",
      "outputs": [],
      "stateMutability": "nonpayable",
      "type": "function"
    },
    {
      "inputs": [
        {
          "internalType": "uint256",
          "name": "tokenId",
          "type": "uint256"
        }
      ],
      "name": "claimableIncome",
      "outputs": [
        {
          "internalType": "uint256",
          "name": "free",
          "type": "uint256"
        },
        {
          "internalType": "uint256",
          "name": "max",
          "type": "uint256"
        }
      ],
      "stateMutability": "view",
      "type": "function"
    },
    {
      "inputs": [
        {
          "internalType": "uint256[]",
          "name": "tokenIds",
          "type": "uint256[]"
        }
      ],
      "name": "claimableIncomes",
      "outputs": [
        {
          "internalType": "uint256[]",
          "name": "free",
          "type": "uint256[]"
        },
        {
          "internalType": "uint256[]",
          "name": "max",
          "type": "uint256[]"
        }
      ],
      "stateMutability": "view",
      "type": "function"
    },
    {
      "inputs": [
        {
          "internalType": "uint256",
          "name": "tokenId",
          "type": "uint256"
        }
      ],
      "name": "getApproved",
      "outputs": [
        {
          "internalType": "address",
          "name": "",
          "type": "address"
        }
      ],
      "stateMutability": "view",
      "type": "function"
    },
    {
      "inputs": [
        {
          "internalType": "bytes32",
          "name": "role",
          "type": "bytes32"
        }
      ],
      "name": "getRoleAdmin",
      "outputs": [
        {
          "internalType": "bytes32",
          "name": "",
          "type": "bytes32"
        }
      ],
      "stateMutability": "view",
      "type": "function"
    },
    {
      "inputs": [
        {
          "internalType": "bytes32",
          "name": "role",
          "type": "bytes32"
        },
        {
          "internalType": "address",
          "name": "account",
          "type": "address"
        }
      ],
      "name": "grantRole",
      "outputs": [],
      "stateMutability": "nonpayable",
      "type": "function"
    },
    {
      "inputs": [
        {
          "internalType": "bytes32",
          "name": "role",
          "type": "bytes32"
        },
        {
          "internalType": "address",
          "name": "account",
          "type": "address"
        }
      ],
      "name": "hasRole",
      "outputs": [
        {
          "internalType": "bool",
          "name": "",
          "type": "bool"
        }
      ],
      "stateMutability": "view",
      "type": "function"
    },
    {
      "inputs": [
        {
          "internalType": "address",
          "name": "owner",
          "type": "address"
        },
        {
          "internalType": "address",
          "name": "operator",
          "type": "address"
        }
      ],
      "name": "isApprovedForAll",
      "outputs": [
        {
          "internalType": "bool",
          "name": "",
          "type": "bool"
        }
      ],
      "stateMutability": "view",
      "type": "function"
    },
    {
      "inputs": [
        {
          "internalType": "uint256",
          "name": "",
          "type": "uint256"
        }
      ],
      "name": "locks",
      "outputs": [
        {
          "internalType": "uint256",
          "name": "startTime",
          "type": "uint256"
        },
        {
          "internalType": "uint256",
          "name": "endTime",
          "type": "uint256"
        },
        {
          "internalType": "uint256",
          "name": "lockedAmount",
          "type": "uint256"
        },
        {
          "internalType": "uint256",
          "name": "multiplier",
          "type": "uint256"
        },
        {
          "internalType": "uint256",
          "name": "claimed",
          "type": "uint256"
        },
        {
          "internalType": "uint256",
          "name": "maxPayout",
          "type": "uint256"
        }
      ],
      "stateMutability": "view",
      "type": "function"
    },
    {
      "inputs": [],
      "name": "marketplace",
      "outputs": [
        {
          "internalType": "contract IMarketplace",
          "name": "",
          "type": "address"
        }
      ],
      "stateMutability": "view",
      "type": "function"
    },
    {
      "inputs": [],
      "name": "maxLockDuration",
      "outputs": [
        {
          "internalType": "uint8",
          "name": "",
          "type": "uint8"
        }
      ],
      "stateMutability": "view",
      "type": "function"
    },
    {
      "inputs": [
        {
          "internalType": "uint256",
          "name": "lockedAmount",
          "type": "uint256"
        }
      ],
      "name": "maxLockPeriodForAmount",
      "outputs": [
        {
          "internalType": "uint8",
          "name": "",
          "type": "uint8"
        }
      ],
      "stateMutability": "view",
      "type": "function"
    },
    {
      "inputs": [
        {
          "internalType": "address",
          "name": "owner",
          "type": "address"
        },
        {
          "internalType": "uint256",
          "name": "lockedAmount",
          "type": "uint256"
        },
        {
          "internalType": "uint256",
          "name": "multiplier",
          "type": "uint256"
        },
        {
          "internalType": "uint8",
          "name": "lockDurationInMonths",
          "type": "uint8"
        },
        {
          "internalType": "uint256",
          "name": "claimed",
          "type": "uint256"
        },
        {
          "internalType": "uint256",
          "name": "maxPayout",
          "type": "uint256"
        }
      ],
      "name": "migrate",
      "outputs": [
        {
          "internalType": "uint256",
          "name": "tokenId",
          "type": "uint256"
        }
      ],
      "stateMutability": "nonpayable",
      "type": "function"
    },
    {
      "inputs": [
        {
          "internalType": "address",
          "name": "minter",
          "type": "address"
        },
        {
          "internalType": "uint256",
          "name": "lockedAmount",
          "type": "uint256"
        },
        {
          "internalType": "uint8",
          "name": "lockDurationInMonths",
          "type": "uint8"
        },
        {
          "internalType": "bool",
          "name": "onlyLock",
          "type": "bool"
        },
        {
          "internalType": "bool",
          "name": "generateRevenue",
          "type": "bool"
        }
      ],
      "name": "mint",
      "outputs": [
        {
          "internalType": "uint256",
          "name": "tokenId",
          "type": "uint256"
        }
      ],
      "stateMutability": "nonpayable",
      "type": "function"
    },
    {
      "inputs": [],
      "name": "name",
      "outputs": [
        {
          "internalType": "string",
          "name": "",
          "type": "string"
        }
      ],
      "stateMutability": "view",
      "type": "function"
    },
    {
      "inputs": [
        {
          "internalType": "uint256",
          "name": "tokenId",
          "type": "uint256"
        }
      ],
      "name": "ownerOf",
      "outputs": [
        {
          "internalType": "address",
          "name": "",
          "type": "address"
        }
      ],
      "stateMutability": "view",
      "type": "function"
    },
    {
      "inputs": [
        {
          "internalType": "bytes32",
          "name": "role",
          "type": "bytes32"
        },
        {
          "internalType": "address",
          "name": "account",
          "type": "address"
        }
      ],
      "name": "renounceRole",
      "outputs": [],
      "stateMutability": "nonpayable",
      "type": "function"
    },
    {
      "inputs": [],
      "name": "revenueShare",
      "outputs": [
        {
          "internalType": "contract RevenueShare",
          "name": "",
          "type": "address"
        }
      ],
      "stateMutability": "view",
      "type": "function"
    },
    {
      "inputs": [
        {
          "internalType": "bytes32",
          "name": "role",
          "type": "bytes32"
        },
        {
          "internalType": "address",
          "name": "account",
          "type": "address"
        }
      ],
      "name": "revokeRole",
      "outputs": [],
      "stateMutability": "nonpayable",
      "type": "function"
    },
    {
      "inputs": [
        {
          "internalType": "address",
          "name": "from",
          "type": "address"
        },
        {
          "internalType": "address",
          "name": "to",
          "type": "address"
        },
        {
          "internalType": "uint256",
          "name": "tokenId",
          "type": "uint256"
        }
      ],
      "name": "safeTransferFrom",
      "outputs": [],
      "stateMutability": "nonpayable",
      "type": "function"
    },
    {
      "inputs": [
        {
          "internalType": "address",
          "name": "from",
          "type": "address"
        },
        {
          "internalType": "address",
          "name": "to",
          "type": "address"
        },
        {
          "internalType": "uint256",
          "name": "tokenId",
          "type": "uint256"
        },
        {
          "internalType": "bytes",
          "name": "_data",
          "type": "bytes"
        }
      ],
      "name": "safeTransferFrom",
      "outputs": [],
      "stateMutability": "nonpayable",
      "type": "function"
    },
    {
      "inputs": [
        {
          "internalType": "address",
          "name": "operator",
          "type": "address"
        },
        {
          "internalType": "bool",
          "name": "approved",
          "type": "bool"
        }
      ],
      "name": "setApprovalForAll",
      "outputs": [],
      "stateMutability": "nonpayable",
      "type": "function"
    },
    {
      "inputs": [
        {
          "internalType": "uint256",
          "name": "tokenId",
          "type": "uint256"
        },
        {
          "internalType": "bool",
          "name": "generate",
          "type": "bool"
        }
      ],
      "name": "setGenerateRevenue",
      "outputs": [],
      "stateMutability": "nonpayable",
      "type": "function"
    },
    {
      "inputs": [
        {
          "internalType": "string",
          "name": "baseURI",
          "type": "string"
        }
      ],
      "name": "setImageBaseURI",
      "outputs": [],
      "stateMutability": "nonpayable",
      "type": "function"
    },
    {
      "inputs": [
        {
          "internalType": "address",
          "name": "marketplace_",
          "type": "address"
        }
      ],
      "name": "setMarketplaceContract",
      "outputs": [],
      "stateMutability": "nonpayable",
      "type": "function"
    },
    {
      "inputs": [
        {
          "internalType": "uint8",
          "name": "months",
          "type": "uint8"
        }
      ],
      "name": "setMaxLockDuration",
      "outputs": [],
      "stateMutability": "nonpayable",
      "type": "function"
    },
    {
      "inputs": [
        {
          "internalType": "address",
          "name": "revenueShare_",
          "type": "address"
        }
      ],
      "name": "setRevenueShareContract",
      "outputs": [],
      "stateMutability": "nonpayable",
      "type": "function"
    },
    {
      "inputs": [
        {
          "internalType": "bytes4",
          "name": "interfaceId",
          "type": "bytes4"
        }
      ],
      "name": "supportsInterface",
      "outputs": [
        {
          "internalType": "bool",
          "name": "",
          "type": "bool"
        }
      ],
      "stateMutability": "view",
      "type": "function"
    },
    {
      "inputs": [],
      "name": "symbol",
      "outputs": [
        {
          "internalType": "string",
          "name": "",
          "type": "string"
        }
      ],
      "stateMutability": "view",
      "type": "function"
    },
    {
      "inputs": [
        {
          "internalType": "uint256",
          "name": "index",
          "type": "uint256"
        }
      ],
      "name": "tokenByIndex",
      "outputs": [
        {
          "internalType": "uint256",
          "name": "",
          "type": "uint256"
        }
      ],
      "stateMutability": "view",
      "type": "function"
    },
    {
      "inputs": [
        {
          "internalType": "address",
          "name": "owner",
          "type": "address"
        },
        {
          "internalType": "uint256",
          "name": "index",
          "type": "uint256"
        }
      ],
      "name": "tokenOfOwnerByIndex",
      "outputs": [
        {
          "internalType": "uint256",
          "name": "",
          "type": "uint256"
        }
      ],
      "stateMutability": "view",
      "type": "function"
    },
    {
      "inputs": [
        {
          "internalType": "uint256",
          "name": "tokenId",
          "type": "uint256"
        }
      ],
      "name": "tokenURI",
      "outputs": [
        {
          "internalType": "string",
          "name": "",
          "type": "string"
        }
      ],
      "stateMutability": "view",
      "type": "function"
    },
    {
      "inputs": [],
      "name": "totalClaimed",
      "outputs": [
        {
          "internalType": "uint256",
          "name": "",
          "type": "uint256"
        }
      ],
      "stateMutability": "view",
      "type": "function"
    },
    {
      "inputs": [],
      "name": "totalLocked",
      "outputs": [
        {
          "internalType": "uint256",
          "name": "",
          "type": "uint256"
        }
      ],
      "stateMutability": "view",
      "type": "function"
    },
    {
      "inputs": [],
      "name": "totalSupply",
      "outputs": [
        {
          "internalType": "uint256",
          "name": "",
          "type": "uint256"
        }
      ],
      "stateMutability": "view",
      "type": "function"
    },
    {
      "inputs": [
        {
          "internalType": "address",
          "name": "from",
          "type": "address"
        },
        {
          "internalType": "address",
          "name": "to",
          "type": "address"
        },
        {
          "internalType": "uint256",
          "name": "tokenId",
          "type": "uint256"
        }
      ],
      "name": "transferFrom",
      "outputs": [],
      "stateMutability": "nonpayable",
      "type": "function"
    }
  ],
  "transactionHash": "0x7ba69e4a2ac2acbd37f451647510c08b9f640085d20c3416498eb257b79c7832",
  "args": [
    "0x0ce73f3FcF43517C2dF686e8F2aB31A2C6B38DA1",
    "0xB5eE6cca5C792d738388DFc57cf6FAcB93B6bd02",
    1649203200
  ],
  "numDeployments": 31,
  "solcInputHash": "5e0239e8daaf16e76295b0133f4f04fe",
  "bytecode": "0x60c06040523480156200001157600080fd5b50604051620049fa380380620049fa833981016040819052620000349162000274565b6040805180820182526002815261504960f01b60208083019182528351808501909452601284527114185cdcda5d9948125b98dbdb594813919560721b9084015281519192916200008891600091620001b1565b5080516200009e906001906020840190620001b1565b5050600c805460ff19166030179055506080819052620000c38163076a7000620002b4565b60a052600f80546001600160a01b038086166001600160a01b0319928316179092556010805492851692909116919091179055620001036000336200010c565b50505062000316565b6000828152600a602090815260408083206001600160a01b038516845290915290205460ff16620001ad576000828152600a602090815260408083206001600160a01b03851684529091529020805460ff191660011790556200016c3390565b6001600160a01b0316816001600160a01b0316837f2f8788117e7eff1d82e926ec794901d17c78024a50270940304540a733656f0d60405160405180910390a45b5050565b828054620001bf90620002d9565b90600052602060002090601f016020900481019282620001e357600085556200022e565b82601f10620001fe57805160ff19168380011785556200022e565b828001600101855582156200022e579182015b828111156200022e57825182559160200191906001019062000211565b506200023c92915062000240565b5090565b5b808211156200023c576000815560010162000241565b80516001600160a01b03811681146200026f57600080fd5b919050565b60008060006060848603121562000289578283fd5b620002948462000257565b9250620002a46020850162000257565b9150604084015190509250925092565b60008219821115620002d457634e487b7160e01b81526011600452602481fd5b500190565b600181811c90821680620002ee57607f821691505b602082108114156200031057634e487b7160e01b600052602260045260246000fd5b50919050565b60805160a051614671620003896000396000818161061601528181610bed01528181611a110152611e620152600081816106d901528181610bc7015281816111de015281816115bc015281816115eb015281816118c00152818161196d015281816119eb0152611e3c01526146716000f3fe608060405234801561001057600080fd5b50600436106103155760003560e01c806374d1cb9c116101a7578063bbb9e976116100ee578063d9c54d2311610097578063e985e9c511610071578063e985e9c514610722578063f4dadc611461075e578063ff0984ca146107ce57600080fd5b8063d9c54d23146106b3578063daa64ab3146106d4578063de197161146106fb57600080fd5b8063d2762db0116100c8578063d2762db014610684578063d547741f14610697578063d54ad2a1146106aa57600080fd5b8063bbb9e9761461064b578063c34902631461065e578063c87b56dd1461067157600080fd5b8063a217fddf11610150578063b4a84c231161012a578063b4a84c23146105fe578063b55fb79d14610611578063b88d4fde1461063857600080fd5b8063a217fddf146105d0578063a22cb465146105d8578063abc8c7af146105eb57600080fd5b8063980aaa1811610181578063980aaa18146105775780639bdfba061461059e578063a16cdbb1146105b157600080fd5b806374d1cb9c1461052357806391d148541461053657806395d89b411461056f57600080fd5b80632f2ff15d1161026b5780634f6ccce7116102145780636cfa24cc116101ee5780636cfa24cc146104d65780636fae2e15146104e957806370a082311461051057600080fd5b80634f6ccce7146104a757806356891412146104ba5780636352211e146104c357600080fd5b806342842e0e1161024557806342842e0e1461045957806342966c681461046c57806349a0f36c1461047f57600080fd5b80632f2ff15d146104205780632f745c591461043357806336568abe1461044657600080fd5b806318160ddd116102cd5780632707a811116102a75780632707a811146103f257806328751f4a146103fa5780632c7373851461040d57600080fd5b806318160ddd146103aa57806323b872dd146103bc578063248a9ca3146103cf57600080fd5b8063081812fc116102fe578063081812fc14610357578063095ea7b3146103825780631102610e1461039757600080fd5b806301ffc9a71461031a57806306fdde0314610342575b600080fd5b61032d610328366004613fd7565b6107e1565b60405190151581526020015b60405180910390f35b61034a610801565b60405161033991906143fd565b61036a610365366004613f9d565b610893565b6040516001600160a01b039091168152602001610339565b610395610390366004613e2e565b61092d565b005b6103956103a5366004613cf8565b610a5f565b6008545b604051908152602001610339565b6103956103ca366004613d44565b610a8e565b6103ae6103dd366004613f9d565b6000908152600a602052604090206001015490565b6103ae610b15565b61032d610408366004613f9d565b610b99565b61039561041b36600461406d565b610c96565b61039561042e366004613fb5565b610ce2565b6103ae610441366004613e2e565b610d08565b610395610454366004613fb5565b610db0565b610395610467366004613d44565b610e3c565b6103ae61047a366004613f9d565b610e57565b61049261048d366004613f9d565b611188565b60408051928352602083019190915201610339565b6103ae6104b5366004613f9d565b611347565b6103ae600d5481565b61036a6104d1366004613f9d565b6113f9565b6103956104e436600461400f565b611484565b6103ae7f9fd6ebe44f314ab6ca41249424c1bf3bbe9476c31fbbd7cdb0549ff8e49c8e0181565b6103ae61051e366004613cf8565b6114a3565b6103ae610531366004613e57565b61153d565b61032d610544366004613fb5565b6000918252600a602090815260408084206001600160a01b0393909316845291905290205460ff1690565b61034a6117f4565b6103ae7f0fbad354875a9e5c444c502f9b67d84217e0490860852e37046857866785849981565b6103ae6105ac366004613eae565b611803565b600c546105be9060ff1681565b60405160ff9091168152602001610339565b6103ae600081565b6103956105e6366004613df8565b611cc4565b60175461036a906001600160a01b031681565b61039561060c366004613cf8565b611ccf565b6103ae7f000000000000000000000000000000000000000000000000000000000000000081565b610395610646366004613d7f565b611cfe565b6105be610659366004613f9d565b611d8c565b61039561066c366004614091565b611f6c565b61034a61067f366004613f9d565b6123ed565b6103956106923660046140d5565b612448565b6103956106a5366004613fb5565b61246b565b6103ae600e5481565b6106c66106c1366004613f11565b612491565b6040516103399291906143cf565b6103ae7f000000000000000000000000000000000000000000000000000000000000000081565b6103ae7fbeb9b40db0a1f06bca6a7f64da7986d838456abde8af9400b2a9de837af4b01481565b61032d610730366004613d12565b6001600160a01b03918216600090815260056020908152604080832093909416825291909152205460ff1690565b6107a161076c366004613f9d565b600b60205260009081526040902080546001820154600283015460038401546004850154600590950154939492939192909186565b604080519687526020870195909552938501929092526060840152608083015260a082015260c001610339565b60165461036a906001600160a01b031681565b60006107ec826125ec565b806107fb57506107fb8261262a565b92915050565b606060008054610810906144d2565b80601f016020809104026020016040519081016040528092919081815260200182805461083c906144d2565b80156108895780601f1061085e57610100808354040283529160200191610889565b820191906000526020600020905b81548152906001019060200180831161086c57829003601f168201915b5050505050905090565b6000818152600260205260408120546001600160a01b03166109115760405162461bcd60e51b815260206004820152602c60248201527f4552433732313a20617070726f76656420717565727920666f72206e6f6e657860448201526b34b9ba32b73a103a37b5b2b760a11b60648201526084015b60405180910390fd5b506000908152600460205260409020546001600160a01b031690565b6000610938826113f9565b9050806001600160a01b0316836001600160a01b031614156109c25760405162461bcd60e51b815260206004820152602160248201527f4552433732313a20617070726f76616c20746f2063757272656e74206f776e6560448201527f72000000000000000000000000000000000000000000000000000000000000006064820152608401610908565b336001600160a01b03821614806109de57506109de8133610730565b610a505760405162461bcd60e51b815260206004820152603860248201527f4552433732313a20617070726f76652063616c6c6572206973206e6f74206f7760448201527f6e6572206e6f7220617070726f76656420666f7220616c6c00000000000000006064820152608401610908565b610a5a8383612668565b505050565b6000610a6b81336126d6565b50601780546001600160a01b0319166001600160a01b0392909216919091179055565b610a983382612756565b610b0a5760405162461bcd60e51b815260206004820152603160248201527f4552433732313a207472616e736665722063616c6c6572206973206e6f74206f60448201527f776e6572206e6f7220617070726f7665640000000000000000000000000000006064820152608401610908565b610a5a83838361284d565b600080610b2160085490565b905080610b3057600091505090565b600060025b60308160ff1611610b7b5760ff8116600081815260146020526040902054610b5d919061443c565b610b679083614410565b915080610b7381614528565b915050610b35565b5081610b8882600a61443c565b610b929190614428565b9250505090565b600080610ba583611d8c565b905060008160ff16118015610c8f575060105460405163debb587160e01b81527f000000000000000000000000000000000000000000000000000000000000000060048201527f0000000000000000000000000000000000000000000000000000000000000000602482015242604482015260ff83166064820152670de0b6b3a7640000916001600160a01b03169063debb58719060840160206040518083038186803b158015610c5557600080fd5b505afa158015610c69573d6000803e3d6000fd5b505050506040513d601f19601f82011682018060405250810190610c8d9190614055565b115b9392505050565b7fbeb9b40db0a1f06bca6a7f64da7986d838456abde8af9400b2a9de837af4b014610cc181336126d6565b50600091825260156020526040909120805460ff1916911515919091179055565b6000828152600a6020526040902060010154610cfe81336126d6565b610a5a8383612a25565b6000610d13836114a3565b8210610d875760405162461bcd60e51b815260206004820152602b60248201527f455243373231456e756d657261626c653a206f776e657220696e646578206f7560448201527f74206f6620626f756e64730000000000000000000000000000000000000000006064820152608401610908565b506001600160a01b03919091166000908152600660209081526040808320938352929052205490565b6001600160a01b0381163314610e2e5760405162461bcd60e51b815260206004820152602f60248201527f416363657373436f6e74726f6c3a2063616e206f6e6c792072656e6f756e636560448201527f20726f6c657320666f722073656c6600000000000000000000000000000000006064820152608401610908565b610e388282612ac7565b5050565b610a5a83838360405180602001604052806000815250611cfe565b600033610e63836113f9565b6001600160a01b0316816001600160a01b031614610ec35760405162461bcd60e51b815260206004820152601760248201527f63616c6c6572206973206e6f7420746865206f776e65720000000000000000006044820152606401610908565b6000838152600b6020908152604091829020825160c08101845281548152600182015492810183905260028201549381019390935260038101546060840152600481015460808401526005015460a0830152421015610f645760405162461bcd60e51b815260206004820152600b60248201527f6e6f7420657870697265640000000000000000000000000000000000000000006044820152606401610908565b60008481526015602052604090205460ff16156110175760165460a082015160408301516001600160a01b039092169163f8cc2cdc9130918891610fa791614410565b610fb09061455c565b6040516001600160e01b031960e086901b1681526001600160a01b03909316600484015260248301919091526044820152606401600060405180830381600087803b158015610ffe57600080fd5b505af1158015611012573d6000803e3d6000fd5b505050505b61102084611188565b50925082156110415782600e600082825461103b9190614410565b90915550505b8060400151600d6000828254611057919061445b565b9091555050604081015161106b9084614410565b9250600062278d0082600001518360200151611087919061445b565b6110919190614428565b60ff811660009081526014602052604081208054929350906110b28361449e565b90915550506000858152600b6020526040812081815560018101829055600281018290556003810182905560048101829055600501556110f185612b4a565b6017546040517fcaa67fa1000000000000000000000000000000000000000000000000000000008152600481018790526001600160a01b039091169063caa67fa190602401600060405180830381600087803b15801561115057600080fd5b505af1158015611164573d6000803e3d6000fd5b5050600f5461118092506001600160a01b031690508486612bf1565b505050919050565b6000818152600b60209081526040808320815160c0810183528154815260018201549381019390935260028101549183019190915260038101546060830152600481015460808301526005015460a082015281907f00000000000000000000000000000000000000000000000000000000000000004210156112105750600093849350915050565b806020015142106112395780608001518160a0015161122f919061445b565b9150819250611341565b601054815160208301516040808501516060860151608087015192517fed6ecb2c000000000000000000000000000000000000000000000000000000008152600481019590955260248501939093524260448501526064840152608483019190915260a48201526001600160a01b039091169063ed6ecb2c9060c401604080518083038186803b1580156112cc57600080fd5b505afa1580156112e0573d6000803e3d6000fd5b505050506040513d601f19601f8201168201806040525081019061130491906140b2565b60808301519194509250611318908361445b565b9150806080015183101561132f5760009250611341565b608081015161133e908461445b565b92505b50915091565b600061135260085490565b82106113c65760405162461bcd60e51b815260206004820152602c60248201527f455243373231456e756d657261626c653a20676c6f62616c20696e646578206f60448201527f7574206f6620626f756e647300000000000000000000000000000000000000006064820152608401610908565b600882815481106113e757634e487b7160e01b600052603260045260246000fd5b90600052602060002001549050919050565b6000818152600260205260408120546001600160a01b0316806107fb5760405162461bcd60e51b815260206004820152602960248201527f4552433732313a206f776e657220717565727920666f72206e6f6e657869737460448201527f656e7420746f6b656e00000000000000000000000000000000000000000000006064820152608401610908565b600061149081336126d6565b8151610a5a906013906020850190613bbc565b60006001600160a01b0382166115215760405162461bcd60e51b815260206004820152602a60248201527f4552433732313a2062616c616e636520717565727920666f7220746865207a6560448201527f726f2061646472657373000000000000000000000000000000000000000000006064820152608401610908565b506001600160a01b031660009081526003602052604090205490565b60007f9fd6ebe44f314ab6ca41249424c1bf3bbe9476c31fbbd7cdb0549ff8e49c8e0161156a81336126d6565b6012600081546115799061450d565b91905081905591506115ba6040518060c001604052806000815260200160008152602001600081526020016000815260200160008152602001600081525090565b7f000000000000000000000000000000000000000000000000000000000000000042106115e95742815261160d565b7f000000000000000000000000000000000000000000000000000000000000000081525b61161d60ff871662278d0061443c565b81516116299190614410565b602080830191825260408084018b8152606085018b8152608086018a815260a087018a815260008a8152600b90965293852087518155955160018701559151600286015551600385015551600484015551600590920191909155600d80548a9290611695908490614410565b909155505060ff861660009081526014602052604081208054916116b88361450d565b9091555050600f5460a08201516001600160a01b039091169063a0712d68906116e1908b614410565b6040518263ffffffff1660e01b81526004016116ff91815260200190565b600060405180830381600087803b15801561171957600080fd5b505af115801561172d573d6000803e3d6000fd5b5050505061173b8984612c82565b60008381526015602052604090819020805460ff1916600117905560165460a0830151918301516001600160a01b039091169163f8cc2cdc91309187916117829190614410565b6040516001600160e01b031960e086901b1681526001600160a01b03909316600484015260248301919091526044820152606401600060405180830381600087803b1580156117d057600080fd5b505af11580156117e4573d6000803e3d6000fd5b5050505050509695505050505050565b606060018054610810906144d2565b6000600260ff8516108015906118225750600c5460ff90811690851611155b61186e5760405162461bcd60e51b815260206004820152601560248201527f696e76616c6964206c6f636b206475726174696f6e00000000000000000000006044820152606401610908565b60126000815461187d9061450d565b91905081905590506118be6040518060c001604052806000815260200160008152602001600081526020016000815260200160008152602001600081525090565b7f000000000000000000000000000000000000000000000000000000000000000042106118ed5742815261198f565b3360009081527fae2fb815867fe7017446a0261fd7dc2c1cc2b483ff88888ad1f6b5c91993eb36602052604090205460ff1661196b5760405162461bcd60e51b815260206004820152600960248201527f746f6f206561726c7900000000000000000000000000000000000000000000006044820152606401610908565b7f000000000000000000000000000000000000000000000000000000000000000081525b61199f60ff861662278d0061443c565b81516119ab9190614410565b60208201526040810186905283156119d757670de0b6b3a76400006060820152600060a0820152611ae1565b601054815160405163debb587160e01b81527f000000000000000000000000000000000000000000000000000000000000000060048201527f00000000000000000000000000000000000000000000000000000000000000006024820152604481019190915260ff871660648201526001600160a01b039091169063debb58719060840160206040518083038186803b158015611a7357600080fd5b505afa158015611a87573d6000803e3d6000fd5b505050506040513d601f19601f82011682018060405250810190611aab9190614055565b60608201819052670de0b6b3a764000090611ac790829061445b565b611ad1908861443c565b611adb9190614428565b60a08201525b6000828152600b60209081526040808320845181559184015160018301558301516002820155606083015160038201556080830151600482015560a0830151600590910155600d8054889290611b38908490614410565b909155505060ff85166000908152601460205260408120805491611b5b8361450d565b9091555050600f54611b78906001600160a01b0316333089612dd0565b600f5460a08201516040517fa0712d680000000000000000000000000000000000000000000000000000000081526001600160a01b039092169163a0712d6891611bc89160040190815260200190565b600060405180830381600087803b158015611be257600080fd5b505af1158015611bf6573d6000803e3d6000fd5b50505050611c048783612c82565b6000828152601560205260409020805460ff19168415801591909117909155611cba5760165460a082015160408301516001600160a01b039092169163f8cc2cdc9130918691611c5391614410565b6040516001600160e01b031960e086901b1681526001600160a01b03909316600484015260248301919091526044820152606401600060405180830381600087803b158015611ca157600080fd5b505af1158015611cb5573d6000803e3d6000fd5b505050505b5095945050505050565b610e38338383612e21565b6000611cdb81336126d6565b50601680546001600160a01b0319166001600160a01b0392909216919091179055565b611d083383612756565b611d7a5760405162461bcd60e51b815260206004820152603160248201527f4552433732313a207472616e736665722063616c6c6572206973206e6f74206f60448201527f776e6572206e6f7220617070726f7665640000000000000000000000000000006064820152608401610908565b611d8684848484612ef0565b50505050565b600080600f60009054906101000a90046001600160a01b03166001600160a01b03166318160ddd6040518163ffffffff1660e01b815260040160206040518083038186803b158015611ddd57600080fd5b505afa158015611df1573d6000803e3d6000fd5b505050506040513d601f19601f82011682018060405250810190611e159190614055565b600c5490915060ff165b600260ff821610611f625760105460405163debb587160e01b81527f000000000000000000000000000000000000000000000000000000000000000060048201527f0000000000000000000000000000000000000000000000000000000000000000602482015242604482015260ff831660648201526000916001600160a01b03169063debb58719060840160206040518083038186803b158015611ec357600080fd5b505afa158015611ed7573d6000803e3d6000fd5b505050506040513d601f19601f82011682018060405250810190611efb9190614055565b90506000670de0b6b3a7640000611f12818461445b565b611f1c908861443c565b611f269190614428565b90506a1b929b9a4d1cb514340000611f3e8583614410565b11611f4d575090949350505050565b50508080611f5a906144b5565b915050611e1f565b5060009392505050565b33611f76836113f9565b6001600160a01b0316816001600160a01b031614611fd65760405162461bcd60e51b815260206004820152601760248201527f63616c6c6572206973206e6f7420746865206f776e65720000000000000000006044820152606401610908565b600080611fe285611188565b91509150808411156120365760405162461bcd60e51b815260206004820152601f60248201527f616d6f756e74206578636565647320636c61696d61626c6520696e636f6d65006044820152606401610908565b6000858152600b60205260409020828511156122d7576000612058848761445b565b90506000612066858561445b565b612074836305f5e10061443c565b61207e9190614428565b600384015490915060006305f5e100836120a0670de0b6b3a76400008561445b565b6120aa919061443c565b6120b49190614428565b905060006120c2828461445b565b90506000670de0b6b3a76400008760020154836120df919061443c565b6120e99190614428565b60008d81526015602052604090205490915060ff161561219c5760165460058801546001600160a01b039091169063f8cc2cdc9030908f9061212c90869061445b565b6121359061455c565b6040516001600160e01b031960e086901b1681526001600160a01b03909316600484015260248301919091526044820152606401600060405180830381600087803b15801561218357600080fd5b505af1158015612197573d6000803e3d6000fd5b505050505b60008188600501546121ae919061445b565b600f546040517f095ea7b3000000000000000000000000000000000000000000000000000000008152306004820152602481018390529192506001600160a01b03169063095ea7b390604401602060405180830381600087803b15801561221457600080fd5b505af1158015612228573d6000803e3d6000fd5b505050506040513d601f19601f8201168201806040525081019061224c9190613f81565b50600f546040517f42966c68000000000000000000000000000000000000000000000000000000008152600481018390526001600160a01b03909116906342966c6890602401600060405180830381600087803b1580156122ac57600080fd5b505af11580156122c0573d6000803e3d6000fd5b505050506003880192909255600587015550505050505b848160040160008282546122eb9190614410565b909155505060008681526015602052604090205460ff161561238a576016546001600160a01b031663f8cc2cdc30886123238961455c565b6040516001600160e01b031960e086901b1681526001600160a01b03909316600484015260248301919091526044820152606401600060405180830381600087803b15801561237157600080fd5b505af1158015612385573d6000803e3d6000fd5b505050505b600f546123a1906001600160a01b03168587612bf1565b85846001600160a01b03167f34fcbac0073d7c3d388e51312faf357774904998eeb8fca628b9e6f65ee1cbf7876040516123dd91815260200190565b60405180910390a3505050505050565b606061242260136123fd84612f79565b60405160200161240e929190614253565b604051602081830303815290604052613093565b604051602001612432919061418d565b6040516020818303038152906040529050919050565b600061245481336126d6565b50600c805460ff191660ff92909216919091179055565b6000828152600a602052604090206001015461248781336126d6565b610a5a8383612ac7565b606080828067ffffffffffffffff8111156124bc57634e487b7160e01b600052604160045260246000fd5b6040519080825280602002602001820160405280156124e5578160200160208202803683370190505b5092508067ffffffffffffffff81111561250f57634e487b7160e01b600052604160045260246000fd5b604051908082528060200260200182016040528015612538578160200160208202803683370190505b5091505b80156125e45760008061257f87876125538661449e565b95508581811061257357634e487b7160e01b600052603260045260246000fd5b90506020020135611188565b91509150818584815181106125a457634e487b7160e01b600052603260045260246000fd5b602002602001018181525050808484815181106125d157634e487b7160e01b600052603260045260246000fd5b602002602001018181525050505061253c565b509250929050565b60006001600160e01b031982167f780e9d630000000000000000000000000000000000000000000000000000000014806107fb57506107fb8261323e565b60006001600160e01b031982167f7965db0b0000000000000000000000000000000000000000000000000000000014806107fb57506107fb826125ec565b600081815260046020526040902080546001600160a01b0319166001600160a01b038416908117909155819061269d826113f9565b6001600160a01b03167f8c5be1e5ebec7d5bd14f71427d1e84f3dd0314c0f7b2291e5b200ac8c7c3b92560405160405180910390a45050565b6000828152600a602090815260408083206001600160a01b038516845290915290205460ff16610e3857612714816001600160a01b031660146132d9565b61271f8360206132d9565b6040516020016127309291906141d2565b60408051601f198184030181529082905262461bcd60e51b8252610908916004016143fd565b6000818152600260205260408120546001600160a01b03166127cf5760405162461bcd60e51b815260206004820152602c60248201527f4552433732313a206f70657261746f7220717565727920666f72206e6f6e657860448201526b34b9ba32b73a103a37b5b2b760a11b6064820152608401610908565b60006127da836113f9565b9050806001600160a01b0316846001600160a01b031614806128155750836001600160a01b031661280a84610893565b6001600160a01b0316145b8061284557506001600160a01b0380821660009081526005602090815260408083209388168352929052205460ff165b949350505050565b826001600160a01b0316612860826113f9565b6001600160a01b0316146128dc5760405162461bcd60e51b815260206004820152602960248201527f4552433732313a207472616e73666572206f6620746f6b656e2074686174206960448201527f73206e6f74206f776e00000000000000000000000000000000000000000000006064820152608401610908565b6001600160a01b0382166129575760405162461bcd60e51b8152602060048201526024808201527f4552433732313a207472616e7366657220746f20746865207a65726f2061646460448201527f72657373000000000000000000000000000000000000000000000000000000006064820152608401610908565b6129628383836134e4565b61296d600082612668565b6001600160a01b038316600090815260036020526040812080546001929061299690849061445b565b90915550506001600160a01b03821660009081526003602052604081208054600192906129c4908490614410565b909155505060008181526002602052604080822080546001600160a01b0319166001600160a01b0386811691821790925591518493918716917fddf252ad1be2c89b69c2b068fc378daa952ba7f163c4a11628f55a4df523b3ef91a4505050565b6000828152600a602090815260408083206001600160a01b038516845290915290205460ff16610e38576000828152600a602090815260408083206001600160a01b03851684529091529020805460ff19166001179055612a833390565b6001600160a01b0316816001600160a01b0316837f2f8788117e7eff1d82e926ec794901d17c78024a50270940304540a733656f0d60405160405180910390a45050565b6000828152600a602090815260408083206001600160a01b038516845290915290205460ff1615610e38576000828152600a602090815260408083206001600160a01b0385168085529252808320805460ff1916905551339285917ff6391f5c32d9c69d2a47ea670b442974b53935d1edc7fd64eb21e047a839171b9190a45050565b6000612b55826113f9565b9050612b63816000846134e4565b612b6e600083612668565b6001600160a01b0381166000908152600360205260408120805460019290612b9790849061445b565b909155505060008281526002602052604080822080546001600160a01b0319169055518391906001600160a01b038416907fddf252ad1be2c89b69c2b068fc378daa952ba7f163c4a11628f55a4df523b3ef908390a45050565b6040516001600160a01b038316602482015260448101829052610a5a9084907fa9059cbb00000000000000000000000000000000000000000000000000000000906064015b60408051601f198184030181529190526020810180517bffffffffffffffffffffffffffffffffffffffffffffffffffffffff166001600160e01b03199093169290921790915261357b565b6001600160a01b038216612cd85760405162461bcd60e51b815260206004820181905260248201527f4552433732313a206d696e7420746f20746865207a65726f20616464726573736044820152606401610908565b6000818152600260205260409020546001600160a01b031615612d3d5760405162461bcd60e51b815260206004820152601c60248201527f4552433732313a20746f6b656e20616c7265616479206d696e746564000000006044820152606401610908565b612d49600083836134e4565b6001600160a01b0382166000908152600360205260408120805460019290612d72908490614410565b909155505060008181526002602052604080822080546001600160a01b0319166001600160a01b03861690811790915590518392907fddf252ad1be2c89b69c2b068fc378daa952ba7f163c4a11628f55a4df523b3ef908290a45050565b6040516001600160a01b0380851660248301528316604482015260648101829052611d869085907f23b872dd0000000000000000000000000000000000000000000000000000000090608401612c36565b816001600160a01b0316836001600160a01b03161415612e835760405162461bcd60e51b815260206004820152601960248201527f4552433732313a20617070726f766520746f2063616c6c6572000000000000006044820152606401610908565b6001600160a01b03838116600081815260056020908152604080832094871680845294825291829020805460ff191686151590811790915591519182527f17307eab39ab6107e8899845ad3d59bd9653f200f220920489ca2b5937696c31910160405180910390a3505050565b612efb84848461284d565b612f0784848484613660565b611d865760405162461bcd60e51b815260206004820152603260248201527f4552433732313a207472616e7366657220746f206e6f6e20455243373231526560448201527f63656976657220696d706c656d656e74657200000000000000000000000000006064820152608401610908565b606081612f9d5750506040805180820190915260018152600360fc1b602082015290565b8160005b8115612fc75780612fb18161450d565b9150612fc09050600a83614428565b9150612fa1565b60008167ffffffffffffffff811115612ff057634e487b7160e01b600052604160045260246000fd5b6040519080825280601f01601f19166020018201604052801561301a576020820181803683370190505b5090505b84156128455761302f60018361445b565b915061303c600a86614548565b613047906030614410565b60f81b81838151811061306a57634e487b7160e01b600052603260045260246000fd5b60200101906001600160f81b031916908160001a90535061308c600a86614428565b945061301e565b8051606090806130b3575050604080516020810190915260008152919050565b600060036130c2836002614410565b6130cc9190614428565b6130d790600461443c565b905060006130e6826020614410565b67ffffffffffffffff81111561310c57634e487b7160e01b600052604160045260246000fd5b6040519080825280601f01601f191660200182016040528015613136576020820181803683370190505b50905060006040518060600160405280604081526020016145fc604091399050600181016020830160005b868110156131c2576003818a01810151603f601282901c8116860151600c83901c8216870151600684901c831688015192909316870151600891821b60ff94851601821b92841692909201901b91160160e01b835260049092019101613161565b5060038606600181146131dc576002811461320857613230565b7f3d3d000000000000000000000000000000000000000000000000000000000000600119830152613230565b7f3d000000000000000000000000000000000000000000000000000000000000006000198301525b505050918152949350505050565b60006001600160e01b031982167f80ac58cd0000000000000000000000000000000000000000000000000000000014806132a157506001600160e01b031982167f5b5e139f00000000000000000000000000000000000000000000000000000000145b806107fb57507f01ffc9a7000000000000000000000000000000000000000000000000000000006001600160e01b03198316146107fb565b606060006132e883600261443c565b6132f3906002614410565b67ffffffffffffffff81111561331957634e487b7160e01b600052604160045260246000fd5b6040519080825280601f01601f191660200182016040528015613343576020820181803683370190505b509050600360fc1b8160008151811061336c57634e487b7160e01b600052603260045260246000fd5b60200101906001600160f81b031916908160001a9053507f7800000000000000000000000000000000000000000000000000000000000000816001815181106133c557634e487b7160e01b600052603260045260246000fd5b60200101906001600160f81b031916908160001a90535060006133e984600261443c565b6133f4906001614410565b90505b6001811115613495577f303132333435363738396162636465660000000000000000000000000000000085600f166010811061344357634e487b7160e01b600052603260045260246000fd5b1a60f81b82828151811061346757634e487b7160e01b600052603260045260246000fd5b60200101906001600160f81b031916908160001a90535060049490941c9361348e8161449e565b90506133f7565b508315610c8f5760405162461bcd60e51b815260206004820181905260248201527f537472696e67733a20686578206c656e67746820696e73756666696369656e746044820152606401610908565b6134ef8383836137c3565b6017546040517f56d7cc05000000000000000000000000000000000000000000000000000000008152600481018390526001600160a01b0385811660248301528481166044830152909116906356d7cc0590606401600060405180830381600087803b15801561355e57600080fd5b505af1158015613572573d6000803e3d6000fd5b50505050505050565b60006135d0826040518060400160405280602081526020017f5361666545524332303a206c6f772d6c6576656c2063616c6c206661696c6564815250856001600160a01b031661387b9092919063ffffffff16565b805190915015610a5a57808060200190518101906135ee9190613f81565b610a5a5760405162461bcd60e51b815260206004820152602a60248201527f5361666545524332303a204552433230206f7065726174696f6e20646964206e60448201527f6f742073756363656564000000000000000000000000000000000000000000006064820152608401610908565b60006001600160a01b0384163b156137b857604051630a85bd0160e11b81526001600160a01b0385169063150b7a02906136a4903390899088908890600401614393565b602060405180830381600087803b1580156136be57600080fd5b505af19250505080156136ee575060408051601f3d908101601f191682019092526136eb91810190613ff3565b60015b61379e573d80801561371c576040519150601f19603f3d011682016040523d82523d6000602084013e613721565b606091505b5080516137965760405162461bcd60e51b815260206004820152603260248201527f4552433732313a207472616e7366657220746f206e6f6e20455243373231526560448201527f63656976657220696d706c656d656e74657200000000000000000000000000006064820152608401610908565b805181602001fd5b6001600160e01b031916630a85bd0160e11b149050612845565b506001949350505050565b6001600160a01b03831661381e5761381981600880546000838152600960205260408120829055600182018355919091527ff3f7a9fe364faab93b216da50a3214154f22a0a2b415b23a84c8169e8b636ee30155565b613841565b816001600160a01b0316836001600160a01b03161461384157613841838261388a565b6001600160a01b03821661385857610a5a81613927565b826001600160a01b0316826001600160a01b031614610a5a57610a5a8282613a00565b60606128458484600085613a44565b60006001613897846114a3565b6138a1919061445b565b6000838152600760205260409020549091508082146138f4576001600160a01b03841660009081526006602090815260408083208584528252808320548484528184208190558352600790915290208190555b5060009182526007602090815260408084208490556001600160a01b039094168352600681528383209183525290812055565b6008546000906139399060019061445b565b6000838152600960205260408120546008805493945090928490811061396f57634e487b7160e01b600052603260045260246000fd5b90600052602060002001549050806008838154811061399e57634e487b7160e01b600052603260045260246000fd5b60009182526020808320909101929092558281526009909152604080822084905585825281205560088054806139e457634e487b7160e01b600052603160045260246000fd5b6001900381819060005260206000200160009055905550505050565b6000613a0b836114a3565b6001600160a01b039093166000908152600660209081526040808320868452825280832085905593825260079052919091209190915550565b606082471015613abc5760405162461bcd60e51b815260206004820152602660248201527f416464726573733a20696e73756666696369656e742062616c616e636520666f60448201527f722063616c6c00000000000000000000000000000000000000000000000000006064820152608401610908565b843b613b0a5760405162461bcd60e51b815260206004820152601d60248201527f416464726573733a2063616c6c20746f206e6f6e2d636f6e74726163740000006044820152606401610908565b600080866001600160a01b03168587604051613b269190614171565b60006040518083038185875af1925050503d8060008114613b63576040519150601f19603f3d011682016040523d82523d6000602084013e613b68565b606091505b5091509150613b78828286613b83565b979650505050505050565b60608315613b92575081610c8f565b825115613ba25782518084602001fd5b8160405162461bcd60e51b815260040161090891906143fd565b828054613bc8906144d2565b90600052602060002090601f016020900481019282613bea5760008555613c30565b82601f10613c0357805160ff1916838001178555613c30565b82800160010185558215613c30579182015b82811115613c30578251825591602001919060010190613c15565b50613c3c929150613c40565b5090565b5b80821115613c3c5760008155600101613c41565b600067ffffffffffffffff80841115613c7057613c706145be565b604051601f8501601f19908116603f01168101908282118183101715613c9857613c986145be565b81604052809350858152868686011115613cb157600080fd5b858560208301376000602087830101525050509392505050565b80356001600160a01b0381168114613ce257600080fd5b919050565b803560ff81168114613ce257600080fd5b600060208284031215613d09578081fd5b610c8f82613ccb565b60008060408385031215613d24578081fd5b613d2d83613ccb565b9150613d3b60208401613ccb565b90509250929050565b600080600060608486031215613d58578081fd5b613d6184613ccb565b9250613d6f60208501613ccb565b9150604084013590509250925092565b60008060008060808587031215613d94578081fd5b613d9d85613ccb565b9350613dab60208601613ccb565b925060408501359150606085013567ffffffffffffffff811115613dcd578182fd5b8501601f81018713613ddd578182fd5b613dec87823560208401613c55565b91505092959194509250565b60008060408385031215613e0a578182fd5b613e1383613ccb565b91506020830135613e23816145d4565b809150509250929050565b60008060408385031215613e40578182fd5b613e4983613ccb565b946020939093013593505050565b60008060008060008060c08789031215613e6f578182fd5b613e7887613ccb565b95506020870135945060408701359350613e9460608801613ce7565b92506080870135915060a087013590509295509295509295565b600080600080600060a08688031215613ec5578081fd5b613ece86613ccb565b945060208601359350613ee360408701613ce7565b92506060860135613ef3816145d4565b91506080860135613f03816145d4565b809150509295509295909350565b60008060208385031215613f23578182fd5b823567ffffffffffffffff80821115613f3a578384fd5b818501915085601f830112613f4d578384fd5b813581811115613f5b578485fd5b8660208260051b8501011115613f6f578485fd5b60209290920196919550909350505050565b600060208284031215613f92578081fd5b8151610c8f816145d4565b600060208284031215613fae578081fd5b5035919050565b60008060408385031215613fc7578182fd5b82359150613d3b60208401613ccb565b600060208284031215613fe8578081fd5b8135610c8f816145e5565b600060208284031215614004578081fd5b8151610c8f816145e5565b600060208284031215614020578081fd5b813567ffffffffffffffff811115614036578182fd5b8201601f81018413614046578182fd5b61284584823560208401613c55565b600060208284031215614066578081fd5b5051919050565b6000806040838503121561407f578182fd5b823591506020830135613e23816145d4565b600080604083850312156140a3578182fd5b50508035926020909101359150565b600080604083850312156140c4578182fd5b505080516020909101519092909150565b6000602082840312156140e6578081fd5b610c8f82613ce7565b6000815180845260208085019450808401835b8381101561411e57815187529582019590820190600101614102565b509495945050505050565b60008151808452614141816020860160208601614472565b601f01601f19169290920160200192915050565b60008151614167818560208601614472565b9290920192915050565b60008251614183818460208701614472565b9190910192915050565b7f646174613a6170706c69636174696f6e2f6a736f6e3b6261736536342c0000008152600082516141c581601d850160208701614472565b91909101601d0192915050565b7f416363657373436f6e74726f6c3a206163636f756e742000000000000000000081526000835161420a816017850160208801614472565b7f206973206d697373696e6720726f6c65200000000000000000000000000000006017918401918201528351614247816028840160208801614472565b01602801949350505050565b7f7b226e616d65223a225061737369766520496e636f6d65204e46542028332c338152600060207f292b222c226465736372697074696f6e223a22222c2261747472696275746573818401527f223a22222c22696d616765223a220000000000000000000000000000000000006040840152604e82865484600182811c9150808316806142e157607f831692505b8683108114156142ff57634e487b7160e01b88526022600452602488fd5b808015614313576001811461432857614358565b60ff1985168a880152838a0187019550614358565b60008c815260209020895b8581101561434e5781548c82018a0152908401908901614333565b505086848b010195505b5050505050613b7861436a8288614155565b7f227d000000000000000000000000000000000000000000000000000000000000815260020190565b60006001600160a01b038087168352808616602084015250836040830152608060608301526143c56080830184614129565b9695505050505050565b6040815260006143e260408301856140ef565b82810360208401526143f481856140ef565b95945050505050565b602081526000610c8f6020830184614129565b6000821982111561442357614423614592565b500190565b600082614437576144376145a8565b500490565b600081600019048311821515161561445657614456614592565b500290565b60008282101561446d5761446d614592565b500390565b60005b8381101561448d578181015183820152602001614475565b83811115611d865750506000910152565b6000816144ad576144ad614592565b506000190190565b600060ff8216806144c8576144c8614592565b6000190192915050565b600181811c908216806144e657607f821691505b6020821081141561450757634e487b7160e01b600052602260045260246000fd5b50919050565b600060001982141561452157614521614592565b5060010190565b600060ff821660ff81141561453f5761453f614592565b60010192915050565b600082614557576145576145a8565b500690565b60007f800000000000000000000000000000000000000000000000000000000000000082141561458e5761458e614592565b0390565b634e487b7160e01b600052601160045260246000fd5b634e487b7160e01b600052601260045260246000fd5b634e487b7160e01b600052604160045260246000fd5b80151581146145e257600080fd5b50565b6001600160e01b0319811681146145e257600080fdfe4142434445464748494a4b4c4d4e4f505152535455565758595a6162636465666768696a6b6c6d6e6f707172737475767778797a303132333435363738392b2fa2646970667358221220d734dac9d60bd1cc47f7b3f43668eaaadbecfbc4a32f30d419abd22712e1af1a64736f6c63430008040033",
  "devdoc": {
    "kind": "dev",
    "methods": {
      "approve(address,uint256)": {
        "details": "See {IERC721-approve}."
      },
      "balanceOf(address)": {
        "details": "See {IERC721-balanceOf}."
      },
      "getApproved(uint256)": {
        "details": "See {IERC721-getApproved}."
      },
      "getRoleAdmin(bytes32)": {
        "details": "Returns the admin role that controls `role`. See {grantRole} and {revokeRole}. To change a role's admin, use {_setRoleAdmin}."
      },
      "grantRole(bytes32,address)": {
        "details": "Grants `role` to `account`. If `account` had not been already granted `role`, emits a {RoleGranted} event. Requirements: - the caller must have ``role``'s admin role."
      },
      "hasRole(bytes32,address)": {
        "details": "Returns `true` if `account` has been granted `role`."
      },
      "isApprovedForAll(address,address)": {
        "details": "See {IERC721-isApprovedForAll}."
      },
      "name()": {
        "details": "See {IERC721Metadata-name}."
      },
      "ownerOf(uint256)": {
        "details": "See {IERC721-ownerOf}."
      },
      "renounceRole(bytes32,address)": {
        "details": "Revokes `role` from the calling account. Roles are often managed via {grantRole} and {revokeRole}: this function's purpose is to provide a mechanism for accounts to lose their privileges if they are compromised (such as when a trusted device is misplaced). If the calling account had been revoked `role`, emits a {RoleRevoked} event. Requirements: - the caller must be `account`."
      },
      "revokeRole(bytes32,address)": {
        "details": "Revokes `role` from `account`. If `account` had been granted `role`, emits a {RoleRevoked} event. Requirements: - the caller must have ``role``'s admin role."
      },
      "safeTransferFrom(address,address,uint256)": {
        "details": "See {IERC721-safeTransferFrom}."
      },
      "safeTransferFrom(address,address,uint256,bytes)": {
        "details": "See {IERC721-safeTransferFrom}."
      },
      "setApprovalForAll(address,bool)": {
        "details": "See {IERC721-setApprovalForAll}."
      },
      "symbol()": {
        "details": "See {IERC721Metadata-symbol}."
      },
      "tokenByIndex(uint256)": {
        "details": "See {IERC721Enumerable-tokenByIndex}."
      },
      "tokenOfOwnerByIndex(address,uint256)": {
        "details": "See {IERC721Enumerable-tokenOfOwnerByIndex}."
      },
      "tokenURI(uint256)": {
        "details": "See {IERC721Metadata-tokenURI}."
      },
      "totalSupply()": {
        "details": "See {IERC721Enumerable-totalSupply}."
      },
      "transferFrom(address,address,uint256)": {
        "details": "See {IERC721-transferFrom}."
      }
    },
    "version": 1
  },
  "userdoc": {
    "kind": "user",
    "methods": {},
    "version": 1
  },
  "storageLayout": {
    "storage": [
      {
        "astId": 1487,
        "contract": "contracts/PassiveIncomeNFT.sol:PassiveIncomeNFT",
        "label": "_name",
        "offset": 0,
        "slot": "0",
        "type": "t_string_storage"
      },
      {
        "astId": 1489,
        "contract": "contracts/PassiveIncomeNFT.sol:PassiveIncomeNFT",
        "label": "_symbol",
        "offset": 0,
        "slot": "1",
        "type": "t_string_storage"
      },
      {
        "astId": 1493,
        "contract": "contracts/PassiveIncomeNFT.sol:PassiveIncomeNFT",
        "label": "_owners",
        "offset": 0,
        "slot": "2",
        "type": "t_mapping(t_uint256,t_address)"
      },
      {
        "astId": 1497,
        "contract": "contracts/PassiveIncomeNFT.sol:PassiveIncomeNFT",
        "label": "_balances",
        "offset": 0,
        "slot": "3",
        "type": "t_mapping(t_address,t_uint256)"
      },
      {
        "astId": 1501,
        "contract": "contracts/PassiveIncomeNFT.sol:PassiveIncomeNFT",
        "label": "_tokenApprovals",
        "offset": 0,
        "slot": "4",
        "type": "t_mapping(t_uint256,t_address)"
      },
      {
        "astId": 1507,
        "contract": "contracts/PassiveIncomeNFT.sol:PassiveIncomeNFT",
        "label": "_operatorApprovals",
        "offset": 0,
        "slot": "5",
        "type": "t_mapping(t_address,t_mapping(t_address,t_bool))"
      },
      {
        "astId": 2441,
        "contract": "contracts/PassiveIncomeNFT.sol:PassiveIncomeNFT",
        "label": "_ownedTokens",
        "offset": 0,
        "slot": "6",
        "type": "t_mapping(t_address,t_mapping(t_uint256,t_uint256))"
      },
      {
        "astId": 2445,
        "contract": "contracts/PassiveIncomeNFT.sol:PassiveIncomeNFT",
        "label": "_ownedTokensIndex",
        "offset": 0,
        "slot": "7",
        "type": "t_mapping(t_uint256,t_uint256)"
      },
      {
        "astId": 2448,
        "contract": "contracts/PassiveIncomeNFT.sol:PassiveIncomeNFT",
        "label": "_allTokens",
        "offset": 0,
        "slot": "8",
        "type": "t_array(t_uint256)dyn_storage"
      },
      {
        "astId": 2452,
        "contract": "contracts/PassiveIncomeNFT.sol:PassiveIncomeNFT",
        "label": "_allTokensIndex",
        "offset": 0,
        "slot": "9",
        "type": "t_mapping(t_uint256,t_uint256)"
      },
      {
        "astId": 24,
        "contract": "contracts/PassiveIncomeNFT.sol:PassiveIncomeNFT",
        "label": "_roles",
        "offset": 0,
        "slot": "10",
        "type": "t_mapping(t_bytes32,t_struct(RoleData)19_storage)"
      },
      {
        "astId": 5312,
        "contract": "contracts/PassiveIncomeNFT.sol:PassiveIncomeNFT",
        "label": "locks",
        "offset": 0,
        "slot": "11",
        "type": "t_mapping(t_uint256,t_struct(Lock)5303_storage)"
      },
      {
        "astId": 5314,
        "contract": "contracts/PassiveIncomeNFT.sol:PassiveIncomeNFT",
        "label": "maxLockDuration",
        "offset": 0,
        "slot": "12",
        "type": "t_uint8"
      },
      {
        "astId": 5316,
        "contract": "contracts/PassiveIncomeNFT.sol:PassiveIncomeNFT",
        "label": "totalLocked",
        "offset": 0,
        "slot": "13",
        "type": "t_uint256"
      },
      {
        "astId": 5318,
        "contract": "contracts/PassiveIncomeNFT.sol:PassiveIncomeNFT",
        "label": "totalClaimed",
        "offset": 0,
        "slot": "14",
        "type": "t_uint256"
      },
      {
        "astId": 5320,
        "contract": "contracts/PassiveIncomeNFT.sol:PassiveIncomeNFT",
        "label": "piTOKEN",
        "offset": 0,
        "slot": "15",
        "type": "t_address"
      },
      {
        "astId": 5323,
        "contract": "contracts/PassiveIncomeNFT.sol:PassiveIncomeNFT",
        "label": "piCALCULATOR",
        "offset": 0,
        "slot": "16",
        "type": "t_contract(IPassiveIncomeCalculator)4844"
      },
      {
        "astId": 5325,
        "contract": "contracts/PassiveIncomeNFT.sol:PassiveIncomeNFT",
        "label": "_piTokenBalance",
        "offset": 0,
        "slot": "17",
        "type": "t_uint256"
      },
      {
        "astId": 5327,
        "contract": "contracts/PassiveIncomeNFT.sol:PassiveIncomeNFT",
        "label": "_tokenIds",
        "offset": 0,
        "slot": "18",
        "type": "t_uint256"
      },
      {
        "astId": 5329,
        "contract": "contracts/PassiveIncomeNFT.sol:PassiveIncomeNFT",
        "label": "_imageBaseURI",
        "offset": 0,
        "slot": "19",
        "type": "t_string_storage"
      },
      {
        "astId": 5333,
        "contract": "contracts/PassiveIncomeNFT.sol:PassiveIncomeNFT",
        "label": "_lockDurations",
        "offset": 0,
        "slot": "20",
        "type": "t_mapping(t_uint8,t_uint256)"
      },
      {
        "astId": 5337,
        "contract": "contracts/PassiveIncomeNFT.sol:PassiveIncomeNFT",
        "label": "_generateRevenue",
        "offset": 0,
        "slot": "21",
        "type": "t_mapping(t_uint256,t_bool)"
      },
      {
        "astId": 5340,
        "contract": "contracts/PassiveIncomeNFT.sol:PassiveIncomeNFT",
        "label": "revenueShare",
        "offset": 0,
        "slot": "22",
        "type": "t_contract(RevenueShare)8692"
      },
      {
        "astId": 5343,
        "contract": "contracts/PassiveIncomeNFT.sol:PassiveIncomeNFT",
        "label": "marketplace",
        "offset": 0,
        "slot": "23",
        "type": "t_contract(IMarketplace)8580"
      }
    ],
    "types": {
      "t_address": {
        "encoding": "inplace",
        "label": "address",
        "numberOfBytes": "20"
      },
      "t_array(t_uint256)dyn_storage": {
        "base": "t_uint256",
        "encoding": "dynamic_array",
        "label": "uint256[]",
        "numberOfBytes": "32"
      },
      "t_bool": {
        "encoding": "inplace",
        "label": "bool",
        "numberOfBytes": "1"
      },
      "t_bytes32": {
        "encoding": "inplace",
        "label": "bytes32",
        "numberOfBytes": "32"
      },
      "t_contract(IMarketplace)8580": {
        "encoding": "inplace",
        "label": "contract IMarketplace",
        "numberOfBytes": "20"
      },
      "t_contract(IPassiveIncomeCalculator)4844": {
        "encoding": "inplace",
        "label": "contract IPassiveIncomeCalculator",
        "numberOfBytes": "20"
      },
      "t_contract(RevenueShare)8692": {
        "encoding": "inplace",
        "label": "contract RevenueShare",
        "numberOfBytes": "20"
      },
      "t_mapping(t_address,t_bool)": {
        "encoding": "mapping",
        "key": "t_address",
        "label": "mapping(address => bool)",
        "numberOfBytes": "32",
        "value": "t_bool"
      },
      "t_mapping(t_address,t_mapping(t_address,t_bool))": {
        "encoding": "mapping",
        "key": "t_address",
        "label": "mapping(address => mapping(address => bool))",
        "numberOfBytes": "32",
        "value": "t_mapping(t_address,t_bool)"
      },
      "t_mapping(t_address,t_mapping(t_uint256,t_uint256))": {
        "encoding": "mapping",
        "key": "t_address",
        "label": "mapping(address => mapping(uint256 => uint256))",
        "numberOfBytes": "32",
        "value": "t_mapping(t_uint256,t_uint256)"
      },
      "t_mapping(t_address,t_uint256)": {
        "encoding": "mapping",
        "key": "t_address",
        "label": "mapping(address => uint256)",
        "numberOfBytes": "32",
        "value": "t_uint256"
      },
      "t_mapping(t_bytes32,t_struct(RoleData)19_storage)": {
        "encoding": "mapping",
        "key": "t_bytes32",
        "label": "mapping(bytes32 => struct AccessControl.RoleData)",
        "numberOfBytes": "32",
        "value": "t_struct(RoleData)19_storage"
      },
      "t_mapping(t_uint256,t_address)": {
        "encoding": "mapping",
        "key": "t_uint256",
        "label": "mapping(uint256 => address)",
        "numberOfBytes": "32",
        "value": "t_address"
      },
      "t_mapping(t_uint256,t_bool)": {
        "encoding": "mapping",
        "key": "t_uint256",
        "label": "mapping(uint256 => bool)",
        "numberOfBytes": "32",
        "value": "t_bool"
      },
      "t_mapping(t_uint256,t_struct(Lock)5303_storage)": {
        "encoding": "mapping",
        "key": "t_uint256",
        "label": "mapping(uint256 => struct PassiveIncomeNFT.Lock)",
        "numberOfBytes": "32",
        "value": "t_struct(Lock)5303_storage"
      },
      "t_mapping(t_uint256,t_uint256)": {
        "encoding": "mapping",
        "key": "t_uint256",
        "label": "mapping(uint256 => uint256)",
        "numberOfBytes": "32",
        "value": "t_uint256"
      },
      "t_mapping(t_uint8,t_uint256)": {
        "encoding": "mapping",
        "key": "t_uint8",
        "label": "mapping(uint8 => uint256)",
        "numberOfBytes": "32",
        "value": "t_uint256"
      },
      "t_string_storage": {
        "encoding": "bytes",
        "label": "string",
        "numberOfBytes": "32"
      },
      "t_struct(Lock)5303_storage": {
        "encoding": "inplace",
        "label": "struct PassiveIncomeNFT.Lock",
        "members": [
          {
            "astId": 5292,
            "contract": "contracts/PassiveIncomeNFT.sol:PassiveIncomeNFT",
            "label": "startTime",
            "offset": 0,
            "slot": "0",
            "type": "t_uint256"
          },
          {
            "astId": 5294,
            "contract": "contracts/PassiveIncomeNFT.sol:PassiveIncomeNFT",
            "label": "endTime",
            "offset": 0,
            "slot": "1",
            "type": "t_uint256"
          },
          {
            "astId": 5296,
            "contract": "contracts/PassiveIncomeNFT.sol:PassiveIncomeNFT",
            "label": "lockedAmount",
            "offset": 0,
            "slot": "2",
            "type": "t_uint256"
          },
          {
            "astId": 5298,
            "contract": "contracts/PassiveIncomeNFT.sol:PassiveIncomeNFT",
            "label": "multiplier",
            "offset": 0,
            "slot": "3",
            "type": "t_uint256"
          },
          {
            "astId": 5300,
            "contract": "contracts/PassiveIncomeNFT.sol:PassiveIncomeNFT",
            "label": "claimed",
            "offset": 0,
            "slot": "4",
            "type": "t_uint256"
          },
          {
            "astId": 5302,
            "contract": "contracts/PassiveIncomeNFT.sol:PassiveIncomeNFT",
            "label": "maxPayout",
            "offset": 0,
            "slot": "5",
            "type": "t_uint256"
          }
        ],
        "numberOfBytes": "192"
      },
      "t_struct(RoleData)19_storage": {
        "encoding": "inplace",
        "label": "struct AccessControl.RoleData",
        "members": [
          {
            "astId": 16,
            "contract": "contracts/PassiveIncomeNFT.sol:PassiveIncomeNFT",
            "label": "members",
            "offset": 0,
            "slot": "0",
            "type": "t_mapping(t_address,t_bool)"
          },
          {
            "astId": 18,
            "contract": "contracts/PassiveIncomeNFT.sol:PassiveIncomeNFT",
            "label": "adminRole",
            "offset": 0,
            "slot": "1",
            "type": "t_bytes32"
          }
        ],
        "numberOfBytes": "64"
      },
      "t_uint256": {
        "encoding": "inplace",
        "label": "uint256",
        "numberOfBytes": "32"
      },
      "t_uint8": {
        "encoding": "inplace",
        "label": "uint8",
        "numberOfBytes": "1"
      }
    }
  }
}