{
  "address": "0x8A2baC12fA52Cff055FAc75509bf7aB789089e10",
  "abi": [
    {
      "inputs": [
        {
          "internalType": "address",
          "name": "tokenContractAddress",
          "type": "address"
        },
        {
          "internalType": "address",
          "name": "opsAddress",
          "type": "address"
        }
      ],
      "stateMutability": "nonpayable",
      "type": "constructor"
    },
    {
      "anonymous": false,
      "inputs": [
        {
          "indexed": true,
          "internalType": "address",
          "name": "contractAddress",
          "type": "address"
        },
        {
          "indexed": true,
          "internalType": "uint256",
          "name": "tokenId",
          "type": "uint256"
        },
        {
          "indexed": false,
          "internalType": "address",
          "name": "rentShare",
          "type": "address"
        },
        {
          "indexed": false,
          "internalType": "address",
          "name": "rentDistributor",
          "type": "address"
        },
        {
          "indexed": false,
          "internalType": "bytes32",
          "name": "taskId",
          "type": "bytes32"
        }
      ],
      "name": "RentShareDeployed",
      "type": "event"
    },
    {
      "anonymous": false,
      "inputs": [
        {
          "indexed": true,
          "internalType": "bytes32",
          "name": "role",
          "type": "bytes32"
        },
        {
          "indexed": true,
          "internalType": "bytes32",
          "name": "previousAdminRole",
          "type": "bytes32"
        },
        {
          "indexed": true,
          "internalType": "bytes32",
          "name": "newAdminRole",
          "type": "bytes32"
        }
      ],
      "name": "RoleAdminChanged",
      "type": "event"
    },
    {
      "anonymous": false,
      "inputs": [
        {
          "indexed": true,
          "internalType": "bytes32",
          "name": "role",
          "type": "bytes32"
        },
        {
          "indexed": true,
          "internalType": "address",
          "name": "account",
          "type": "address"
        },
        {
          "indexed": true,
          "internalType": "address",
          "name": "sender",
          "type": "address"
        }
      ],
      "name": "RoleGranted",
      "type": "event"
    },
    {
      "anonymous": false,
      "inputs": [
        {
          "indexed": true,
          "internalType": "bytes32",
          "name": "role",
          "type": "bytes32"
        },
        {
          "indexed": true,
          "internalType": "address",
          "name": "account",
          "type": "address"
        },
        {
          "indexed": true,
          "internalType": "address",
          "name": "sender",
          "type": "address"
        }
      ],
      "name": "RoleRevoked",
      "type": "event"
    },
    {
      "inputs": [],
      "name": "CLAIMER_ROLE",
      "outputs": [
        {
          "internalType": "bytes32",
          "name": "",
          "type": "bytes32"
        }
      ],
      "stateMutability": "view",
      "type": "function"
    },
    {
      "inputs": [],
      "name": "DEFAULT_ADMIN_ROLE",
      "outputs": [
        {
          "internalType": "bytes32",
          "name": "",
          "type": "bytes32"
        }
      ],
      "stateMutability": "view",
      "type": "function"
    },
    {
      "inputs": [],
      "name": "DEPOSITOR_ROLE",
      "outputs": [
        {
          "internalType": "bytes32",
          "name": "",
          "type": "bytes32"
        }
      ],
      "stateMutability": "view",
      "type": "function"
    },
    {
      "inputs": [],
      "name": "DISTRIBUTOR_ROLE",
      "outputs": [
        {
          "internalType": "bytes32",
          "name": "",
          "type": "bytes32"
        }
      ],
      "stateMutability": "view",
      "type": "function"
    },
    {
      "inputs": [],
      "name": "SHARE_MANAGER_ROLE",
      "outputs": [
        {
          "internalType": "bytes32",
          "name": "",
          "type": "bytes32"
        }
      ],
      "stateMutability": "view",
      "type": "function"
    },
    {
      "inputs": [
        {
          "internalType": "address",
          "name": "contractAddress",
          "type": "address"
        },
        {
          "internalType": "uint256",
          "name": "tokenId",
          "type": "uint256"
        },
        {
          "internalType": "uint256",
          "name": "amount",
          "type": "uint256"
        }
      ],
      "name": "deposit",
      "outputs": [],
      "stateMutability": "nonpayable",
      "type": "function"
    },
    {
      "inputs": [],
      "name": "distributorAddress",
      "outputs": [
        {
          "internalType": "address",
          "name": "",
          "type": "address"
        }
      ],
      "stateMutability": "view",
      "type": "function"
    },
    {
      "inputs": [
        {
          "internalType": "address",
          "name": "contractAddress",
          "type": "address"
        },
        {
          "internalType": "uint256",
          "name": "tokenId",
          "type": "uint256"
        }
      ],
      "name": "distributorForToken",
      "outputs": [
        {
          "internalType": "contract RentDistributor",
          "name": "",
          "type": "address"
        }
      ],
      "stateMutability": "view",
      "type": "function"
    },
    {
      "inputs": [
        {
          "internalType": "address",
          "name": "contractAddress",
          "type": "address"
        },
        {
          "internalType": "uint256",
          "name": "tokenId",
          "type": "uint256"
        }
      ],
      "name": "forToken",
      "outputs": [
        {
          "internalType": "contract RevenueShare",
          "name": "",
          "type": "address"
        }
      ],
      "stateMutability": "nonpayable",
      "type": "function"
    },
    {
      "inputs": [],
      "name": "getManagedContracts",
      "outputs": [
        {
          "components": [
            {
              "internalType": "address",
              "name": "revenueShare",
              "type": "address"
            },
            {
              "internalType": "address",
              "name": "rentDistributor",
              "type": "address"
            },
            {
              "internalType": "address",
              "name": "contractAddress",
              "type": "address"
            },
            {
              "internalType": "uint256",
              "name": "tokenId",
              "type": "uint256"
            },
            {
              "internalType": "bytes32",
              "name": "distributorTaskId",
              "type": "bytes32"
            }
          ],
          "internalType": "struct TangibleRentShare.RevenueShareContract[]",
          "name": "contracts",
          "type": "tuple[]"
        }
      ],
      "stateMutability": "view",
      "type": "function"
    },
    {
      "inputs": [
        {
          "internalType": "bytes32",
          "name": "role",
          "type": "bytes32"
        }
      ],
      "name": "getRoleAdmin",
      "outputs": [
        {
          "internalType": "bytes32",
          "name": "",
          "type": "bytes32"
        }
      ],
      "stateMutability": "view",
      "type": "function"
    },
    {
      "inputs": [
        {
          "internalType": "bytes32",
          "name": "role",
          "type": "bytes32"
        },
        {
          "internalType": "address",
          "name": "account",
          "type": "address"
        }
      ],
      "name": "grantRole",
      "outputs": [],
      "stateMutability": "nonpayable",
      "type": "function"
    },
    {
      "inputs": [
        {
          "internalType": "bytes32",
          "name": "role",
          "type": "bytes32"
        },
        {
          "internalType": "address",
          "name": "account",
          "type": "address"
        }
      ],
      "name": "hasRole",
      "outputs": [
        {
          "internalType": "bool",
          "name": "",
          "type": "bool"
        }
      ],
      "stateMutability": "view",
      "type": "function"
    },
    {
      "inputs": [],
      "name": "ops",
      "outputs": [
        {
          "internalType": "address",
          "name": "",
          "type": "address"
        }
      ],
      "stateMutability": "view",
      "type": "function"
    },
    {
      "inputs": [
        {
          "internalType": "bytes32",
          "name": "role",
          "type": "bytes32"
        },
        {
          "internalType": "address",
          "name": "account",
          "type": "address"
        }
      ],
      "name": "renounceRole",
      "outputs": [],
      "stateMutability": "nonpayable",
      "type": "function"
    },
    {
      "inputs": [],
      "name": "revenueToken",
      "outputs": [
        {
          "internalType": "address",
          "name": "",
          "type": "address"
        }
      ],
      "stateMutability": "view",
      "type": "function"
    },
    {
      "inputs": [
        {
          "internalType": "bytes32",
          "name": "role",
          "type": "bytes32"
        },
        {
          "internalType": "address",
          "name": "account",
          "type": "address"
        }
      ],
      "name": "revokeRole",
      "outputs": [],
      "stateMutability": "nonpayable",
      "type": "function"
    },
    {
      "inputs": [
        {
          "internalType": "address",
          "name": "contractAddress",
          "type": "address"
        },
        {
          "internalType": "uint256",
          "name": "tokenId",
          "type": "uint256"
        }
      ],
      "name": "startDistributor",
      "outputs": [],
      "stateMutability": "nonpayable",
      "type": "function"
    },
    {
      "inputs": [
        {
          "internalType": "address",
          "name": "contractAddress",
          "type": "address"
        },
        {
          "internalType": "uint256",
          "name": "tokenId",
          "type": "uint256"
        }
      ],
      "name": "stopDistributor",
      "outputs": [],
      "stateMutability": "nonpayable",
      "type": "function"
    },
    {
      "inputs": [
        {
          "internalType": "bytes4",
          "name": "interfaceId",
          "type": "bytes4"
        }
      ],
      "name": "supportsInterface",
      "outputs": [
        {
          "internalType": "bool",
          "name": "",
          "type": "bool"
        }
      ],
      "stateMutability": "view",
      "type": "function"
    },
    {
      "inputs": [
        {
          "internalType": "address",
          "name": "contractAddress",
          "type": "address"
        },
        {
          "internalType": "uint256",
          "name": "tokenId",
          "type": "uint256"
        },
        {
          "internalType": "uint256",
          "name": "amount",
          "type": "uint256"
        }
      ],
      "name": "withdraw",
      "outputs": [],
      "stateMutability": "nonpayable",
      "type": "function"
    }
  ],
  "transactionHash": "0xaa3786b5790b11980dc4d06f4e1829c1ee7c1e01484439b4f804083968088f39",
  "args": [
    "0xA0fB0349526B7213b6be0F1D9A62f952A9179D96",
    "0xB3f5503f93d5Ef84b06993a1975B9D21B962892F"
  ],
  "numDeployments": 25,
  "solcInputHash": "f3545d3032b55b8f75f04a620af3499c",
  "bytecode": "0x60c06040523480156200001157600080fd5b5060405162005f8138038062005f81833981016040819052620000349162000121565b6001600160601b0319606083811b821660805282901b1660a0526200005b60003362000063565b505062000158565b6000828152602081815260408083206001600160a01b038516845290915290205460ff1662000100576000828152602081815260408083206001600160a01b03851684529091529020805460ff19166001179055620000bf3390565b6001600160a01b0316816001600160a01b0316837f2f8788117e7eff1d82e926ec794901d17c78024a50270940304540a733656f0d60405160405180910390a45b5050565b80516001600160a01b03811681146200011c57600080fd5b919050565b6000806040838503121562000134578182fd5b6200013f8362000104565b91506200014f6020840162000104565b90509250929050565b60805160601c60a05160601c615dbe620001c3600039600081816103d301528181610a08015281816110080152611193015260008181610278015281816104ea015281816105630152818161073201528181610793015281816112b001526113d90152615dbe6000f3fe60806040523480156200001157600080fd5b5060043610620001955760003560e01c80639f53d94111620000e9578063b1de12911162000097578063e70abe92116200006e578063e70abe9214620003cd578063f0bd87cc14620003f5578063fc5f18d3146200041d57600080fd5b8063b1de12911462000388578063b5c5f672146200039f578063d547741f14620003b657600080fd5b8063a3b0b5a311620000cc578063a3b0b5a31462000324578063a51af4c5146200034c578063b079662c146200036057600080fd5b80639f53d9411462000304578063a217fddf146200031b57600080fd5b806336568abe116200014757806385479916116200012a57806385479916146200029a57806391d1485414620002b35780639dc3c50614620002ed57600080fd5b806336568abe146200025b578063556e4e68146200027257600080fd5b8063248a9ca3116200017c578063248a9ca314620001df57806329cc93de14620002145780632f2ff15d146200024457600080fd5b806301ffc9a7146200019a5780630efe6a8b14620001c6575b600080fd5b620001b1620001ab36600462001cd5565b62000445565b60405190151581526020015b60405180910390f35b620001dd620001d736600462001c1e565b620004af565b005b62000205620001f036600462001c75565b60009081526020819052604090206001015490565b604051908152602001620001bd565b6200022b6200022536600462001bf2565b62000662565b6040516001600160a01b039091168152602001620001bd565b620001dd6200025536600462001ca7565b62000c18565b620001dd6200026c36600462001ca7565b62000c47565b6200022b7f000000000000000000000000000000000000000000000000000000000000000081565b620002a462000cdb565b604051620001bd919062001ebb565b620001b1620002c436600462001ca7565b6000918252602082815260408084206001600160a01b0393909316845291905290205460ff1690565b6200022b620002fe36600462001bf2565b62000e50565b620001dd6200031536600462001bf2565b62000f15565b62000205600081565b620002057fe16b3d8fc79140c62874442c8b523e98592b429e73c0db67686a5b378b29f33681565b6001546200022b906001600160a01b031681565b620002057fae7c689704f34080183a85b40737aa33c547df6b33d9c2e9da214e4f135d1f7681565b620001dd6200039936600462001bf2565b6200107f565b620001dd620003b036600462001c1e565b62001254565b620001dd620003c736600462001ca7565b6200146b565b6200022b7f000000000000000000000000000000000000000000000000000000000000000081565b620002057f85faced7bde13e1a7dad704b895f006e704f207617d68166b31ba2d79624862d81565b620002057fe5667d34d7ea8d6fdb3aa71a0a5b85e4cf7f68356dd003cd638556b0eea2bce581565b60006001600160e01b031982167f7965db0b000000000000000000000000000000000000000000000000000000001480620004a957507f01ffc9a7000000000000000000000000000000000000000000000000000000006001600160e01b03198316145b92915050565b7fe16b3d8fc79140c62874442c8b523e98592b429e73c0db67686a5b378b29f336620004dc813362001495565b620005136001600160a01b037f0000000000000000000000000000000000000000000000000000000000000000163330856200151c565b600062000521858562000e50565b6040517f095ea7b30000000000000000000000000000000000000000000000000000000081526001600160a01b038083166004830152602482018690529192507f00000000000000000000000000000000000000000000000000000000000000009091169063095ea7b390604401602060405180830381600087803b158015620005aa57600080fd5b505af1158015620005bf573d6000803e3d6000fd5b505050506040513d601f19601f82011682018060405250810190620005e5919062001c53565b506040517fb6b55f25000000000000000000000000000000000000000000000000000000008152600481018490526001600160a01b0382169063b6b55f2590602401600060405180830381600087803b1580156200064257600080fd5b505af115801562000657573d6000803e3d6000fd5b505050505050505050565b6040516bffffffffffffffffffffffff19606084901b166020820152603481018290526000908190605401604051602081830303815290604052905060006001600160a01b0316600282604051620006bb919062001d2d565b908152604051908190036020019020546001600160a01b0316141562000be457620006e860003362001495565b6003805460018101825560009190915281516200072d917fc2575a0e9e593c00f959f8c92f12db2869c3395a3b0502d05e2516446f71f85b0190602084019062001b13565b5060007f00000000000000000000000000000000000000000000000000000000000000006040516200075f9062001ba2565b6001600160a01b039091168152602001604051809103906000f0801580156200078c573d6000803e3d6000fd5b50905060007f0000000000000000000000000000000000000000000000000000000000000000604051620007c09062001bb0565b6001600160a01b039091168152602001604051809103906000f080158015620007ed573d6000803e3d6000fd5b50604051632f2ff15d60e01b8152600060048201523360248201529091506001600160a01b03831690632f2ff15d90604401600060405180830381600087803b1580156200083a57600080fd5b505af11580156200084f573d6000803e3d6000fd5b5050604051632f2ff15d60e01b81527fe16b3d8fc79140c62874442c8b523e98592b429e73c0db67686a5b378b29f33660048201526001600160a01b03848116602483015285169250632f2ff15d9150604401600060405180830381600087803b158015620008bd57600080fd5b505af1158015620008d2573d6000803e3d6000fd5b50506040517fb4a84c230000000000000000000000000000000000000000000000000000000081526001600160a01b0385811660048301528416925063b4a84c239150602401600060405180830381600087803b1580156200093357600080fd5b505af115801562000948573d6000803e3d6000fd5b5050604051632f2ff15d60e01b81527fe16b3d8fc79140c62874442c8b523e98592b429e73c0db67686a5b378b29f33660048201523060248201526001600160a01b0384169250632f2ff15d9150604401600060405180830381600087803b158015620009b457600080fd5b505af1158015620009c9573d6000803e3d6000fd5b5050604051632f2ff15d60e01b81527f85faced7bde13e1a7dad704b895f006e704f207617d68166b31ba2d79624862d60048201526001600160a01b037f00000000000000000000000000000000000000000000000000000000000000008116602483015284169250632f2ff15d9150604401600060405180830381600087803b15801562000a5757600080fd5b505af115801562000a6c573d6000803e3d6000fd5b505050506040518060a00160405280836001600160a01b03168152602001826001600160a01b03168152602001876001600160a01b031681526020018681526020016000801b81525060028460405162000ac7919062001d2d565b9081526040805160209281900383019020835181547fffffffffffffffffffffffff00000000000000000000000000000000000000009081166001600160a01b03928316178355938501516001830180548616918316919091179055918401516002820180549094169216919091179091556060820151600382015560809091015160049091015562000b5b86866200107f565b84866001600160a01b03167fde00b39a88186743e396cc46b9c2b1b32b887711c06bd75307e4f69385f0384d848460028860405162000b9b919062001d2d565b9081526040519081900360200181206004015462000bd99392916001600160a01b039384168152919092166020820152604081019190915260600190565b60405180910390a350505b60028160405162000bf6919062001d2d565b908152604051908190036020019020546001600160a01b031691505092915050565b60008281526020819052604090206001015462000c36813362001495565b62000c428383620015ac565b505050565b6001600160a01b038116331462000ccb5760405162461bcd60e51b815260206004820152602f60248201527f416363657373436f6e74726f6c3a2063616e206f6e6c792072656e6f756e636560448201527f20726f6c657320666f722073656c66000000000000000000000000000000000060648201526084015b60405180910390fd5b62000cd782826200164c565b5050565b6003546060908067ffffffffffffffff81111562000d0957634e487b7160e01b600052604160045260246000fd5b60405190808252806020026020018201604052801562000d6457816020015b6040805160a08101825260008082526020808301829052928201819052606082018190526080820152825260001990920191018162000d285790505b50915060005b8181101562000e4b5760026003828154811062000d9757634e487b7160e01b600052603260045260246000fd5b9060005260206000200160405162000db0919062001d4b565b90815260408051918290036020908101832060a08401835280546001600160a01b039081168552600182015481169285019290925260028101549091169183019190915260038101546060830152600401546080820152835184908390811062000e2a57634e487b7160e01b600052603260045260246000fd5b6020026020010181905250808062000e429062002011565b91505062000d6a565b505090565b6040516bffffffffffffffffffffffff19606084901b1660208201526034810182905260009081906054016040516020818303038152906040529050600060028260405162000ea0919062001d2d565b908152604051908190036020019020600101546001600160a01b031690508062000f0d5760405162461bcd60e51b815260206004820152600e60248201527f6e6f206469737472696275746f72000000000000000000000000000000000000604482015260640162000cc2565b949350505050565b600062000f23813362001495565b6040516bffffffffffffffffffffffff19606085901b166020820152603481018390526000906054016040516020818303038152906040529050600060028260405162000f71919062001d2d565b908152604051908190036020019020600481015490915062000fd65760405162461bcd60e51b815260206004820152601360248201527f7461736b206973206e6f742072756e6e696e6700000000000000000000000000604482015260640162000cc2565b6004818101546040517fee8ca3b5000000000000000000000000000000000000000000000000000000008152918201527f00000000000000000000000000000000000000000000000000000000000000006001600160a01b03169063ee8ca3b590602401600060405180830381600087803b1580156200105557600080fd5b505af11580156200106a573d6000803e3d6000fd5b50506000600490930192909255505050505050565b60006200108d813362001495565b6040516bffffffffffffffffffffffff19606085901b1660208201526034810183905260009060540160405160208183030381529060405290506000600282604051620010db919062001d2d565b908152604051908190036020019020600481015490915015620011045762001104858562000f15565b60018101546040805160048082526024820183526020820180517bffffffffffffffffffffffffffffffffffffffffffffffffffffffff167fcf5303cf0000000000000000000000000000000000000000000000000000000017905291517f8b92696a0000000000000000000000000000000000000000000000000000000081526001600160a01b03938416937f00000000000000000000000000000000000000000000000000000000000000001692638b92696a92620011ee9286927fe4fc6b6d0000000000000000000000000000000000000000000000000000000092849290910162001e73565b602060405180830381600087803b1580156200120957600080fd5b505af11580156200121e573d6000803e3d6000fd5b505050506040513d601f19601f8201168201806040525081019062001244919062001c8e565b8260040181905550505050505050565b600062001262813362001495565b600062001270858562000e50565b90508262001331576040517f70a082310000000000000000000000000000000000000000000000000000000081526001600160a01b0382811660048301527f000000000000000000000000000000000000000000000000000000000000000016906370a082319060240160206040518083038186803b158015620012f357600080fd5b505afa15801562001308573d6000803e3d6000fd5b505050506040513d601f19601f820116820180604052508101906200132e919062001c8e565b92505b6040517f2e1a7d4d000000000000000000000000000000000000000000000000000000008152600481018490526001600160a01b03821690632e1a7d4d90602401600060405180830381600087803b1580156200138d57600080fd5b505af1158015620013a2573d6000803e3d6000fd5b50506040517fa9059cbb000000000000000000000000000000000000000000000000000000008152336004820152602481018690527f00000000000000000000000000000000000000000000000000000000000000006001600160a01b0316925063a9059cbb9150604401602060405180830381600087803b1580156200142857600080fd5b505af11580156200143d573d6000803e3d6000fd5b505050506040513d601f19601f8201168201806040525081019062001463919062001c53565b505050505050565b60008281526020819052604090206001015462001489813362001495565b62000c4283836200164c565b6000828152602081815260408083206001600160a01b038516845290915290205460ff1662000cd757620014d4816001600160a01b03166014620016cc565b620014e1836020620016cc565b604051602001620014f492919062001dee565b60408051601f198184030181529082905262461bcd60e51b825262000cc29160040162001f39565b604080516001600160a01b0385811660248301528416604482015260648082018490528251808303909101815260849091019091526020810180517bffffffffffffffffffffffffffffffffffffffffffffffffffffffff167f23b872dd00000000000000000000000000000000000000000000000000000000179052620015a69085906200190e565b50505050565b6000828152602081815260408083206001600160a01b038516845290915290205460ff1662000cd7576000828152602081815260408083206001600160a01b03851684529091529020805460ff19166001179055620016083390565b6001600160a01b0316816001600160a01b0316837f2f8788117e7eff1d82e926ec794901d17c78024a50270940304540a733656f0d60405160405180910390a45050565b6000828152602081815260408083206001600160a01b038516845290915290205460ff161562000cd7576000828152602081815260408083206001600160a01b0385168085529252808320805460ff1916905551339285917ff6391f5c32d9c69d2a47ea670b442974b53935d1edc7fd64eb21e047a839171b9190a45050565b60606000620016dd83600262001f69565b620016ea90600262001f4e565b67ffffffffffffffff8111156200171157634e487b7160e01b600052604160045260246000fd5b6040519080825280601f01601f1916602001820160405280156200173c576020820181803683370190505b5090507f3000000000000000000000000000000000000000000000000000000000000000816000815181106200178257634e487b7160e01b600052603260045260246000fd5b60200101906001600160f81b031916908160001a9053507f780000000000000000000000000000000000000000000000000000000000000081600181518110620017dc57634e487b7160e01b600052603260045260246000fd5b60200101906001600160f81b031916908160001a90535060006200180284600262001f69565b6200180f90600162001f4e565b90505b6001811115620018b6577f303132333435363738396162636465660000000000000000000000000000000085600f16601081106200186057634e487b7160e01b600052603260045260246000fd5b1a60f81b8282815181106200188557634e487b7160e01b600052603260045260246000fd5b60200101906001600160f81b031916908160001a90535060049490941c93620018ae8162001fba565b905062001812565b508315620019075760405162461bcd60e51b815260206004820181905260248201527f537472696e67733a20686578206c656e67746820696e73756666696369656e74604482015260640162000cc2565b9392505050565b600062001965826040518060400160405280602081526020017f5361666545524332303a206c6f772d6c6576656c2063616c6c206661696c6564815250856001600160a01b0316620019fa9092919063ffffffff16565b80519091501562000c42578080602001905181019062001986919062001c53565b62000c425760405162461bcd60e51b815260206004820152602a60248201527f5361666545524332303a204552433230206f7065726174696f6e20646964206e60448201527f6f74207375636365656400000000000000000000000000000000000000000000606482015260840162000cc2565b606062000f0d848460008585843b62001a565760405162461bcd60e51b815260206004820152601d60248201527f416464726573733a2063616c6c20746f206e6f6e2d636f6e7472616374000000604482015260640162000cc2565b600080866001600160a01b0316858760405162001a74919062001d2d565b60006040518083038185875af1925050503d806000811462001ab3576040519150601f19603f3d011682016040523d82523d6000602084013e62001ab8565b606091505b509150915062001aca82828662001ad5565b979650505050505050565b6060831562001ae657508162001907565b82511562001af75782518084602001fd5b8160405162461bcd60e51b815260040162000cc2919062001f39565b82805462001b219062001fd4565b90600052602060002090601f01602090048101928262001b45576000855562001b90565b82601f1062001b6057805160ff191683800117855562001b90565b8280016001018555821562001b90579182015b8281111562001b9057825182559160200191906001019062001b73565b5062001b9e92915062001bbe565b5090565b6126ca806200204683390190565b611679806200471083390190565b5b8082111562001b9e576000815560010162001bbf565b80356001600160a01b038116811462001bed57600080fd5b919050565b6000806040838503121562001c05578182fd5b62001c108362001bd5565b946020939093013593505050565b60008060006060848603121562001c33578081fd5b62001c3e8462001bd5565b95602085013595506040909401359392505050565b60006020828403121562001c65578081fd5b8151801515811462001907578182fd5b60006020828403121562001c87578081fd5b5035919050565b60006020828403121562001ca0578081fd5b5051919050565b6000806040838503121562001cba578182fd5b8235915062001ccc6020840162001bd5565b90509250929050565b60006020828403121562001ce7578081fd5b81356001600160e01b03198116811462001907578182fd5b6000815180845262001d1981602086016020860162001f8b565b601f01601f19169290920160200192915050565b6000825162001d4181846020870162001f8b565b9190910192915050565b600080835482600182811c91508083168062001d6857607f831692505b602080841082141562001d8957634e487b7160e01b87526022600452602487fd5b81801562001da0576001811462001db25762001de0565b60ff1986168952848901965062001de0565b60008a815260209020885b8681101562001dd85781548b82015290850190830162001dbd565b505084890196505b509498975050505050505050565b7f416363657373436f6e74726f6c3a206163636f756e742000000000000000000081526000835162001e2881601785016020880162001f8b565b7f206973206d697373696e6720726f6c6520000000000000000000000000000000601791840191820152835162001e6781602884016020880162001f8b565b01602801949350505050565b60006001600160a01b0380871683526001600160e01b0319861660208401528085166040840152506080606083015262001eb1608083018462001cff565b9695505050505050565b602080825282518282018190526000919060409081850190868401855b8281101562001f2c57815180516001600160a01b03908116865287820151811688870152868201511686860152606080820151908601526080908101519085015260a0909301929085019060010162001ed8565b5091979650505050505050565b60208152600062001907602083018462001cff565b6000821982111562001f645762001f646200202f565b500190565b600081600019048311821515161562001f865762001f866200202f565b500290565b60005b8381101562001fa857818101518382015260200162001f8e565b83811115620015a65750506000910152565b60008162001fcc5762001fcc6200202f565b506000190190565b600181811c9082168062001fe957607f821691505b602082108114156200200b57634e487b7160e01b600052602260045260246000fd5b50919050565b60006000198214156200202857620020286200202f565b5060010190565b634e487b7160e01b600052601160045260246000fdfe60a06040523480156200001157600080fd5b50604051620026ca380380620026ca83398101604081905262000034916200012e565b6001600160601b0319606082901b166080526001805480820182556000918252427fb10e2d527612073b26eecdfd717e6a320cf44b4afac2b0732d9fcbe2b7fa0cf6909101556200008690336200008d565b506200015e565b6000828152602081815260408083206001600160a01b038516845290915290205460ff166200012a576000828152602081815260408083206001600160a01b03851684529091529020805460ff19166001179055620000e93390565b6001600160a01b0316816001600160a01b0316837f2f8788117e7eff1d82e926ec794901d17c78024a50270940304540a733656f0d60405160405180910390a45b5050565b60006020828403121562000140578081fd5b81516001600160a01b038116811462000157578182fd5b9392505050565b60805160601c612538620001926000396000818161031201528181610a3101528181610b050152610ed201526125386000f3fe608060405234801561001057600080fd5b50600436106101da5760003560e01c806391d1485411610104578063bab2f552116100a2578063eeb57b8811610071578063eeb57b88146104d9578063f8cc2cdc146104f9578063fac2c6211461050c578063fc5f18d31461051f57600080fd5b8063bab2f55214610498578063d547741f146104a0578063ddeae033146104b3578063ee8ad528146104c657600080fd5b8063a3b0b5a3116100de578063a3b0b5a314610424578063afbce3b91461044b578063b079662c1461045e578063b6b55f251461048557600080fd5b806391d14854146103c55780639eac5c93146103fc578063a217fddf1461041c57600080fd5b806338c361e71161017c578063556e4e681161014b578063556e4e681461030d57806367acd8a01461034c5780636a0cc2051461035f5780637722dcfd1461038a57600080fd5b806338c361e71461029c57806348cc8d0c146102bc57806351615faf146102cf578063552bb9c3146102fa57600080fd5b8063248a9ca3116101b8578063248a9ca3146102485780632ddbd13a1461026b5780632f2ff15d1461027457806336568abe1461028957600080fd5b806301ffc9a7146101df57806307c9b254146102075780631b33871014610228575b600080fd5b6101f26101ed366004612109565b610546565b60405190151581526020015b60405180910390f35b61021a610215366004611f80565b6105af565b6040519081526020016101fe565b61021a6102363660046120c2565b60036020526000908152604090205481565b61021a6102563660046120c2565b60009081526020819052604090206001015490565b61021a60025481565b6102876102823660046120da565b6105fc565b005b6102876102973660046120da565b610627565b61021a6102aa366004611f48565b60086020526000908152604090205481565b61021a6102ca366004611f48565b6106b8565b61021a6102dd366004612131565b805160208183018101805160078252928201919093012091525481565b610287610308366004611f80565b6108a3565b6103347f000000000000000000000000000000000000000000000000000000000000000081565b6040516001600160a01b0390911681526020016101fe565b61033461035a3660046120c2565b610a82565b61021a61036d366004612131565b805160208183018101805160058252928201919093012091525481565b61021a610398366004612164565b81516020818401810180516006825292820194820194909420919093529091526000908152604090205481565b6101f26103d33660046120da565b6000918252602082815260408084206001600160a01b0393909316845291905290205460ff1690565b61021a61040a3660046120c2565b60046020526000908152604090205481565b61021a600081565b61021a7fe16b3d8fc79140c62874442c8b523e98592b429e73c0db67686a5b378b29f33681565b61021a6104593660046120c2565b610aac565b61021a7fae7c689704f34080183a85b40737aa33c547df6b33d9c2e9da214e4f135d1f7681565b6102876104933660046120c2565b610acd565b61021a610b83565b6102876104ae3660046120da565b610bc3565b6102876104c1366004611f48565b610be9565b61021a6104d4366004611f48565b610eff565b6104ec6104e7366004611fdf565b6110cc565b6040516101fe919061225c565b610287610507366004611fab565b61120c565b61028761051a366004611f48565b6114c0565b61021a7fe5667d34d7ea8d6fdb3aa71a0a5b85e4cf7f68356dd003cd638556b0eea2bce581565b60006001600160e01b031982167f7965db0b0000000000000000000000000000000000000000000000000000000014806105a957507f01ffc9a7000000000000000000000000000000000000000000000000000000006001600160e01b03198316145b92915050565b6040516bffffffffffffffffffffffff19606084901b16602082015260348101829052600090819060540160405160208183030381529060405290506105f48161161a565b949350505050565b60008281526020819052604090206001015461061881336117d3565b6106228383611851565b505050565b6001600160a01b03811633146106aa5760405162461bcd60e51b815260206004820152602f60248201527f416363657373436f6e74726f6c3a2063616e206f6e6c792072656e6f756e636560448201527f20726f6c657320666f722073656c66000000000000000000000000000000000060648201526084015b60405180910390fd5b6106b482826118ef565b5050565b600954600090815b8181101561089c576000600982815481106106eb57634e487b7160e01b600052603260045260246000fd5b60009182526020822001546040516370a0823160e01b81526001600160a01b038881166004830152909116925082919082906370a082319060240160206040518083038186803b15801561073e57600080fd5b505afa158015610752573d6000803e3d6000fd5b505050506040513d601f19601f8201168201806040525081019061077691906121a7565b905060005b8181101561088557604051632f745c5960e01b81526001600160a01b0389811660048301526024820183905260009190851690632f745c599060440160206040518083038186803b1580156107cf57600080fd5b505afa1580156107e3573d6000803e3d6000fd5b505050506040513d601f19601f8201168201806040525081019061080791906121a7565b6040516bffffffffffffffffffffffff19606088901b16602082015260348101829052909150600090605401604051602081830303815290604052905060058160405161085491906121bf565b9081526020016040518091039020548961086e9190612380565b98505050808061087d90612489565b91505061077b565b50505050808061089490612489565b9150506106c0565b5050919050565b6040517f6352211e000000000000000000000000000000000000000000000000000000008152600481018290526000906001600160a01b03841690636352211e9060240160206040518083038186803b1580156108ff57600080fd5b505afa158015610913573d6000803e3d6000fd5b505050506040513d601f19601f820116820180604052508101906109379190611f64565b90506001600160a01b03811633148061097e57503360009081527ff663af79306ec33a756b61b761d57de03396e7b060895197032ddb181285b7bb602052604090205460ff165b6109ca5760405162461bcd60e51b815260206004820152601460248201527f756e617574686f72697a656420636c61696d657200000000000000000000000060448201526064016106a1565b60006109d4610b83565b6040516bffffffffffffffffffffffff19606087901b1660208201526034810185905290915060009060540160405160208183030381529060405290506000610a1c8261161a565b90508015610a7a57610a586001600160a01b037f000000000000000000000000000000000000000000000000000000000000000016858361196e565b82600783604051610a6991906121bf565b908152604051908190036020019020555b505050505050565b60098181548110610a9257600080fd5b6000918252602090912001546001600160a01b0316905081565b60018181548110610abc57600080fd5b600091825260209091200154905081565b7fe16b3d8fc79140c62874442c8b523e98592b429e73c0db67686a5b378b29f336610af881336117d3565b610b2d6001600160a01b037f0000000000000000000000000000000000000000000000000000000000000000163330856119ff565b6001805480820182556000918252427fb10e2d527612073b26eecdfd717e6a320cf44b4afac2b0732d9fcbe2b7fa0cf6909101558290600490610b6e610b83565b81526020810191909152604001600020555050565b60018054600091610b94818361242f565b81548110610bb257634e487b7160e01b600052603260045260246000fd5b906000526020600020015491505090565b600082815260208190526040902060010154610bdf81336117d3565b61062283836118ef565b6001600160a01b038116331480610c2e57503360009081527ff663af79306ec33a756b61b761d57de03396e7b060895197032ddb181285b7bb602052604090205460ff165b610c7a5760405162461bcd60e51b815260206004820152601460248201527f756e617574686f72697a656420636c61696d657200000000000000000000000060448201526064016106a1565b600080610c85610b83565b60095490915060005b81811015610e7457600060098281548110610cb957634e487b7160e01b600052603260045260246000fd5b60009182526020822001546040516370a0823160e01b81526001600160a01b038981166004830152909116925082919082906370a082319060240160206040518083038186803b158015610d0c57600080fd5b505afa158015610d20573d6000803e3d6000fd5b505050506040513d601f19601f82011682018060405250810190610d4491906121a7565b905060005b81811015610e5d57604051632f745c5960e01b81526001600160a01b038a811660048301526024820183905260009190851690632f745c599060440160206040518083038186803b158015610d9d57600080fd5b505afa158015610db1573d6000803e3d6000fd5b505050506040513d601f19601f82011682018060405250810190610dd591906121a7565b6040516bffffffffffffffffffffffff19606088901b166020820152603481018290529091506000906054016040516020818303038152906040529050610e1b8161161a565b610e25908b612380565b995088600782604051610e3891906121bf565b9081526040519081900360200190205550819050610e5581612489565b915050610d49565b505050508080610e6c90612489565b915050610c8e565b5060008311610ec55760405162461bcd60e51b815260206004820152601360248201527f6e6f20636c61696d61626c6520616d6f756e740000000000000000000000000060448201526064016106a1565b610ef96001600160a01b037f000000000000000000000000000000000000000000000000000000000000000016858561196e565b50505050565b600954600090815b8181101561089c57600060098281548110610f3257634e487b7160e01b600052603260045260246000fd5b60009182526020822001546040516370a0823160e01b81526001600160a01b038881166004830152909116925082919082906370a082319060240160206040518083038186803b158015610f8557600080fd5b505afa158015610f99573d6000803e3d6000fd5b505050506040513d601f19601f82011682018060405250810190610fbd91906121a7565b905060005b818110156110b557604051632f745c5960e01b81526001600160a01b0389811660048301526024820183905260009190851690632f745c599060440160206040518083038186803b15801561101657600080fd5b505afa15801561102a573d6000803e3d6000fd5b505050506040513d601f19601f8201168201806040525081019061104e91906121a7565b6040516bffffffffffffffffffffffff19606088901b1660208201526034810182905290915060009060540160405160208183030381529060405290506110948161161a565b61109e908a612380565b9850505080806110ad90612489565b915050610fc2565b5050505080806110c490612489565b915050610f07565b815160609060008167ffffffffffffffff8111156110fa57634e487b7160e01b600052604160045260246000fd5b604051908082528060200260200182016040528015611123578160200160208202803683370190505b50905060005b82811015611203576111c686828151811061115457634e487b7160e01b600052603260045260246000fd5b602002602001015186838151811061117c57634e487b7160e01b600052603260045260246000fd5b60200260200101516040516020016111b292919060609290921b6bffffffffffffffffffffffff19168252601482015260340190565b60405160208183030381529060405261161a565b8282815181106111e657634e487b7160e01b600052603260045260246000fd5b6020908102919091010152806111fb81612489565b915050611129565b50949350505050565b7fae7c689704f34080183a85b40737aa33c547df6b33d9c2e9da214e4f135d1f7661123781336117d3565b6040516bffffffffffffffffffffffff19606086901b166020820152603481018490526000906054016040516020818303038152906040529050600061127b610b83565b905060058260405161128d91906121bf565b908152602001604051809103902054600014156112c657806007836040516112b591906121bf565b908152604051908190036020019020555b6005826040516112d691906121bf565b908152602001604051809103902054846112ef906124a4565b13156113205760058260405161130591906121bf565b90815260200160405180910390205461131d906124a4565b93505b8360058360405161133191906121bf565b9081526020016040518091039020600082825461134e9190612328565b925050819055508360068360405161136691906121bf565b9081526020016040518091039020600083815260200190815260200160002060008282546113949190612328565b90915550506002546113a7908590612328565b600255600081815260036020526040812080548692906113c8908490612328565b90915550506001600160a01b03861660009081526008602052604090205461145257600980546001810182557f6e1540171b6c0c960b71a7020d9f60077f6af931a8bbf590da0223dacf75c7af01805473ffffffffffffffffffffffffffffffffffffffff19166001600160a01b0389169081179091559054600091825260086020526040909120555b84866001600160a01b03167fa9208d1cbe4d1566e413448b008baa355e84d4257d66b942a49cf7eedff4654e8660058660405161148f91906121bf565b908152604051908190036020018120546114b0928252602082015260400190565b60405180910390a3505050505050565b7fae7c689704f34080183a85b40737aa33c547df6b33d9c2e9da214e4f135d1f766114eb81336117d3565b6001600160a01b03821660009081526008602052604090205480156115fe576009548181146115ae57600961152160018361242f565b8154811061153f57634e487b7160e01b600052603260045260246000fd5b6000918252602090912001546001600160a01b0316600961156160018561242f565b8154811061157f57634e487b7160e01b600052603260045260246000fd5b9060005260206000200160006101000a8154816001600160a01b0302191690836001600160a01b031602179055505b60098054806115cd57634e487b7160e01b600052603160045260246000fd5b6000828152602090208101600019908101805473ffffffffffffffffffffffffffffffffffffffff19169055019055505b50506001600160a01b0316600090815260086020526040812055565b60008060058360405161162d91906121bf565b90815260405190819003602001812054600154909250906000906007906116559087906121bf565b9081526020016040518091039020549050600060068660405161167891906121bf565b90815260405190819003602001902090506001600081611698818761242f565b815481106116b657634e487b7160e01b600052603260045260246000fd5b6000918252602080832090910154808352600390915260408220546002549193506116e0916123d7565b6000838152602086905260409020549091506116fc90886123d7565b96505b858310801561170d57508482115b156117c7576000828152600460205260409020548361172b81612489565b94506001905061173b858961242f565b8154811061175957634e487b7160e01b600052603260045260246000fd5b9060005260206000200154925081888261177391906123b8565b61177d9190612398565b611787908a612380565b6000848152602087905260409020549099506117a390896123d7565b6000848152600360205260409020549098506117bf90836123d7565b9150506116ff565b50505050505050919050565b6000828152602081815260408083206001600160a01b038516845290915290205460ff166106b45761180f816001600160a01b03166014611a50565b61181a836020611a50565b60405160200161182b9291906121db565b60408051601f198184030181529082905262461bcd60e51b82526106a1916004016122a0565b6000828152602081815260408083206001600160a01b038516845290915290205460ff166106b4576000828152602081815260408083206001600160a01b03851684529091529020805460ff191660011790556118ab3390565b6001600160a01b0316816001600160a01b0316837f2f8788117e7eff1d82e926ec794901d17c78024a50270940304540a733656f0d60405160405180910390a45050565b6000828152602081815260408083206001600160a01b038516845290915290205460ff16156106b4576000828152602081815260408083206001600160a01b0385168085529252808320805460ff1916905551339285917ff6391f5c32d9c69d2a47ea670b442974b53935d1edc7fd64eb21e047a839171b9190a45050565b6040516001600160a01b0383166024820152604481018290526106229084907fa9059cbb00000000000000000000000000000000000000000000000000000000906064015b60408051601f198184030181529190526020810180517bffffffffffffffffffffffffffffffffffffffffffffffffffffffff166001600160e01b031990931692909217909152611c7e565b6040516001600160a01b0380851660248301528316604482015260648101829052610ef99085907f23b872dd00000000000000000000000000000000000000000000000000000000906084016119b3565b60606000611a5f8360026123b8565b611a6a906002612380565b67ffffffffffffffff811115611a9057634e487b7160e01b600052604160045260246000fd5b6040519080825280601f01601f191660200182016040528015611aba576020820181803683370190505b5090507f300000000000000000000000000000000000000000000000000000000000000081600081518110611aff57634e487b7160e01b600052603260045260246000fd5b60200101906001600160f81b031916908160001a9053507f780000000000000000000000000000000000000000000000000000000000000081600181518110611b5857634e487b7160e01b600052603260045260246000fd5b60200101906001600160f81b031916908160001a9053506000611b7c8460026123b8565b611b87906001612380565b90505b6001811115611c28577f303132333435363738396162636465660000000000000000000000000000000085600f1660108110611bd657634e487b7160e01b600052603260045260246000fd5b1a60f81b828281518110611bfa57634e487b7160e01b600052603260045260246000fd5b60200101906001600160f81b031916908160001a90535060049490941c93611c2181612472565b9050611b8a565b508315611c775760405162461bcd60e51b815260206004820181905260248201527f537472696e67733a20686578206c656e67746820696e73756666696369656e7460448201526064016106a1565b9392505050565b6000611cd3826040518060400160405280602081526020017f5361666545524332303a206c6f772d6c6576656c2063616c6c206661696c6564815250856001600160a01b0316611d639092919063ffffffff16565b8051909150156106225780806020019051810190611cf191906120a2565b6106225760405162461bcd60e51b815260206004820152602a60248201527f5361666545524332303a204552433230206f7065726174696f6e20646964206e60448201527f6f7420737563636565640000000000000000000000000000000000000000000060648201526084016106a1565b60606105f4848460008585843b611dbc5760405162461bcd60e51b815260206004820152601d60248201527f416464726573733a2063616c6c20746f206e6f6e2d636f6e747261637400000060448201526064016106a1565b600080866001600160a01b03168587604051611dd891906121bf565b60006040518083038185875af1925050503d8060008114611e15576040519150601f19603f3d011682016040523d82523d6000602084013e611e1a565b606091505b5091509150611e2a828286611e35565b979650505050505050565b60608315611e44575081611c77565b825115611e545782518084602001fd5b8160405162461bcd60e51b81526004016106a191906122a0565b600082601f830112611e7e578081fd5b81356020611e93611e8e83612304565b6122d3565b80838252828201915082860187848660051b8901011115611eb2578586fd5b855b85811015611ed057813584529284019290840190600101611eb4565b5090979650505050505050565b600082601f830112611eed578081fd5b813567ffffffffffffffff811115611f0757611f076124d4565b611f1a601f8201601f19166020016122d3565b818152846020838601011115611f2e578283fd5b816020850160208301379081016020019190915292915050565b600060208284031215611f59578081fd5b8135611c77816124ea565b600060208284031215611f75578081fd5b8151611c77816124ea565b60008060408385031215611f92578081fd5b8235611f9d816124ea565b946020939093013593505050565b600080600060608486031215611fbf578081fd5b8335611fca816124ea565b95602085013595506040909401359392505050565b60008060408385031215611ff1578182fd5b823567ffffffffffffffff80821115612008578384fd5b818501915085601f83011261201b578384fd5b8135602061202b611e8e83612304565b8083825282820191508286018a848660051b890101111561204a578889fd5b8896505b84871015612075578035612061816124ea565b83526001969096019591830191830161204e565b509650508601359250508082111561208b578283fd5b5061209885828601611e6e565b9150509250929050565b6000602082840312156120b3578081fd5b81518015158114611c77578182fd5b6000602082840312156120d3578081fd5b5035919050565b600080604083850312156120ec578182fd5b8235915060208301356120fe816124ea565b809150509250929050565b60006020828403121561211a578081fd5b81356001600160e01b031981168114611c77578182fd5b600060208284031215612142578081fd5b813567ffffffffffffffff811115612158578182fd5b6105f484828501611edd565b60008060408385031215612176578182fd5b823567ffffffffffffffff81111561218c578283fd5b61219885828601611edd565b95602094909401359450505050565b6000602082840312156121b8578081fd5b5051919050565b600082516121d1818460208701612446565b9190910192915050565b7f416363657373436f6e74726f6c3a206163636f756e7420000000000000000000815260008351612213816017850160208801612446565b7f206973206d697373696e6720726f6c65200000000000000000000000000000006017918401918201528351612250816028840160208801612446565b01602801949350505050565b6020808252825182820181905260009190848201906040850190845b8181101561229457835183529284019291840191600101612278565b50909695505050505050565b60208152600082518060208401526122bf816040850160208701612446565b601f01601f19169190910160400192915050565b604051601f8201601f1916810167ffffffffffffffff811182821017156122fc576122fc6124d4565b604052919050565b600067ffffffffffffffff82111561231e5761231e6124d4565b5060051b60200190565b6000808212827f7fffffffffffffffffffffffffffffffffffffffffffffffffffffffffffffff03841381151615612362576123626124be565b82600160ff1b03841281161561237a5761237a6124be565b50500190565b60008219821115612393576123936124be565b500190565b6000826123b357634e487b7160e01b81526012600452602481fd5b500490565b60008160001904831182151516156123d2576123d26124be565b500290565b600080831283600160ff1b018312811516156123f5576123f56124be565b837f7fffffffffffffffffffffffffffffffffffffffffffffffffffffffffffffff018313811615612429576124296124be565b50500390565b600082821015612441576124416124be565b500390565b60005b83811015612461578181015183820152602001612449565b83811115610ef95750506000910152565b600081612481576124816124be565b506000190190565b600060001982141561249d5761249d6124be565b5060010190565b6000600160ff1b8214156124ba576124ba6124be565b0390565b634e487b7160e01b600052601160045260246000fd5b634e487b7160e01b600052604160045260246000fd5b6001600160a01b03811681146124ff57600080fd5b5056fea2646970667358221220f5b254c25b55bfa33f822c8f88a895a9f83de5853c4f67189384dfe61b4c76a664736f6c6343000804003360a06040523480156200001157600080fd5b506040516200167938038062001679833981016040819052620000349162000141565b6001600160601b0319606082901b1660805262000053600033620000a0565b62000060600032620000a0565b6200008c7faf290d8680820aad922855f39b306097b20e28774d6c1ad35a20325630c3a02c32620000a0565b506004805460ff1916600117905562000171565b6000828152602081815260408083206001600160a01b038516845290915290205460ff166200013d576000828152602081815260408083206001600160a01b03851684529091529020805460ff19166001179055620000fc3390565b6001600160a01b0316816001600160a01b0316837f2f8788117e7eff1d82e926ec794901d17c78024a50270940304540a733656f0d60405160405180910390a45b5050565b60006020828403121562000153578081fd5b81516001600160a01b03811681146200016a578182fd5b9392505050565b60805160601c6114c6620001b3600039600081816102310152818161042901528181610602015281816106420152818161086701526109cf01526114c66000f3fe608060405234801561001057600080fd5b50600436106101825760003560e01c80638456cb59116100d8578063b6b55f251161008c578063e4fc6b6d11610066578063e4fc6b6d14610351578063ec87621c14610359578063f0bd87cc1461038057600080fd5b8063b6b55f2514610315578063cf5303cf14610328578063d547741f1461033e57600080fd5b8063a217fddf116100bd578063a217fddf146102d3578063a3b0b5a3146102db578063b4a84c231461030257600080fd5b80638456cb591461029457806391d148541461029c57600080fd5b806338b0789d1161013a57806359c1334b1161011457806359c1334b1461026b5780635c975abb1461027457806363f9554c1461028157600080fd5b806338b0789d1461021b5780633f4ba83a14610224578063556e4e681461022c57600080fd5b80632e1a7d4d1161016b5780632e1a7d4d146101e05780632f2ff15d146101f557806336568abe1461020857600080fd5b806301ffc9a714610187578063248a9ca3146101af575b600080fd5b61019a6101953660046112a9565b6103a7565b60405190151581526020015b60405180910390f35b6101d26101bd366004611266565b60009081526020819052604090206001015490565b6040519081526020016101a6565b6101f36101ee366004611266565b610410565b005b6101f361020336600461127e565b610454565b6101f361021636600461127e565b61047f565b6101d260035481565b6101f361050c565b6102537f000000000000000000000000000000000000000000000000000000000000000081565b6040516001600160a01b0390911681526020016101a6565b6101d260025481565b60045461019a9060ff1681565b600154610253906001600160a01b031681565b6101f3610548565b61019a6102aa36600461127e565b6000918252602082815260408084206001600160a01b0393909316845291905290205460ff1690565b6101d2600081565b6101d27fe16b3d8fc79140c62874442c8b523e98592b429e73c0db67686a5b378b29f33681565b6101f361031036600461122c565b610583565b6101f3610323366004611266565b6105ca565b6103306106d9565b6040516101a69291906113b2565b6101f361034c36600461127e565b610754565b6101f361077a565b6101d27faf290d8680820aad922855f39b306097b20e28774d6c1ad35a20325630c3a02c81565b6101d27f85faced7bde13e1a7dad704b895f006e704f207617d68166b31ba2d79624862d81565b60006001600160e01b031982167f7965db0b00000000000000000000000000000000000000000000000000000000148061040a57507f01ffc9a7000000000000000000000000000000000000000000000000000000006001600160e01b03198316145b92915050565b600061041c8133610aeb565b6104506001600160a01b037f0000000000000000000000000000000000000000000000000000000000000000163384610b69565b5050565b6000828152602081905260409020600101546104708133610aeb565b61047a8383610bfa565b505050565b6001600160a01b03811633146105025760405162461bcd60e51b815260206004820152602f60248201527f416363657373436f6e74726f6c3a2063616e206f6e6c792072656e6f756e636560448201527f20726f6c657320666f722073656c66000000000000000000000000000000000060648201526084015b60405180910390fd5b6104508282610c98565b7faf290d8680820aad922855f39b306097b20e28774d6c1ad35a20325630c3a02c6105378133610aeb565b50426003556004805460ff19169055565b7faf290d8680820aad922855f39b306097b20e28774d6c1ad35a20325630c3a02c6105738133610aeb565b506004805460ff19166001179055565b600061058f8133610aeb565b50600180547fffffffffffffffffffffffff0000000000000000000000000000000000000000166001600160a01b0392909216919091179055565b7fe16b3d8fc79140c62874442c8b523e98592b429e73c0db67686a5b378b29f3366105f58133610aeb565b61062a6001600160a01b037f000000000000000000000000000000000000000000000000000000000000000016333085610d17565b6040516370a0823160e01b81523060048201526000907f00000000000000000000000000000000000000000000000000000000000000006001600160a01b0316906370a082319060240160206040518083038186803b15801561068c57600080fd5b505afa1580156106a0573d6000803e3d6000fd5b505050506040513d601f19601f820116820180604052508101906106c491906112d1565b90506106d1601f826113f8565b600255505050565b60045460009060609060ff161580156106f457506003544210155b6040805160048152602481019091526020810180517bffffffffffffffffffffffffffffffffffffffffffffffffffffffff167fe4fc6b6d0000000000000000000000000000000000000000000000000000000017905290939092509050565b6000828152602081905260409020600101546107708133610aeb565b61047a8383610c98565b7f85faced7bde13e1a7dad704b895f006e704f207617d68166b31ba2d79624862d6107a58133610aeb565b6001546001600160a01b03166107fd5760405162461bcd60e51b815260206004820152601860248201527f636f6e74726163742061646472657373206e6f7420736574000000000000000060448201526064016104f9565b60006002541161084f5760405162461bcd60e51b815260206004820152601560248201527f6e6f207363686564756c6564207061796d656e7473000000000000000000000060448201526064016104f9565b6002546040516370a0823160e01b81523060048201527f00000000000000000000000000000000000000000000000000000000000000006001600160a01b0316906370a082319060240160206040518083038186803b1580156108b157600080fd5b505afa1580156108c5573d6000803e3d6000fd5b505050506040513d601f19601f820116820180604052508101906108e991906112d1565b10156109375760405162461bcd60e51b815260206004820152600d60248201527f6e6f2066756e6473206c6566740000000000000000000000000000000000000060448201526064016104f9565b6003544210156109895760405162461bcd60e51b815260206004820152600860248201527f746f6f20736f6f6e00000000000000000000000000000000000000000000000060448201526064016104f9565b6001546002546040517f095ea7b30000000000000000000000000000000000000000000000000000000081526001600160a01b03928316600482015260248101919091527f00000000000000000000000000000000000000000000000000000000000000009091169063095ea7b390604401602060405180830381600087803b158015610a1557600080fd5b505af1158015610a29573d6000803e3d6000fd5b505050506040513d601f19601f82011682018060405250810190610a4d9190611246565b506001546002546040517fb6b55f250000000000000000000000000000000000000000000000000000000081526001600160a01b039092169163b6b55f2591610a9c9160040190815260200190565b600060405180830381600087803b158015610ab657600080fd5b505af1158015610aca573d6000803e3d6000fd5b505050506201518060036000828254610ae391906113e0565b909155505050565b6000828152602081815260408083206001600160a01b038516845290915290205460ff1661045057610b27816001600160a01b03166014610d6e565b610b32836020610d6e565b604051602001610b43929190611331565b60408051601f198184030181529082905262461bcd60e51b82526104f9916004016113cd565b6040516001600160a01b03831660248201526044810182905261047a9084907fa9059cbb00000000000000000000000000000000000000000000000000000000906064015b60408051601f198184030181529190526020810180517bffffffffffffffffffffffffffffffffffffffffffffffffffffffff166001600160e01b031990931692909217909152610f9c565b6000828152602081815260408083206001600160a01b038516845290915290205460ff16610450576000828152602081815260408083206001600160a01b03851684529091529020805460ff19166001179055610c543390565b6001600160a01b0316816001600160a01b0316837f2f8788117e7eff1d82e926ec794901d17c78024a50270940304540a733656f0d60405160405180910390a45050565b6000828152602081815260408083206001600160a01b038516845290915290205460ff1615610450576000828152602081815260408083206001600160a01b0385168085529252808320805460ff1916905551339285917ff6391f5c32d9c69d2a47ea670b442974b53935d1edc7fd64eb21e047a839171b9190a45050565b6040516001600160a01b0380851660248301528316604482015260648101829052610d689085907f23b872dd0000000000000000000000000000000000000000000000000000000090608401610bae565b50505050565b60606000610d7d836002611418565b610d889060026113e0565b67ffffffffffffffff811115610dae57634e487b7160e01b600052604160045260246000fd5b6040519080825280601f01601f191660200182016040528015610dd8576020820181803683370190505b5090507f300000000000000000000000000000000000000000000000000000000000000081600081518110610e1d57634e487b7160e01b600052603260045260246000fd5b60200101906001600160f81b031916908160001a9053507f780000000000000000000000000000000000000000000000000000000000000081600181518110610e7657634e487b7160e01b600052603260045260246000fd5b60200101906001600160f81b031916908160001a9053506000610e9a846002611418565b610ea59060016113e0565b90505b6001811115610f46577f303132333435363738396162636465660000000000000000000000000000000085600f1660108110610ef457634e487b7160e01b600052603260045260246000fd5b1a60f81b828281518110610f1857634e487b7160e01b600052603260045260246000fd5b60200101906001600160f81b031916908160001a90535060049490941c93610f3f81611463565b9050610ea8565b508315610f955760405162461bcd60e51b815260206004820181905260248201527f537472696e67733a20686578206c656e67746820696e73756666696369656e7460448201526064016104f9565b9392505050565b6000610ff1826040518060400160405280602081526020017f5361666545524332303a206c6f772d6c6576656c2063616c6c206661696c6564815250856001600160a01b03166110819092919063ffffffff16565b80519091501561047a578080602001905181019061100f9190611246565b61047a5760405162461bcd60e51b815260206004820152602a60248201527f5361666545524332303a204552433230206f7065726174696f6e20646964206e60448201527f6f7420737563636565640000000000000000000000000000000000000000000060648201526084016104f9565b60606110908484600085611098565b949350505050565b6060824710156111105760405162461bcd60e51b815260206004820152602660248201527f416464726573733a20696e73756666696369656e742062616c616e636520666f60448201527f722063616c6c000000000000000000000000000000000000000000000000000060648201526084016104f9565b843b61115e5760405162461bcd60e51b815260206004820152601d60248201527f416464726573733a2063616c6c20746f206e6f6e2d636f6e747261637400000060448201526064016104f9565b600080866001600160a01b0316858760405161117a9190611315565b60006040518083038185875af1925050503d80600081146111b7576040519150601f19603f3d011682016040523d82523d6000602084013e6111bc565b606091505b50915091506111cc8282866111d7565b979650505050505050565b606083156111e6575081610f95565b8251156111f65782518084602001fd5b8160405162461bcd60e51b81526004016104f991906113cd565b80356001600160a01b038116811461122757600080fd5b919050565b60006020828403121561123d578081fd5b610f9582611210565b600060208284031215611257578081fd5b81518015158114610f95578182fd5b600060208284031215611277578081fd5b5035919050565b60008060408385031215611290578081fd5b823591506112a060208401611210565b90509250929050565b6000602082840312156112ba578081fd5b81356001600160e01b031981168114610f95578182fd5b6000602082840312156112e2578081fd5b5051919050565b60008151808452611301816020860160208601611437565b601f01601f19169290920160200192915050565b60008251611327818460208701611437565b9190910192915050565b7f416363657373436f6e74726f6c3a206163636f756e7420000000000000000000815260008351611369816017850160208801611437565b7f206973206d697373696e6720726f6c652000000000000000000000000000000060179184019182015283516113a6816028840160208801611437565b01602801949350505050565b821515815260406020820152600061109060408301846112e9565b602081526000610f9560208301846112e9565b600082198211156113f3576113f361147a565b500190565b60008261141357634e487b7160e01b81526012600452602481fd5b500490565b60008160001904831182151516156114325761143261147a565b500290565b60005b8381101561145257818101518382015260200161143a565b83811115610d685750506000910152565b6000816114725761147261147a565b506000190190565b634e487b7160e01b600052601160045260246000fdfea264697066735822122096b3d0b983d6452aa80df6c2df0cb3586f3b8009bdfcc0c101d89c02e979ef5464736f6c63430008040033a264697066735822122091235e3b6a0c170e0aaf9f920b26c63a6e0632148227df6bc3b125345c1f1c3d64736f6c63430008040033",
  "devdoc": {
    "kind": "dev",
    "methods": {
      "getRoleAdmin(bytes32)": {
        "details": "Returns the admin role that controls `role`. See {grantRole} and {revokeRole}. To change a role's admin, use {_setRoleAdmin}."
      },
      "grantRole(bytes32,address)": {
        "details": "Grants `role` to `account`. If `account` had not been already granted `role`, emits a {RoleGranted} event. Requirements: - the caller must have ``role``'s admin role."
      },
      "hasRole(bytes32,address)": {
        "details": "Returns `true` if `account` has been granted `role`."
      },
      "renounceRole(bytes32,address)": {
        "details": "Revokes `role` from the calling account. Roles are often managed via {grantRole} and {revokeRole}: this function's purpose is to provide a mechanism for accounts to lose their privileges if they are compromised (such as when a trusted device is misplaced). If the calling account had been revoked `role`, emits a {RoleRevoked} event. Requirements: - the caller must be `account`."
      },
      "revokeRole(bytes32,address)": {
        "details": "Revokes `role` from `account`. If `account` had been granted `role`, emits a {RoleRevoked} event. Requirements: - the caller must have ``role``'s admin role."
      },
      "supportsInterface(bytes4)": {
        "details": "See {IERC165-supportsInterface}."
      }
    },
    "version": 1
  },
  "userdoc": {
    "kind": "user",
    "methods": {},
    "version": 1
  },
  "storageLayout": {
    "storage": [
      {
        "astId": 24,
        "contract": "contracts/TangibleRentShare.sol:TangibleRentShare",
        "label": "_roles",
        "offset": 0,
        "slot": "0",
        "type": "t_mapping(t_bytes32,t_struct(RoleData)19_storage)"
      },
      {
        "astId": 7196,
        "contract": "contracts/TangibleRentShare.sol:TangibleRentShare",
        "label": "distributorAddress",
        "offset": 0,
        "slot": "1",
        "type": "t_address"
      },
      {
        "astId": 7201,
        "contract": "contracts/TangibleRentShare.sol:TangibleRentShare",
        "label": "_contractForToken",
        "offset": 0,
        "slot": "2",
        "type": "t_mapping(t_bytes_memory_ptr,t_struct(RevenueShareContract)7166_storage)"
      },
      {
        "astId": 7204,
        "contract": "contracts/TangibleRentShare.sol:TangibleRentShare",
        "label": "_tokens",
        "offset": 0,
        "slot": "3",
        "type": "t_array(t_bytes_storage)dyn_storage"
      }
    ],
    "types": {
      "t_address": {
        "encoding": "inplace",
        "label": "address",
        "numberOfBytes": "20"
      },
      "t_array(t_bytes_storage)dyn_storage": {
        "base": "t_bytes_storage",
        "encoding": "dynamic_array",
        "label": "bytes[]",
        "numberOfBytes": "32"
      },
      "t_bool": {
        "encoding": "inplace",
        "label": "bool",
        "numberOfBytes": "1"
      },
      "t_bytes32": {
        "encoding": "inplace",
        "label": "bytes32",
        "numberOfBytes": "32"
      },
      "t_bytes_memory_ptr": {
        "encoding": "bytes",
        "label": "bytes",
        "numberOfBytes": "32"
      },
      "t_bytes_storage": {
        "encoding": "bytes",
        "label": "bytes",
        "numberOfBytes": "32"
      },
      "t_mapping(t_address,t_bool)": {
        "encoding": "mapping",
        "key": "t_address",
        "label": "mapping(address => bool)",
        "numberOfBytes": "32",
        "value": "t_bool"
      },
      "t_mapping(t_bytes32,t_struct(RoleData)19_storage)": {
        "encoding": "mapping",
        "key": "t_bytes32",
        "label": "mapping(bytes32 => struct AccessControl.RoleData)",
        "numberOfBytes": "32",
        "value": "t_struct(RoleData)19_storage"
      },
      "t_mapping(t_bytes_memory_ptr,t_struct(RevenueShareContract)7166_storage)": {
        "encoding": "mapping",
        "key": "t_bytes_memory_ptr",
        "label": "mapping(bytes => struct TangibleRentShare.RevenueShareContract)",
        "numberOfBytes": "32",
        "value": "t_struct(RevenueShareContract)7166_storage"
      },
      "t_struct(RevenueShareContract)7166_storage": {
        "encoding": "inplace",
        "label": "struct TangibleRentShare.RevenueShareContract",
        "members": [
          {
            "astId": 7157,
            "contract": "contracts/TangibleRentShare.sol:TangibleRentShare",
            "label": "revenueShare",
            "offset": 0,
            "slot": "0",
            "type": "t_address"
          },
          {
            "astId": 7159,
            "contract": "contracts/TangibleRentShare.sol:TangibleRentShare",
            "label": "rentDistributor",
            "offset": 0,
            "slot": "1",
            "type": "t_address"
          },
          {
            "astId": 7161,
            "contract": "contracts/TangibleRentShare.sol:TangibleRentShare",
            "label": "contractAddress",
            "offset": 0,
            "slot": "2",
            "type": "t_address"
          },
          {
            "astId": 7163,
            "contract": "contracts/TangibleRentShare.sol:TangibleRentShare",
            "label": "tokenId",
            "offset": 0,
            "slot": "3",
            "type": "t_uint256"
          },
          {
            "astId": 7165,
            "contract": "contracts/TangibleRentShare.sol:TangibleRentShare",
            "label": "distributorTaskId",
            "offset": 0,
            "slot": "4",
            "type": "t_bytes32"
          }
        ],
        "numberOfBytes": "160"
      },
      "t_struct(RoleData)19_storage": {
        "encoding": "inplace",
        "label": "struct AccessControl.RoleData",
        "members": [
          {
            "astId": 16,
            "contract": "contracts/TangibleRentShare.sol:TangibleRentShare",
            "label": "members",
            "offset": 0,
            "slot": "0",
            "type": "t_mapping(t_address,t_bool)"
          },
          {
            "astId": 18,
            "contract": "contracts/TangibleRentShare.sol:TangibleRentShare",
            "label": "adminRole",
            "offset": 0,
            "slot": "1",
            "type": "t_bytes32"
          }
        ],
        "numberOfBytes": "64"
      },
      "t_uint256": {
        "encoding": "inplace",
        "label": "uint256",
        "numberOfBytes": "32"
      }
    }
  }
}