{
  "address": "0x751236Fb4015eFeeADE184EFfc69c2Ebf2C36A37",
  "abi": [
    {
      "inputs": [
        {
          "internalType": "address",
          "name": "tokenContractAddress",
          "type": "address"
        }
      ],
      "stateMutability": "nonpayable",
      "type": "constructor"
    },
    {
      "anonymous": false,
      "inputs": [
        {
          "indexed": false,
          "internalType": "address",
          "name": "account",
          "type": "address"
        }
      ],
      "name": "Paused",
      "type": "event"
    },
    {
      "anonymous": false,
      "inputs": [
        {
          "indexed": true,
          "internalType": "bytes32",
          "name": "role",
          "type": "bytes32"
        },
        {
          "indexed": true,
          "internalType": "bytes32",
          "name": "previousAdminRole",
          "type": "bytes32"
        },
        {
          "indexed": true,
          "internalType": "bytes32",
          "name": "newAdminRole",
          "type": "bytes32"
        }
      ],
      "name": "RoleAdminChanged",
      "type": "event"
    },
    {
      "anonymous": false,
      "inputs": [
        {
          "indexed": true,
          "internalType": "bytes32",
          "name": "role",
          "type": "bytes32"
        },
        {
          "indexed": true,
          "internalType": "address",
          "name": "account",
          "type": "address"
        },
        {
          "indexed": true,
          "internalType": "address",
          "name": "sender",
          "type": "address"
        }
      ],
      "name": "RoleGranted",
      "type": "event"
    },
    {
      "anonymous": false,
      "inputs": [
        {
          "indexed": true,
          "internalType": "bytes32",
          "name": "role",
          "type": "bytes32"
        },
        {
          "indexed": true,
          "internalType": "address",
          "name": "account",
          "type": "address"
        },
        {
          "indexed": true,
          "internalType": "address",
          "name": "sender",
          "type": "address"
        }
      ],
      "name": "RoleRevoked",
      "type": "event"
    },
    {
      "anonymous": false,
      "inputs": [
        {
          "indexed": false,
          "internalType": "address",
          "name": "account",
          "type": "address"
        }
      ],
      "name": "Unpaused",
      "type": "event"
    },
    {
      "inputs": [],
      "name": "DEFAULT_ADMIN_ROLE",
      "outputs": [
        {
          "internalType": "bytes32",
          "name": "",
          "type": "bytes32"
        }
      ],
      "stateMutability": "view",
      "type": "function"
    },
    {
      "inputs": [],
      "name": "DEPOSITOR_ROLE",
      "outputs": [
        {
          "internalType": "bytes32",
          "name": "",
          "type": "bytes32"
        }
      ],
      "stateMutability": "view",
      "type": "function"
    },
    {
      "inputs": [],
      "name": "DISTRIBUTOR_ROLE",
      "outputs": [
        {
          "internalType": "bytes32",
          "name": "",
          "type": "bytes32"
        }
      ],
      "stateMutability": "view",
      "type": "function"
    },
    {
      "inputs": [],
      "name": "dailyAmount",
      "outputs": [
        {
          "internalType": "uint256",
          "name": "",
          "type": "uint256"
        }
      ],
      "stateMutability": "view",
      "type": "function"
    },
    {
      "inputs": [
        {
          "internalType": "uint256",
          "name": "amount",
          "type": "uint256"
        }
      ],
      "name": "deposit",
      "outputs": [],
      "stateMutability": "nonpayable",
      "type": "function"
    },
    {
      "inputs": [],
      "name": "distribute",
      "outputs": [],
      "stateMutability": "nonpayable",
      "type": "function"
    },
    {
      "inputs": [
        {
          "internalType": "bytes32",
          "name": "role",
          "type": "bytes32"
        }
      ],
      "name": "getRoleAdmin",
      "outputs": [
        {
          "internalType": "bytes32",
          "name": "",
          "type": "bytes32"
        }
      ],
      "stateMutability": "view",
      "type": "function"
    },
    {
      "inputs": [
        {
          "internalType": "bytes32",
          "name": "role",
          "type": "bytes32"
        },
        {
          "internalType": "address",
          "name": "account",
          "type": "address"
        }
      ],
      "name": "grantRole",
      "outputs": [],
      "stateMutability": "nonpayable",
      "type": "function"
    },
    {
      "inputs": [
        {
          "internalType": "bytes32",
          "name": "role",
          "type": "bytes32"
        },
        {
          "internalType": "address",
          "name": "account",
          "type": "address"
        }
      ],
      "name": "hasRole",
      "outputs": [
        {
          "internalType": "bool",
          "name": "",
          "type": "bool"
        }
      ],
      "stateMutability": "view",
      "type": "function"
    },
    {
      "inputs": [],
      "name": "paused",
      "outputs": [
        {
          "internalType": "bool",
          "name": "",
          "type": "bool"
        }
      ],
      "stateMutability": "view",
      "type": "function"
    },
    {
      "inputs": [
        {
          "internalType": "bytes32",
          "name": "role",
          "type": "bytes32"
        },
        {
          "internalType": "address",
          "name": "account",
          "type": "address"
        }
      ],
      "name": "renounceRole",
      "outputs": [],
      "stateMutability": "nonpayable",
      "type": "function"
    },
    {
      "inputs": [],
      "name": "rentShareContract",
      "outputs": [
        {
          "internalType": "contract RevenueShare",
          "name": "",
          "type": "address"
        }
      ],
      "stateMutability": "view",
      "type": "function"
    },
    {
      "inputs": [],
      "name": "revenueToken",
      "outputs": [
        {
          "internalType": "contract IERC20",
          "name": "",
          "type": "address"
        }
      ],
      "stateMutability": "view",
      "type": "function"
    },
    {
      "inputs": [
        {
          "internalType": "bytes32",
          "name": "role",
          "type": "bytes32"
        },
        {
          "internalType": "address",
          "name": "account",
          "type": "address"
        }
      ],
      "name": "revokeRole",
      "outputs": [],
      "stateMutability": "nonpayable",
      "type": "function"
    },
    {
      "inputs": [
        {
          "internalType": "address",
          "name": "contractAddress",
          "type": "address"
        }
      ],
      "name": "setRevenueShareContract",
      "outputs": [],
      "stateMutability": "nonpayable",
      "type": "function"
    },
    {
      "inputs": [
        {
          "internalType": "bytes4",
          "name": "interfaceId",
          "type": "bytes4"
        }
      ],
      "name": "supportsInterface",
      "outputs": [
        {
          "internalType": "bool",
          "name": "",
          "type": "bool"
        }
      ],
      "stateMutability": "view",
      "type": "function"
    },
    {
      "inputs": [],
      "name": "togglePause",
      "outputs": [],
      "stateMutability": "nonpayable",
      "type": "function"
    },
    {
      "inputs": [
        {
          "internalType": "uint256",
          "name": "amount",
          "type": "uint256"
        }
      ],
      "name": "withdraw",
      "outputs": [],
      "stateMutability": "nonpayable",
      "type": "function"
    }
  ],
  "transactionHash": "0x7d26ddec358f027f4df5e4b57ee16074b88b2c91b460690a8e07b50038e6b930",
  "args": [
    "0xA0fB0349526B7213b6be0F1D9A62f952A9179D96"
  ],
  "numDeployments": 4,
  "solcInputHash": "e54cee8523fcb4d5591bbc7d9addb9f5",
  "bytecode": "0x60a060405234801561001057600080fd5b5060405161149838038061149883398101604081905261002f916100fb565b6001805460ff191690556001600160601b0319606082901b1660805261005660003361005c565b50610129565b6000828152602081815260408083206001600160a01b038516845290915290205460ff166100f7576000828152602081815260408083206001600160a01b03851684529091529020805460ff191660011790556100b63390565b6001600160a01b0316816001600160a01b0316837f2f8788117e7eff1d82e926ec794901d17c78024a50270940304540a733656f0d60405160405180910390a45b5050565b60006020828403121561010c578081fd5b81516001600160a01b0381168114610122578182fd5b9392505050565b60805160601c611335610163600039600081816101d401528181610392015281816104f901528181610552015261076001526113356000f3fe608060405234801561001057600080fd5b50600436106101365760003560e01c806391d14854116100b2578063b6b55f2511610081578063d547741f11610066578063d547741f146102ce578063e4fc6b6d146102e1578063f0bd87cc146102e957600080fd5b8063b6b55f25146102b3578063c4ae3168146102c657600080fd5b806391d148541461023a578063a217fddf14610271578063a3b0b5a314610279578063b4a84c23146102a057600080fd5b806336568abe1161010957806359c1334b116100ee57806359c1334b1461020e5780635c975abb1461021757806363f9554c1461022257600080fd5b806336568abe146101bc578063556e4e68146101cf57600080fd5b806301ffc9a71461013b578063248a9ca3146101635780632e1a7d4d146101945780632f2ff15d146101a9575b600080fd5b61014e61014936600461113f565b610310565b60405190151581526020015b60405180910390f35b6101866101713660046110fc565b60009081526020819052604090206001015490565b60405190815260200161015a565b6101a76101a23660046110fc565b610379565b005b6101a76101b7366004611114565b6103bd565b6101a76101ca366004611114565b6103e8565b6101f67f000000000000000000000000000000000000000000000000000000000000000081565b6040516001600160a01b03909116815260200161015a565b61018660025481565b60015460ff1661014e565b6001546101f69061010090046001600160a01b031681565b61014e610248366004611114565b6000918252602082815260408084206001600160a01b0393909316845291905290205460ff1690565b610186600081565b6101867fe16b3d8fc79140c62874442c8b523e98592b429e73c0db67686a5b378b29f33681565b6101a76102ae3660046110c2565b610475565b6101a76102c13660046110fc565b6104c1565b6101a76105e9565b6101a76102dc366004611114565b610613565b6101a7610639565b6101867f85faced7bde13e1a7dad704b895f006e704f207617d68166b31ba2d79624862d81565b60006001600160e01b031982167f7965db0b00000000000000000000000000000000000000000000000000000000148061037357507f01ffc9a7000000000000000000000000000000000000000000000000000000006001600160e01b03198316145b92915050565b6000610385813361085f565b6103b96001600160a01b037f00000000000000000000000000000000000000000000000000000000000000001633846108dd565b5050565b6000828152602081905260409020600101546103d9813361085f565b6103e3838361096e565b505050565b6001600160a01b038116331461046b5760405162461bcd60e51b815260206004820152602f60248201527f416363657373436f6e74726f6c3a2063616e206f6e6c792072656e6f756e636560448201527f20726f6c657320666f722073656c66000000000000000000000000000000000060648201526084015b60405180910390fd5b6103b98282610a0c565b6000610481813361085f565b50600180546001600160a01b03909216610100027fffffffffffffffffffffff0000000000000000000000000000000000000000ff909216919091179055565b7fe16b3d8fc79140c62874442c8b523e98592b429e73c0db67686a5b378b29f3366104ec813361085f565b6105216001600160a01b037f000000000000000000000000000000000000000000000000000000000000000016333085610a8b565b6040517f70a082310000000000000000000000000000000000000000000000000000000081523060048201526000907f00000000000000000000000000000000000000000000000000000000000000006001600160a01b0316906370a082319060240160206040518083038186803b15801561059c57600080fd5b505afa1580156105b0573d6000803e3d6000fd5b505050506040513d601f19601f820116820180604052508101906105d49190611167565b90506105e1601f82611267565b600255505050565b60006105f5813361085f565b60015460ff161561060b57610608610ae2565b50565b610608610b7e565b60008281526020819052604090206001015461062f813361085f565b6103e38383610a0c565b7f85faced7bde13e1a7dad704b895f006e704f207617d68166b31ba2d79624862d610664813361085f565b60015460ff16156106b75760405162461bcd60e51b815260206004820152601060248201527f5061757361626c653a20706175736564000000000000000000000000000000006044820152606401610462565b60015461010090046001600160a01b03166107145760405162461bcd60e51b815260206004820152601860248201527f636f6e74726163742061646472657373206e6f742073657400000000000000006044820152606401610462565b6001546002546040517f095ea7b30000000000000000000000000000000000000000000000000000000081526101009092046001600160a01b03908116600484015260248301919091527f0000000000000000000000000000000000000000000000000000000000000000169063095ea7b390604401602060405180830381600087803b1580156107a457600080fd5b505af11580156107b8573d6000803e3d6000fd5b505050506040513d601f19601f820116820180604052508101906107dc91906110dc565b506001546002546040517fb6b55f2500000000000000000000000000000000000000000000000000000000815260048101919091526101009091046001600160a01b03169063b6b55f2590602401600060405180830381600087803b15801561084457600080fd5b505af1158015610858573d6000803e3d6000fd5b5050505050565b6000828152602081815260408083206001600160a01b038516845290915290205460ff166103b95761089b816001600160a01b03166014610c04565b6108a6836020610c04565b6040516020016108b792919061119b565b60408051601f198184030181529082905262461bcd60e51b82526104629160040161121c565b6040516001600160a01b0383166024820152604481018290526103e39084907fa9059cbb00000000000000000000000000000000000000000000000000000000906064015b60408051601f198184030181529190526020810180517bffffffffffffffffffffffffffffffffffffffffffffffffffffffff166001600160e01b031990931692909217909152610e32565b6000828152602081815260408083206001600160a01b038516845290915290205460ff166103b9576000828152602081815260408083206001600160a01b03851684529091529020805460ff191660011790556109c83390565b6001600160a01b0316816001600160a01b0316837f2f8788117e7eff1d82e926ec794901d17c78024a50270940304540a733656f0d60405160405180910390a45050565b6000828152602081815260408083206001600160a01b038516845290915290205460ff16156103b9576000828152602081815260408083206001600160a01b0385168085529252808320805460ff1916905551339285917ff6391f5c32d9c69d2a47ea670b442974b53935d1edc7fd64eb21e047a839171b9190a45050565b6040516001600160a01b0380851660248301528316604482015260648101829052610adc9085907f23b872dd0000000000000000000000000000000000000000000000000000000090608401610922565b50505050565b60015460ff16610b345760405162461bcd60e51b815260206004820152601460248201527f5061757361626c653a206e6f74207061757365640000000000000000000000006044820152606401610462565b6001805460ff191690557f5db9ee0a495bf2e6ff9c91a7834c1ba4fdd244a5e8aa4e537bd38aeae4b073aa335b6040516001600160a01b03909116815260200160405180910390a1565b60015460ff1615610bd15760405162461bcd60e51b815260206004820152601060248201527f5061757361626c653a20706175736564000000000000000000000000000000006044820152606401610462565b6001805460ff1916811790557f62e78cea01bee320cd4e420270b5ea74000d11b0c9f74754ebdbfc544b05a25833610b61565b60606000610c13836002611287565b610c1e90600261124f565b67ffffffffffffffff811115610c4457634e487b7160e01b600052604160045260246000fd5b6040519080825280601f01601f191660200182016040528015610c6e576020820181803683370190505b5090507f300000000000000000000000000000000000000000000000000000000000000081600081518110610cb357634e487b7160e01b600052603260045260246000fd5b60200101906001600160f81b031916908160001a9053507f780000000000000000000000000000000000000000000000000000000000000081600181518110610d0c57634e487b7160e01b600052603260045260246000fd5b60200101906001600160f81b031916908160001a9053506000610d30846002611287565b610d3b90600161124f565b90505b6001811115610ddc577f303132333435363738396162636465660000000000000000000000000000000085600f1660108110610d8a57634e487b7160e01b600052603260045260246000fd5b1a60f81b828281518110610dae57634e487b7160e01b600052603260045260246000fd5b60200101906001600160f81b031916908160001a90535060049490941c93610dd5816112d2565b9050610d3e565b508315610e2b5760405162461bcd60e51b815260206004820181905260248201527f537472696e67733a20686578206c656e67746820696e73756666696369656e746044820152606401610462565b9392505050565b6000610e87826040518060400160405280602081526020017f5361666545524332303a206c6f772d6c6576656c2063616c6c206661696c6564815250856001600160a01b0316610f179092919063ffffffff16565b8051909150156103e35780806020019051810190610ea591906110dc565b6103e35760405162461bcd60e51b815260206004820152602a60248201527f5361666545524332303a204552433230206f7065726174696f6e20646964206e60448201527f6f742073756363656564000000000000000000000000000000000000000000006064820152608401610462565b6060610f268484600085610f2e565b949350505050565b606082471015610fa65760405162461bcd60e51b815260206004820152602660248201527f416464726573733a20696e73756666696369656e742062616c616e636520666f60448201527f722063616c6c00000000000000000000000000000000000000000000000000006064820152608401610462565b843b610ff45760405162461bcd60e51b815260206004820152601d60248201527f416464726573733a2063616c6c20746f206e6f6e2d636f6e74726163740000006044820152606401610462565b600080866001600160a01b03168587604051611010919061117f565b60006040518083038185875af1925050503d806000811461104d576040519150601f19603f3d011682016040523d82523d6000602084013e611052565b606091505b509150915061106282828661106d565b979650505050505050565b6060831561107c575081610e2b565b82511561108c5782518084602001fd5b8160405162461bcd60e51b8152600401610462919061121c565b80356001600160a01b03811681146110bd57600080fd5b919050565b6000602082840312156110d3578081fd5b610e2b826110a6565b6000602082840312156110ed578081fd5b81518015158114610e2b578182fd5b60006020828403121561110d578081fd5b5035919050565b60008060408385031215611126578081fd5b82359150611136602084016110a6565b90509250929050565b600060208284031215611150578081fd5b81356001600160e01b031981168114610e2b578182fd5b600060208284031215611178578081fd5b5051919050565b600082516111918184602087016112a6565b9190910192915050565b7f416363657373436f6e74726f6c3a206163636f756e74200000000000000000008152600083516111d38160178501602088016112a6565b7f206973206d697373696e6720726f6c652000000000000000000000000000000060179184019182015283516112108160288401602088016112a6565b01602801949350505050565b602081526000825180602084015261123b8160408501602087016112a6565b601f01601f19169190910160400192915050565b60008219821115611262576112626112e9565b500190565b60008261128257634e487b7160e01b81526012600452602481fd5b500490565b60008160001904831182151516156112a1576112a16112e9565b500290565b60005b838110156112c15781810151838201526020016112a9565b83811115610adc5750506000910152565b6000816112e1576112e16112e9565b506000190190565b634e487b7160e01b600052601160045260246000fdfea2646970667358221220f076a8e199bb44bd127cf63ca6d8cdd895f2f4678400c5d346f921b33a4bab6664736f6c63430008040033",
  "devdoc": {
    "kind": "dev",
    "methods": {
      "getRoleAdmin(bytes32)": {
        "details": "Returns the admin role that controls `role`. See {grantRole} and {revokeRole}. To change a role's admin, use {_setRoleAdmin}."
      },
      "grantRole(bytes32,address)": {
        "details": "Grants `role` to `account`. If `account` had not been already granted `role`, emits a {RoleGranted} event. Requirements: - the caller must have ``role``'s admin role."
      },
      "hasRole(bytes32,address)": {
        "details": "Returns `true` if `account` has been granted `role`."
      },
      "paused()": {
        "details": "Returns true if the contract is paused, and false otherwise."
      },
      "renounceRole(bytes32,address)": {
        "details": "Revokes `role` from the calling account. Roles are often managed via {grantRole} and {revokeRole}: this function's purpose is to provide a mechanism for accounts to lose their privileges if they are compromised (such as when a trusted device is misplaced). If the calling account had been revoked `role`, emits a {RoleRevoked} event. Requirements: - the caller must be `account`."
      },
      "revokeRole(bytes32,address)": {
        "details": "Revokes `role` from `account`. If `account` had been granted `role`, emits a {RoleRevoked} event. Requirements: - the caller must have ``role``'s admin role."
      },
      "supportsInterface(bytes4)": {
        "details": "See {IERC165-supportsInterface}."
      }
    },
    "version": 1
  },
  "userdoc": {
    "kind": "user",
    "methods": {},
    "version": 1
  },
  "storageLayout": {
    "storage": [
      {
        "astId": 24,
        "contract": "contracts/RentDistributer.sol:RentDistributor",
        "label": "_roles",
        "offset": 0,
        "slot": "0",
        "type": "t_mapping(t_bytes32,t_struct(RoleData)19_storage)"
      },
      {
        "astId": 504,
        "contract": "contracts/RentDistributer.sol:RentDistributor",
        "label": "_paused",
        "offset": 0,
        "slot": "1",
        "type": "t_bool"
      },
      {
        "astId": 6487,
        "contract": "contracts/RentDistributer.sol:RentDistributor",
        "label": "rentShareContract",
        "offset": 1,
        "slot": "1",
        "type": "t_contract(RevenueShare)7668"
      },
      {
        "astId": 6489,
        "contract": "contracts/RentDistributer.sol:RentDistributor",
        "label": "dailyAmount",
        "offset": 0,
        "slot": "2",
        "type": "t_uint256"
      }
    ],
    "types": {
      "t_address": {
        "encoding": "inplace",
        "label": "address",
        "numberOfBytes": "20"
      },
      "t_bool": {
        "encoding": "inplace",
        "label": "bool",
        "numberOfBytes": "1"
      },
      "t_bytes32": {
        "encoding": "inplace",
        "label": "bytes32",
        "numberOfBytes": "32"
      },
      "t_contract(RevenueShare)7668": {
        "encoding": "inplace",
        "label": "contract RevenueShare",
        "numberOfBytes": "20"
      },
      "t_mapping(t_address,t_bool)": {
        "encoding": "mapping",
        "key": "t_address",
        "label": "mapping(address => bool)",
        "numberOfBytes": "32",
        "value": "t_bool"
      },
      "t_mapping(t_bytes32,t_struct(RoleData)19_storage)": {
        "encoding": "mapping",
        "key": "t_bytes32",
        "label": "mapping(bytes32 => struct AccessControl.RoleData)",
        "numberOfBytes": "32",
        "value": "t_struct(RoleData)19_storage"
      },
      "t_struct(RoleData)19_storage": {
        "encoding": "inplace",
        "label": "struct AccessControl.RoleData",
        "members": [
          {
            "astId": 16,
            "contract": "contracts/RentDistributer.sol:RentDistributor",
            "label": "members",
            "offset": 0,
            "slot": "0",
            "type": "t_mapping(t_address,t_bool)"
          },
          {
            "astId": 18,
            "contract": "contracts/RentDistributer.sol:RentDistributor",
            "label": "adminRole",
            "offset": 0,
            "slot": "1",
            "type": "t_bytes32"
          }
        ],
        "numberOfBytes": "64"
      },
      "t_uint256": {
        "encoding": "inplace",
        "label": "uint256",
        "numberOfBytes": "32"
      }
    }
  }
}