{
  "address": "0x3FB0c44EECdB0c5B8f817294E8A42aC9ABA5d79b",
  "abi": [
    {
      "inputs": [
        {
          "internalType": "address",
          "name": "tokenContractAddress",
          "type": "address"
        }
      ],
      "stateMutability": "nonpayable",
      "type": "constructor"
    },
    {
      "anonymous": false,
      "inputs": [
        {
          "indexed": true,
          "internalType": "bytes32",
          "name": "role",
          "type": "bytes32"
        },
        {
          "indexed": true,
          "internalType": "bytes32",
          "name": "previousAdminRole",
          "type": "bytes32"
        },
        {
          "indexed": true,
          "internalType": "bytes32",
          "name": "newAdminRole",
          "type": "bytes32"
        }
      ],
      "name": "RoleAdminChanged",
      "type": "event"
    },
    {
      "anonymous": false,
      "inputs": [
        {
          "indexed": true,
          "internalType": "bytes32",
          "name": "role",
          "type": "bytes32"
        },
        {
          "indexed": true,
          "internalType": "address",
          "name": "account",
          "type": "address"
        },
        {
          "indexed": true,
          "internalType": "address",
          "name": "sender",
          "type": "address"
        }
      ],
      "name": "RoleGranted",
      "type": "event"
    },
    {
      "anonymous": false,
      "inputs": [
        {
          "indexed": true,
          "internalType": "bytes32",
          "name": "role",
          "type": "bytes32"
        },
        {
          "indexed": true,
          "internalType": "address",
          "name": "account",
          "type": "address"
        },
        {
          "indexed": true,
          "internalType": "address",
          "name": "sender",
          "type": "address"
        }
      ],
      "name": "RoleRevoked",
      "type": "event"
    },
    {
      "inputs": [],
      "name": "CLAIMER_ROLE",
      "outputs": [
        {
          "internalType": "bytes32",
          "name": "",
          "type": "bytes32"
        }
      ],
      "stateMutability": "view",
      "type": "function"
    },
    {
      "inputs": [],
      "name": "DEFAULT_ADMIN_ROLE",
      "outputs": [
        {
          "internalType": "bytes32",
          "name": "",
          "type": "bytes32"
        }
      ],
      "stateMutability": "view",
      "type": "function"
    },
    {
      "inputs": [],
      "name": "DEPOSITOR_ROLE",
      "outputs": [
        {
          "internalType": "bytes32",
          "name": "",
          "type": "bytes32"
        }
      ],
      "stateMutability": "view",
      "type": "function"
    },
    {
      "inputs": [],
      "name": "SHARE_MANAGER_ROLE",
      "outputs": [
        {
          "internalType": "bytes32",
          "name": "",
          "type": "bytes32"
        }
      ],
      "stateMutability": "view",
      "type": "function"
    },
    {
      "inputs": [
        {
          "internalType": "bytes",
          "name": "",
          "type": "bytes"
        },
        {
          "internalType": "uint256",
          "name": "",
          "type": "uint256"
        }
      ],
      "name": "changes",
      "outputs": [
        {
          "internalType": "int256",
          "name": "",
          "type": "int256"
        }
      ],
      "stateMutability": "view",
      "type": "function"
    },
    {
      "inputs": [
        {
          "internalType": "address",
          "name": "account",
          "type": "address"
        }
      ],
      "name": "claimFor",
      "outputs": [],
      "stateMutability": "nonpayable",
      "type": "function"
    },
    {
      "inputs": [
        {
          "internalType": "address",
          "name": "account",
          "type": "address"
        }
      ],
      "name": "claimableFor",
      "outputs": [
        {
          "internalType": "uint256",
          "name": "amount",
          "type": "uint256"
        }
      ],
      "stateMutability": "view",
      "type": "function"
    },
    {
      "inputs": [
        {
          "internalType": "address",
          "name": "contractAddress",
          "type": "address"
        },
        {
          "internalType": "uint256",
          "name": "tokenId",
          "type": "uint256"
        }
      ],
      "name": "claimableForToken",
      "outputs": [
        {
          "internalType": "uint256",
          "name": "",
          "type": "uint256"
        }
      ],
      "stateMutability": "view",
      "type": "function"
    },
    {
      "inputs": [
        {
          "internalType": "address[]",
          "name": "contractAddresses",
          "type": "address[]"
        },
        {
          "internalType": "uint256[]",
          "name": "tokenIds",
          "type": "uint256[]"
        }
      ],
      "name": "claimableForTokens",
      "outputs": [
        {
          "internalType": "uint256[]",
          "name": "",
          "type": "uint256[]"
        }
      ],
      "stateMutability": "view",
      "type": "function"
    },
    {
      "inputs": [],
      "name": "currentCycle",
      "outputs": [
        {
          "internalType": "uint256",
          "name": "",
          "type": "uint256"
        }
      ],
      "stateMutability": "view",
      "type": "function"
    },
    {
      "inputs": [
        {
          "internalType": "uint256",
          "name": "",
          "type": "uint256"
        }
      ],
      "name": "cycles",
      "outputs": [
        {
          "internalType": "uint256",
          "name": "",
          "type": "uint256"
        }
      ],
      "stateMutability": "view",
      "type": "function"
    },
    {
      "inputs": [
        {
          "internalType": "uint256",
          "name": "amount",
          "type": "uint256"
        }
      ],
      "name": "deposit",
      "outputs": [],
      "stateMutability": "nonpayable",
      "type": "function"
    },
    {
      "inputs": [
        {
          "internalType": "bytes32",
          "name": "role",
          "type": "bytes32"
        }
      ],
      "name": "getRoleAdmin",
      "outputs": [
        {
          "internalType": "bytes32",
          "name": "",
          "type": "bytes32"
        }
      ],
      "stateMutability": "view",
      "type": "function"
    },
    {
      "inputs": [
        {
          "internalType": "bytes32",
          "name": "role",
          "type": "bytes32"
        },
        {
          "internalType": "address",
          "name": "account",
          "type": "address"
        }
      ],
      "name": "grantRole",
      "outputs": [],
      "stateMutability": "nonpayable",
      "type": "function"
    },
    {
      "inputs": [
        {
          "internalType": "bytes32",
          "name": "role",
          "type": "bytes32"
        },
        {
          "internalType": "address",
          "name": "account",
          "type": "address"
        }
      ],
      "name": "hasRole",
      "outputs": [
        {
          "internalType": "bool",
          "name": "",
          "type": "bool"
        }
      ],
      "stateMutability": "view",
      "type": "function"
    },
    {
      "inputs": [
        {
          "internalType": "bytes",
          "name": "",
          "type": "bytes"
        }
      ],
      "name": "lastClaim",
      "outputs": [
        {
          "internalType": "uint256",
          "name": "",
          "type": "uint256"
        }
      ],
      "stateMutability": "view",
      "type": "function"
    },
    {
      "inputs": [
        {
          "internalType": "bytes32",
          "name": "role",
          "type": "bytes32"
        },
        {
          "internalType": "address",
          "name": "account",
          "type": "address"
        }
      ],
      "name": "renounceRole",
      "outputs": [],
      "stateMutability": "nonpayable",
      "type": "function"
    },
    {
      "inputs": [
        {
          "internalType": "uint256",
          "name": "",
          "type": "uint256"
        }
      ],
      "name": "revenue",
      "outputs": [
        {
          "internalType": "uint256",
          "name": "",
          "type": "uint256"
        }
      ],
      "stateMutability": "view",
      "type": "function"
    },
    {
      "inputs": [],
      "name": "revenueToken",
      "outputs": [
        {
          "internalType": "contract IERC20",
          "name": "",
          "type": "address"
        }
      ],
      "stateMutability": "view",
      "type": "function"
    },
    {
      "inputs": [
        {
          "internalType": "bytes32",
          "name": "role",
          "type": "bytes32"
        },
        {
          "internalType": "address",
          "name": "account",
          "type": "address"
        }
      ],
      "name": "revokeRole",
      "outputs": [],
      "stateMutability": "nonpayable",
      "type": "function"
    },
    {
      "inputs": [
        {
          "internalType": "bytes",
          "name": "",
          "type": "bytes"
        }
      ],
      "name": "share",
      "outputs": [
        {
          "internalType": "int256",
          "name": "",
          "type": "int256"
        }
      ],
      "stateMutability": "view",
      "type": "function"
    },
    {
      "inputs": [
        {
          "internalType": "bytes4",
          "name": "interfaceId",
          "type": "bytes4"
        }
      ],
      "name": "supportsInterface",
      "outputs": [
        {
          "internalType": "bool",
          "name": "",
          "type": "bool"
        }
      ],
      "stateMutability": "view",
      "type": "function"
    },
    {
      "inputs": [],
      "name": "total",
      "outputs": [
        {
          "internalType": "uint256",
          "name": "",
          "type": "uint256"
        }
      ],
      "stateMutability": "view",
      "type": "function"
    },
    {
      "inputs": [
        {
          "internalType": "uint256",
          "name": "",
          "type": "uint256"
        }
      ],
      "name": "totals",
      "outputs": [
        {
          "internalType": "int256",
          "name": "",
          "type": "int256"
        }
      ],
      "stateMutability": "view",
      "type": "function"
    },
    {
      "inputs": [
        {
          "internalType": "address",
          "name": "contractAddress",
          "type": "address"
        },
        {
          "internalType": "uint256",
          "name": "tokenId",
          "type": "uint256"
        },
        {
          "internalType": "int256",
          "name": "amount",
          "type": "int256"
        }
      ],
      "name": "updateShare",
      "outputs": [],
      "stateMutability": "nonpayable",
      "type": "function"
    }
  ],
  "transactionHash": "0x1ecdf113e5cf237755a4288658b4c9749b49aec1d436aaa87c1da870ddb5ba5d",
  "args": [
    "0xA0fB0349526B7213b6be0F1D9A62f952A9179D96"
  ],
  "numDeployments": 24,
  "solcInputHash": "cc0d00dd0a7894095088ba83ddbf6863",
  "bytecode": "0x60a06040523480156200001157600080fd5b5060405162001ffb38038062001ffb83398101604081905262000034916200012e565b6001600160601b0319606082901b166080526001805480820182556000918252427fb10e2d527612073b26eecdfd717e6a320cf44b4afac2b0732d9fcbe2b7fa0cf6909101556200008690336200008d565b506200015e565b6000828152602081815260408083206001600160a01b038516845290915290205460ff166200012a576000828152602081815260408083206001600160a01b03851684529091529020805460ff19166001179055620000e93390565b6001600160a01b0316816001600160a01b0316837f2f8788117e7eff1d82e926ec794901d17c78024a50270940304540a733656f0d60405160405180910390a45b5050565b60006020828403121562000140578081fd5b81516001600160a01b038116811462000157578182fd5b9392505050565b60805160601c611e706200018b600039600081816102950152818161066e0152610a3b0152611e706000f3fe608060405234801561001057600080fd5b50600436106101a35760003560e01c80639eac5c93116100ee578063bab2f55211610097578063ee8ad52811610071578063ee8ad52814610436578063eeb57b8814610449578063f8cc2cdc14610469578063fc5f18d31461047c57600080fd5b8063bab2f55214610408578063d547741f14610410578063ddeae0331461042357600080fd5b8063afbce3b9116100c8578063afbce3b9146103bb578063b079662c146103ce578063b6b55f25146103f557600080fd5b80639eac5c931461036c578063a217fddf1461038c578063a3b0b5a31461039457600080fd5b806336568abe116101505780636a0cc2051161012a5780636a0cc205146102cf5780637722dcfd146102fa57806391d148541461033557600080fd5b806336568abe1461025257806351615faf14610265578063556e4e681461029057600080fd5b8063248a9ca311610181578063248a9ca3146102115780632ddbd13a146102345780632f2ff15d1461023d57600080fd5b806301ffc9a7146101a857806307c9b254146101d05780631b338710146101f1575b600080fd5b6101bb6101b6366004611a73565b6104a3565b60405190151581526020015b60405180910390f35b6101e36101de3660046118f4565b61050c565b6040519081526020016101c7565b6101e36101ff366004611a30565b60036020526000908152604090205481565b6101e361021f366004611a30565b60009081526020819052604090206001015490565b6101e360025481565b61025061024b366004611a48565b610559565b005b610250610260366004611a48565b610584565b6101e3610273366004611a9b565b805160208183018101805160078252928201919093012091525481565b6102b77f000000000000000000000000000000000000000000000000000000000000000081565b6040516001600160a01b0390911681526020016101c7565b6101e36102dd366004611a9b565b805160208183018101805160058252928201919093012091525481565b6101e3610308366004611ace565b81516020818401810180516006825292820194820194909420919093529091526000908152604090205481565b6101bb610343366004611a48565b6000918252602082815260408084206001600160a01b0393909316845291905290205460ff1690565b6101e361037a366004611a30565b60046020526000908152604090205481565b6101e3600081565b6101e37fe16b3d8fc79140c62874442c8b523e98592b429e73c0db67686a5b378b29f33681565b6101e36103c9366004611a30565b610615565b6101e37fae7c689704f34080183a85b40737aa33c547df6b33d9c2e9da214e4f135d1f7681565b610250610403366004611a30565b610636565b6101e36106ec565b61025061041e366004611a48565b61072c565b6102506104313660046118da565b610752565b6101e36104443660046118da565b610a68565b61045c61045736600461194f565b610c3c565b6040516101c79190611bc6565b61025061047736600461191d565b610d7c565b6101e37fe5667d34d7ea8d6fdb3aa71a0a5b85e4cf7f68356dd003cd638556b0eea2bce581565b60006001600160e01b031982167f7965db0b00000000000000000000000000000000000000000000000000000000148061050657507f01ffc9a7000000000000000000000000000000000000000000000000000000006001600160e01b03198316145b92915050565b6040516bffffffffffffffffffffffff19606084901b166020820152603481018290526000908190605401604051602081830303815290604052905061055181610f90565b949350505050565b6000828152602081905260409020600101546105758133611149565b61057f83836111c7565b505050565b6001600160a01b03811633146106075760405162461bcd60e51b815260206004820152602f60248201527f416363657373436f6e74726f6c3a2063616e206f6e6c792072656e6f756e636560448201527f20726f6c657320666f722073656c66000000000000000000000000000000000060648201526084015b60405180910390fd5b6106118282611265565b5050565b6001818154811061062557600080fd5b600091825260209091200154905081565b7fe16b3d8fc79140c62874442c8b523e98592b429e73c0db67686a5b378b29f3366106618133611149565b6106966001600160a01b037f0000000000000000000000000000000000000000000000000000000000000000163330856112e4565b6001805480820182556000918252427fb10e2d527612073b26eecdfd717e6a320cf44b4afac2b0732d9fcbe2b7fa0cf69091015582906004906106d76106ec565b81526020810191909152604001600020555050565b600180546000916106fd8183611d99565b8154811061071b57634e487b7160e01b600052603260045260246000fd5b906000526020600020015491505090565b6000828152602081905260409020600101546107488133611149565b61057f8383611265565b6001600160a01b03811633148061079757503360009081527ff663af79306ec33a756b61b761d57de03396e7b060895197032ddb181285b7bb602052604090205460ff165b6107e35760405162461bcd60e51b815260206004820152601460248201527f756e617574686f72697a656420636c61696d657200000000000000000000000060448201526064016105fe565b6000806107ee6106ec565b60095490915060005b818110156109dd5760006009828154811061082257634e487b7160e01b600052603260045260246000fd5b60009182526020822001546040516370a0823160e01b81526001600160a01b038981166004830152909116925082919082906370a082319060240160206040518083038186803b15801561087557600080fd5b505afa158015610889573d6000803e3d6000fd5b505050506040513d601f19601f820116820180604052508101906108ad9190611b11565b905060005b818110156109c657604051632f745c5960e01b81526001600160a01b038a811660048301526024820183905260009190851690632f745c599060440160206040518083038186803b15801561090657600080fd5b505afa15801561091a573d6000803e3d6000fd5b505050506040513d601f19601f8201168201806040525081019061093e9190611b11565b6040516bffffffffffffffffffffffff19606088901b16602082015260348101829052909150600090605401604051602081830303815290604052905061098481610f90565b61098e908b611cea565b9950886007826040516109a19190611b29565b90815260405190819003602001902055508190506109be81611df3565b9150506108b2565b5050505080806109d590611df3565b9150506107f7565b5060008311610a2e5760405162461bcd60e51b815260206004820152601360248201527f6e6f20636c61696d61626c6520616d6f756e740000000000000000000000000060448201526064016105fe565b610a626001600160a01b037f000000000000000000000000000000000000000000000000000000000000000016858561137d565b50505050565b600954600090815b81811015610c3557600060098281548110610a9b57634e487b7160e01b600052603260045260246000fd5b60009182526020822001546040516370a0823160e01b81526001600160a01b038881166004830152909116925082919082906370a082319060240160206040518083038186803b158015610aee57600080fd5b505afa158015610b02573d6000803e3d6000fd5b505050506040513d601f19601f82011682018060405250810190610b269190611b11565b905060005b81811015610c1e57604051632f745c5960e01b81526001600160a01b0389811660048301526024820183905260009190851690632f745c599060440160206040518083038186803b158015610b7f57600080fd5b505afa158015610b93573d6000803e3d6000fd5b505050506040513d601f19601f82011682018060405250810190610bb79190611b11565b6040516bffffffffffffffffffffffff19606088901b166020820152603481018290529091506000906054016040516020818303038152906040529050610bfd81610f90565b610c07908a611cea565b985050508080610c1690611df3565b915050610b2b565b505050508080610c2d90611df3565b915050610a70565b5050919050565b815160609060008167ffffffffffffffff811115610c6a57634e487b7160e01b600052604160045260246000fd5b604051908082528060200260200182016040528015610c93578160200160208202803683370190505b50905060005b82811015610d7357610d36868281518110610cc457634e487b7160e01b600052603260045260246000fd5b6020026020010151868381518110610cec57634e487b7160e01b600052603260045260246000fd5b6020026020010151604051602001610d2292919060609290921b6bffffffffffffffffffffffff19168252601482015260340190565b604051602081830303815290604052610f90565b828281518110610d5657634e487b7160e01b600052603260045260246000fd5b602090810291909101015280610d6b81611df3565b915050610c99565b50949350505050565b7fae7c689704f34080183a85b40737aa33c547df6b33d9c2e9da214e4f135d1f76610da78133611149565b6040516bffffffffffffffffffffffff19606086901b1660208201526034810184905260009060540160405160208183030381529060405290506000610deb6106ec565b9050600582604051610dfd9190611b29565b90815260200160405180910390205460001415610e3d57610e1c6106ec565b600783604051610e2c9190611b29565b908152604051908190036020019020555b83600583604051610e4e9190611b29565b90815260200160405180910390206000828254610e6b9190611c92565b9250508190555083600683604051610e839190611b29565b908152602001604051809103902060008381526020019081526020016000206000828254610eb19190611c92565b9091555050600254610ec4908590611c92565b60025560008181526003602052604081208054869290610ee5908490611c92565b90915550506001600160a01b03861660009081526008602052604090205460ff16610f88576001600160a01b0386166000818152600860205260408120805460ff191660019081179091556009805491820181559091527f6e1540171b6c0c960b71a7020d9f60077f6af931a8bbf590da0223dacf75c7af0180547fffffffffffffffffffffffff00000000000000000000000000000000000000001690911790555b505050505050565b600080600583604051610fa39190611b29565b9081526040519081900360200181205460015490925090600090600790610fcb908790611b29565b90815260200160405180910390205490506000600686604051610fee9190611b29565b9081526040519081900360200190209050600160008161100e8187611d99565b8154811061102c57634e487b7160e01b600052603260045260246000fd5b60009182526020808320909101548083526003909152604082205460025491935061105691611d41565b6000838152602086905260409020549091506110729088611d41565b96505b858310801561108357508482115b1561113d57600082815260046020526040902054836110a181611df3565b9450600190506110b18589611d99565b815481106110cf57634e487b7160e01b600052603260045260246000fd5b906000526020600020015492508188826110e99190611d22565b6110f39190611d02565b6110fd908a611cea565b6000848152602087905260409020549099506111199089611d41565b6000848152600360205260409020549098506111359083611d41565b915050611075565b50505050505050919050565b6000828152602081815260408083206001600160a01b038516845290915290205460ff1661061157611185816001600160a01b031660146113c6565b6111908360206113c6565b6040516020016111a1929190611b45565b60408051601f198184030181529082905262461bcd60e51b82526105fe91600401611c0a565b6000828152602081815260408083206001600160a01b038516845290915290205460ff16610611576000828152602081815260408083206001600160a01b03851684529091529020805460ff191660011790556112213390565b6001600160a01b0316816001600160a01b0316837f2f8788117e7eff1d82e926ec794901d17c78024a50270940304540a733656f0d60405160405180910390a45050565b6000828152602081815260408083206001600160a01b038516845290915290205460ff1615610611576000828152602081815260408083206001600160a01b0385168085529252808320805460ff1916905551339285917ff6391f5c32d9c69d2a47ea670b442974b53935d1edc7fd64eb21e047a839171b9190a45050565b6040516001600160a01b0380851660248301528316604482015260648101829052610a629085907f23b872dd00000000000000000000000000000000000000000000000000000000906084015b60408051601f198184030181529190526020810180517bffffffffffffffffffffffffffffffffffffffffffffffffffffffff166001600160e01b0319909316929092179091526115f4565b6040516001600160a01b03831660248201526044810182905261057f9084907fa9059cbb0000000000000000000000000000000000000000000000000000000090606401611331565b606060006113d5836002611d22565b6113e0906002611cea565b67ffffffffffffffff81111561140657634e487b7160e01b600052604160045260246000fd5b6040519080825280601f01601f191660200182016040528015611430576020820181803683370190505b5090507f30000000000000000000000000000000000000000000000000000000000000008160008151811061147557634e487b7160e01b600052603260045260246000fd5b60200101906001600160f81b031916908160001a9053507f7800000000000000000000000000000000000000000000000000000000000000816001815181106114ce57634e487b7160e01b600052603260045260246000fd5b60200101906001600160f81b031916908160001a90535060006114f2846002611d22565b6114fd906001611cea565b90505b600181111561159e577f303132333435363738396162636465660000000000000000000000000000000085600f166010811061154c57634e487b7160e01b600052603260045260246000fd5b1a60f81b82828151811061157057634e487b7160e01b600052603260045260246000fd5b60200101906001600160f81b031916908160001a90535060049490941c9361159781611ddc565b9050611500565b5083156115ed5760405162461bcd60e51b815260206004820181905260248201527f537472696e67733a20686578206c656e67746820696e73756666696369656e7460448201526064016105fe565b9392505050565b6000611649826040518060400160405280602081526020017f5361666545524332303a206c6f772d6c6576656c2063616c6c206661696c6564815250856001600160a01b03166116d99092919063ffffffff16565b80519091501561057f57808060200190518101906116679190611a10565b61057f5760405162461bcd60e51b815260206004820152602a60248201527f5361666545524332303a204552433230206f7065726174696f6e20646964206e60448201527f6f7420737563636565640000000000000000000000000000000000000000000060648201526084016105fe565b6060610551848460008585843b6117325760405162461bcd60e51b815260206004820152601d60248201527f416464726573733a2063616c6c20746f206e6f6e2d636f6e747261637400000060448201526064016105fe565b600080866001600160a01b0316858760405161174e9190611b29565b60006040518083038185875af1925050503d806000811461178b576040519150601f19603f3d011682016040523d82523d6000602084013e611790565b606091505b50915091506117a08282866117ab565b979650505050505050565b606083156117ba5750816115ed565b8251156117ca5782518084602001fd5b8160405162461bcd60e51b81526004016105fe9190611c0a565b80356001600160a01b03811681146117fb57600080fd5b919050565b600082601f830112611810578081fd5b8135602061182561182083611c6e565b611c3d565b80838252828201915082860187848660051b8901011115611844578586fd5b855b8581101561186257813584529284019290840190600101611846565b5090979650505050505050565b600082601f83011261187f578081fd5b813567ffffffffffffffff81111561189957611899611e24565b6118ac601f8201601f1916602001611c3d565b8181528460208386010111156118c0578283fd5b816020850160208301379081016020019190915292915050565b6000602082840312156118eb578081fd5b6115ed826117e4565b60008060408385031215611906578081fd5b61190f836117e4565b946020939093013593505050565b600080600060608486031215611931578081fd5b61193a846117e4565b95602085013595506040909401359392505050565b60008060408385031215611961578182fd5b823567ffffffffffffffff80821115611978578384fd5b818501915085601f83011261198b578384fd5b8135602061199b61182083611c6e565b8083825282820191508286018a848660051b89010111156119ba578889fd5b8896505b848710156119e3576119cf816117e4565b8352600196909601959183019183016119be565b50965050860135925050808211156119f9578283fd5b50611a0685828601611800565b9150509250929050565b600060208284031215611a21578081fd5b815180151581146115ed578182fd5b600060208284031215611a41578081fd5b5035919050565b60008060408385031215611a5a578182fd5b82359150611a6a602084016117e4565b90509250929050565b600060208284031215611a84578081fd5b81356001600160e01b0319811681146115ed578182fd5b600060208284031215611aac578081fd5b813567ffffffffffffffff811115611ac2578182fd5b6105518482850161186f565b60008060408385031215611ae0578182fd5b823567ffffffffffffffff811115611af6578283fd5b611b028582860161186f565b95602094909401359450505050565b600060208284031215611b22578081fd5b5051919050565b60008251611b3b818460208701611db0565b9190910192915050565b7f416363657373436f6e74726f6c3a206163636f756e7420000000000000000000815260008351611b7d816017850160208801611db0565b7f206973206d697373696e6720726f6c65200000000000000000000000000000006017918401918201528351611bba816028840160208801611db0565b01602801949350505050565b6020808252825182820181905260009190848201906040850190845b81811015611bfe57835183529284019291840191600101611be2565b50909695505050505050565b6020815260008251806020840152611c29816040850160208701611db0565b601f01601f19169190910160400192915050565b604051601f8201601f1916810167ffffffffffffffff81118282101715611c6657611c66611e24565b604052919050565b600067ffffffffffffffff821115611c8857611c88611e24565b5060051b60200190565b6000808212827f7fffffffffffffffffffffffffffffffffffffffffffffffffffffffffffffff03841381151615611ccc57611ccc611e0e565b82600160ff1b038412811615611ce457611ce4611e0e565b50500190565b60008219821115611cfd57611cfd611e0e565b500190565b600082611d1d57634e487b7160e01b81526012600452602481fd5b500490565b6000816000190483118215151615611d3c57611d3c611e0e565b500290565b600080831283600160ff1b01831281151615611d5f57611d5f611e0e565b837f7fffffffffffffffffffffffffffffffffffffffffffffffffffffffffffffff018313811615611d9357611d93611e0e565b50500390565b600082821015611dab57611dab611e0e565b500390565b60005b83811015611dcb578181015183820152602001611db3565b83811115610a625750506000910152565b600081611deb57611deb611e0e565b506000190190565b6000600019821415611e0757611e07611e0e565b5060010190565b634e487b7160e01b600052601160045260246000fd5b634e487b7160e01b600052604160045260246000fdfea264697066735822122030f7f5cc34fd9520f3cb4d5d7cfa65d661daf9de512a5d959de3cf8146b0ee9c64736f6c63430008040033",
  "devdoc": {
    "kind": "dev",
    "methods": {
      "getRoleAdmin(bytes32)": {
        "details": "Returns the admin role that controls `role`. See {grantRole} and {revokeRole}. To change a role's admin, use {_setRoleAdmin}."
      },
      "grantRole(bytes32,address)": {
        "details": "Grants `role` to `account`. If `account` had not been already granted `role`, emits a {RoleGranted} event. Requirements: - the caller must have ``role``'s admin role."
      },
      "hasRole(bytes32,address)": {
        "details": "Returns `true` if `account` has been granted `role`."
      },
      "renounceRole(bytes32,address)": {
        "details": "Revokes `role` from the calling account. Roles are often managed via {grantRole} and {revokeRole}: this function's purpose is to provide a mechanism for accounts to lose their privileges if they are compromised (such as when a trusted device is misplaced). If the calling account had been revoked `role`, emits a {RoleRevoked} event. Requirements: - the caller must be `account`."
      },
      "revokeRole(bytes32,address)": {
        "details": "Revokes `role` from `account`. If `account` had been granted `role`, emits a {RoleRevoked} event. Requirements: - the caller must have ``role``'s admin role."
      },
      "supportsInterface(bytes4)": {
        "details": "See {IERC165-supportsInterface}."
      }
    },
    "version": 1
  },
  "userdoc": {
    "kind": "user",
    "methods": {},
    "version": 1
  },
  "storageLayout": {
    "storage": [
      {
        "astId": 24,
        "contract": "contracts/TangibleRevenueShare.sol:TangibleRevenueShare",
        "label": "_roles",
        "offset": 0,
        "slot": "0",
        "type": "t_mapping(t_bytes32,t_struct(RoleData)19_storage)"
      },
      {
        "astId": 6753,
        "contract": "contracts/TangibleRevenueShare.sol:TangibleRevenueShare",
        "label": "cycles",
        "offset": 0,
        "slot": "1",
        "type": "t_array(t_uint256)dyn_storage"
      },
      {
        "astId": 6755,
        "contract": "contracts/TangibleRevenueShare.sol:TangibleRevenueShare",
        "label": "total",
        "offset": 0,
        "slot": "2",
        "type": "t_uint256"
      },
      {
        "astId": 6759,
        "contract": "contracts/TangibleRevenueShare.sol:TangibleRevenueShare",
        "label": "totals",
        "offset": 0,
        "slot": "3",
        "type": "t_mapping(t_uint256,t_int256)"
      },
      {
        "astId": 6763,
        "contract": "contracts/TangibleRevenueShare.sol:TangibleRevenueShare",
        "label": "revenue",
        "offset": 0,
        "slot": "4",
        "type": "t_mapping(t_uint256,t_uint256)"
      },
      {
        "astId": 6767,
        "contract": "contracts/TangibleRevenueShare.sol:TangibleRevenueShare",
        "label": "share",
        "offset": 0,
        "slot": "5",
        "type": "t_mapping(t_bytes_memory_ptr,t_int256)"
      },
      {
        "astId": 6773,
        "contract": "contracts/TangibleRevenueShare.sol:TangibleRevenueShare",
        "label": "changes",
        "offset": 0,
        "slot": "6",
        "type": "t_mapping(t_bytes_memory_ptr,t_mapping(t_uint256,t_int256))"
      },
      {
        "astId": 6777,
        "contract": "contracts/TangibleRevenueShare.sol:TangibleRevenueShare",
        "label": "lastClaim",
        "offset": 0,
        "slot": "7",
        "type": "t_mapping(t_bytes_memory_ptr,t_uint256)"
      },
      {
        "astId": 6781,
        "contract": "contracts/TangibleRevenueShare.sol:TangibleRevenueShare",
        "label": "_isRegisteredNFT",
        "offset": 0,
        "slot": "8",
        "type": "t_mapping(t_address,t_bool)"
      },
      {
        "astId": 6784,
        "contract": "contracts/TangibleRevenueShare.sol:TangibleRevenueShare",
        "label": "_contracts",
        "offset": 0,
        "slot": "9",
        "type": "t_array(t_address)dyn_storage"
      }
    ],
    "types": {
      "t_address": {
        "encoding": "inplace",
        "label": "address",
        "numberOfBytes": "20"
      },
      "t_array(t_address)dyn_storage": {
        "base": "t_address",
        "encoding": "dynamic_array",
        "label": "address[]",
        "numberOfBytes": "32"
      },
      "t_array(t_uint256)dyn_storage": {
        "base": "t_uint256",
        "encoding": "dynamic_array",
        "label": "uint256[]",
        "numberOfBytes": "32"
      },
      "t_bool": {
        "encoding": "inplace",
        "label": "bool",
        "numberOfBytes": "1"
      },
      "t_bytes32": {
        "encoding": "inplace",
        "label": "bytes32",
        "numberOfBytes": "32"
      },
      "t_bytes_memory_ptr": {
        "encoding": "bytes",
        "label": "bytes",
        "numberOfBytes": "32"
      },
      "t_int256": {
        "encoding": "inplace",
        "label": "int256",
        "numberOfBytes": "32"
      },
      "t_mapping(t_address,t_bool)": {
        "encoding": "mapping",
        "key": "t_address",
        "label": "mapping(address => bool)",
        "numberOfBytes": "32",
        "value": "t_bool"
      },
      "t_mapping(t_bytes32,t_struct(RoleData)19_storage)": {
        "encoding": "mapping",
        "key": "t_bytes32",
        "label": "mapping(bytes32 => struct AccessControl.RoleData)",
        "numberOfBytes": "32",
        "value": "t_struct(RoleData)19_storage"
      },
      "t_mapping(t_bytes_memory_ptr,t_int256)": {
        "encoding": "mapping",
        "key": "t_bytes_memory_ptr",
        "label": "mapping(bytes => int256)",
        "numberOfBytes": "32",
        "value": "t_int256"
      },
      "t_mapping(t_bytes_memory_ptr,t_mapping(t_uint256,t_int256))": {
        "encoding": "mapping",
        "key": "t_bytes_memory_ptr",
        "label": "mapping(bytes => mapping(uint256 => int256))",
        "numberOfBytes": "32",
        "value": "t_mapping(t_uint256,t_int256)"
      },
      "t_mapping(t_bytes_memory_ptr,t_uint256)": {
        "encoding": "mapping",
        "key": "t_bytes_memory_ptr",
        "label": "mapping(bytes => uint256)",
        "numberOfBytes": "32",
        "value": "t_uint256"
      },
      "t_mapping(t_uint256,t_int256)": {
        "encoding": "mapping",
        "key": "t_uint256",
        "label": "mapping(uint256 => int256)",
        "numberOfBytes": "32",
        "value": "t_int256"
      },
      "t_mapping(t_uint256,t_uint256)": {
        "encoding": "mapping",
        "key": "t_uint256",
        "label": "mapping(uint256 => uint256)",
        "numberOfBytes": "32",
        "value": "t_uint256"
      },
      "t_struct(RoleData)19_storage": {
        "encoding": "inplace",
        "label": "struct AccessControl.RoleData",
        "members": [
          {
            "astId": 16,
            "contract": "contracts/TangibleRevenueShare.sol:TangibleRevenueShare",
            "label": "members",
            "offset": 0,
            "slot": "0",
            "type": "t_mapping(t_address,t_bool)"
          },
          {
            "astId": 18,
            "contract": "contracts/TangibleRevenueShare.sol:TangibleRevenueShare",
            "label": "adminRole",
            "offset": 0,
            "slot": "1",
            "type": "t_bytes32"
          }
        ],
        "numberOfBytes": "64"
      },
      "t_uint256": {
        "encoding": "inplace",
        "label": "uint256",
        "numberOfBytes": "32"
      }
    }
  }
}